{
	"09_TodoList.sol": {
		"TodoList": {
			"abi": [
				{
					"inputs": [],
					"stateMutability": "nonpayable",
					"type": "constructor"
				},
				{
					"inputs": [
						{
							"internalType": "string",
							"name": "_name",
							"type": "string"
						}
					],
					"name": "create",
					"outputs": [
						{
							"internalType": "address",
							"name": "",
							"type": "address"
						},
						{
							"internalType": "string",
							"name": "",
							"type": "string"
						},
						{
							"internalType": "bool",
							"name": "",
							"type": "bool"
						},
						{
							"internalType": "uint256",
							"name": "",
							"type": "uint256"
						}
					],
					"stateMutability": "nonpayable",
					"type": "function"
				},
				{
					"inputs": [
						{
							"internalType": "uint256",
							"name": "_index",
							"type": "uint256"
						}
					],
					"name": "getTaskInfo",
					"outputs": [
						{
							"internalType": "string",
							"name": "",
							"type": "string"
						},
						{
							"internalType": "bool",
							"name": "",
							"type": "bool"
						}
					],
					"stateMutability": "view",
					"type": "function"
				},
				{
					"inputs": [],
					"name": "kill",
					"outputs": [],
					"stateMutability": "nonpayable",
					"type": "function"
				},
				{
					"inputs": [],
					"name": "owner",
					"outputs": [
						{
							"internalType": "address",
							"name": "",
							"type": "address"
						}
					],
					"stateMutability": "view",
					"type": "function"
				},
				{
					"inputs": [
						{
							"internalType": "address",
							"name": "",
							"type": "address"
						},
						{
							"internalType": "uint256",
							"name": "",
							"type": "uint256"
						}
					],
					"name": "tasksByOwner",
					"outputs": [
						{
							"internalType": "string",
							"name": "name",
							"type": "string"
						},
						{
							"internalType": "bool",
							"name": "completed",
							"type": "bool"
						},
						{
							"internalType": "address",
							"name": "owner",
							"type": "address"
						},
						{
							"internalType": "uint256",
							"name": "index",
							"type": "uint256"
						}
					],
					"stateMutability": "view",
					"type": "function"
				},
				{
					"inputs": [
						{
							"internalType": "uint256",
							"name": "_index",
							"type": "uint256"
						},
						{
							"internalType": "bool",
							"name": "_completed",
							"type": "bool"
						}
					],
					"name": "update",
					"outputs": [],
					"stateMutability": "nonpayable",
					"type": "function"
				}
			],
			"devdoc": {
				"kind": "dev",
				"methods": {},
				"version": 1
			},
			"evm": {
				"assembly": "    /* \"09_TodoList.sol\":174:2333  contract TodoList {... */\n  mstore(0x40, 0xa0)\n    /* \"09_TodoList.sol\":236:286  constructor(){... */\n  callvalue\n  dup1\n  iszero\n  tag_1\n  jumpi\n  0x00\n  dup1\n  revert\ntag_1:\n  pop\n    /* \"09_TodoList.sol\":268:278  msg.sender */\n  caller\n    /* \"09_TodoList.sol\":260:278  owner = msg.sender */\n  0xffffffffffffffffffffffffffffffffffffffff\n  and\n  0x80\n  dup2\n  0xffffffffffffffffffffffffffffffffffffffff\n  and\n  dup2\n  mstore\n  pop\n  pop\n    /* \"09_TodoList.sol\":174:2333  contract TodoList {... */\n  mload(0x80)\n  codecopy(0x00, dataOffset(sub_0), dataSize(sub_0))\n  0x00\n  assignImmutable(\"0x2a80e1ef1d7842f27f2e6be0972bb708b9a135c38860dbe73c27c3486c34f4de\")\n  return(0x00, dataSize(sub_0))\nstop\n\nsub_0: assembly {\n        /* \"09_TodoList.sol\":174:2333  contract TodoList {... */\n      mstore(0x40, 0x80)\n      callvalue\n      dup1\n      iszero\n      tag_1\n      jumpi\n      0x00\n      dup1\n      revert\n    tag_1:\n      pop\n      jumpi(tag_2, lt(calldatasize, 0x04))\n      shr(0xe0, calldataload(0x00))\n      dup1\n      0x41c0e1b5\n      eq\n      tag_3\n      jumpi\n      dup1\n      0x48284b62\n      eq\n      tag_4\n      jumpi\n      dup1\n      0x8da5cb5b\n      eq\n      tag_5\n      jumpi\n      dup1\n      0xb6a46b3b\n      eq\n      tag_6\n      jumpi\n      dup1\n      0xd1a1b999\n      eq\n      tag_7\n      jumpi\n      dup1\n      0xd299370b\n      eq\n      tag_8\n      jumpi\n    tag_2:\n      0x00\n      dup1\n      revert\n        /* \"09_TodoList.sol\":2248:2330  function kill() external onlyOwner {... */\n    tag_3:\n      tag_9\n      tag_10\n      jump\t// in\n    tag_9:\n      stop\n        /* \"09_TodoList.sol\":1475:1766  function update(uint _index, bool _completed) external {... */\n    tag_4:\n      tag_11\n      0x04\n      dup1\n      calldatasize\n      sub\n      dup2\n      add\n      swap1\n      tag_12\n      swap2\n      swap1\n      tag_13\n      jump\t// in\n    tag_12:\n      tag_14\n      jump\t// in\n    tag_11:\n      stop\n        /* \"09_TodoList.sol\":199:229  address public immutable owner */\n    tag_5:\n      tag_15\n      tag_16\n      jump\t// in\n    tag_15:\n      mload(0x40)\n      tag_17\n      swap2\n      swap1\n      tag_18\n      jump\t// in\n    tag_17:\n      mload(0x40)\n      dup1\n      swap2\n      sub\n      swap1\n      return\n        /* \"09_TodoList.sol\":877:1312  function create(string memory _name) external  returns(address, string memory, bool, uint){... */\n    tag_6:\n      tag_19\n      0x04\n      dup1\n      calldatasize\n      sub\n      dup2\n      add\n      swap1\n      tag_20\n      swap2\n      swap1\n      tag_21\n      jump\t// in\n    tag_20:\n      tag_22\n      jump\t// in\n    tag_19:\n      mload(0x40)\n      tag_23\n      swap5\n      swap4\n      swap3\n      swap2\n      swap1\n      tag_24\n      jump\t// in\n    tag_23:\n      mload(0x40)\n      dup1\n      swap2\n      sub\n      swap1\n      return\n        /* \"09_TodoList.sol\":1892:2188  function getTaskInfo(uint _index) view external returns(string memory, bool){... */\n    tag_7:\n      tag_25\n      0x04\n      dup1\n      calldatasize\n      sub\n      dup2\n      add\n      swap1\n      tag_26\n      swap2\n      swap1\n      tag_27\n      jump\t// in\n    tag_26:\n      tag_28\n      jump\t// in\n    tag_25:\n      mload(0x40)\n      tag_29\n      swap3\n      swap2\n      swap1\n      tag_30\n      jump\t// in\n    tag_29:\n      mload(0x40)\n      dup1\n      swap2\n      sub\n      swap1\n      return\n        /* \"09_TodoList.sol\":557:603  mapping(address => Task[]) public tasksByOwner */\n    tag_8:\n      tag_31\n      0x04\n      dup1\n      calldatasize\n      sub\n      dup2\n      add\n      swap1\n      tag_32\n      swap2\n      swap1\n      tag_33\n      jump\t// in\n    tag_32:\n      tag_34\n      jump\t// in\n    tag_31:\n      mload(0x40)\n      tag_35\n      swap5\n      swap4\n      swap3\n      swap2\n      swap1\n      tag_36\n      jump\t// in\n    tag_35:\n      mload(0x40)\n      dup1\n      swap2\n      sub\n      swap1\n      return\n        /* \"09_TodoList.sol\":2248:2330  function kill() external onlyOwner {... */\n    tag_10:\n        /* \"09_TodoList.sol\":668:673  owner */\n      immutable(\"0x2a80e1ef1d7842f27f2e6be0972bb708b9a135c38860dbe73c27c3486c34f4de\")\n        /* \"09_TodoList.sol\":654:673  msg.sender == owner */\n      0xffffffffffffffffffffffffffffffffffffffff\n      and\n        /* \"09_TodoList.sol\":654:664  msg.sender */\n      caller\n        /* \"09_TodoList.sol\":654:673  msg.sender == owner */\n      0xffffffffffffffffffffffffffffffffffffffff\n      and\n      eq\n        /* \"09_TodoList.sol\":646:710  require(msg.sender == owner, \"sorry, you're not contract owner\") */\n      tag_38\n      jumpi\n      mload(0x40)\n      0x08c379a000000000000000000000000000000000000000000000000000000000\n      dup2\n      mstore\n      0x04\n      add\n      tag_39\n      swap1\n      tag_40\n      jump\t// in\n    tag_39:\n      mload(0x40)\n      dup1\n      swap2\n      sub\n      swap1\n      revert\n    tag_38:\n        /* \"09_TodoList.sol\":2315:2320  owner */\n      immutable(\"0x2a80e1ef1d7842f27f2e6be0972bb708b9a135c38860dbe73c27c3486c34f4de\")\n        /* \"09_TodoList.sol\":2294:2322  selfdestruct(payable(owner)) */\n      0xffffffffffffffffffffffffffffffffffffffff\n      and\n      selfdestruct\n        /* \"09_TodoList.sol\":1475:1766  function update(uint _index, bool _completed) external {... */\n    tag_14:\n        /* \"09_TodoList.sol\":1558:1570  tasksByOwner */\n      0x00\n        /* \"09_TodoList.sol\":1558:1582  tasksByOwner[msg.sender] */\n      dup1\n        /* \"09_TodoList.sol\":1571:1581  msg.sender */\n      caller\n        /* \"09_TodoList.sol\":1558:1582  tasksByOwner[msg.sender] */\n      0xffffffffffffffffffffffffffffffffffffffff\n      and\n      0xffffffffffffffffffffffffffffffffffffffff\n      and\n      dup2\n      mstore\n      0x20\n      add\n      swap1\n      dup2\n      mstore\n      0x20\n      add\n      0x00\n      keccak256\n        /* \"09_TodoList.sol\":1558:1589  tasksByOwner[msg.sender].length */\n      dup1\n      sload\n      swap1\n      pop\n        /* \"09_TodoList.sol\":1549:1555  _index */\n      dup3\n        /* \"09_TodoList.sol\":1549:1589  _index < tasksByOwner[msg.sender].length */\n      lt\n        /* \"09_TodoList.sol\":1541:1613  require(_index < tasksByOwner[msg.sender].length, \"Index out of bounds\") */\n      tag_43\n      jumpi\n      mload(0x40)\n      0x08c379a000000000000000000000000000000000000000000000000000000000\n      dup2\n      mstore\n      0x04\n      add\n      tag_44\n      swap1\n      tag_45\n      jump\t// in\n    tag_44:\n      mload(0x40)\n      dup1\n      swap2\n      sub\n      swap1\n      revert\n    tag_43:\n        /* \"09_TodoList.sol\":1748:1758  _completed */\n      dup1\n        /* \"09_TodoList.sol\":1703:1715  tasksByOwner */\n      0x00\n        /* \"09_TodoList.sol\":1703:1727  tasksByOwner[msg.sender] */\n      dup1\n        /* \"09_TodoList.sol\":1716:1726  msg.sender */\n      caller\n        /* \"09_TodoList.sol\":1703:1727  tasksByOwner[msg.sender] */\n      0xffffffffffffffffffffffffffffffffffffffff\n      and\n      0xffffffffffffffffffffffffffffffffffffffff\n      and\n      dup2\n      mstore\n      0x20\n      add\n      swap1\n      dup2\n      mstore\n      0x20\n      add\n      0x00\n      keccak256\n        /* \"09_TodoList.sol\":1728:1734  _index */\n      dup4\n        /* \"09_TodoList.sol\":1703:1735  tasksByOwner[msg.sender][_index] */\n      dup2\n      sload\n      dup2\n      lt\n      tag_46\n      jumpi\n      tag_47\n      tag_48\n      jump\t// in\n    tag_47:\n    tag_46:\n      swap1\n      0x00\n      mstore\n      keccak256(0x00, 0x20)\n      swap1\n      0x03\n      mul\n      add\n        /* \"09_TodoList.sol\":1703:1745  tasksByOwner[msg.sender][_index].completed */\n      0x01\n      add\n      0x00\n        /* \"09_TodoList.sol\":1703:1758  tasksByOwner[msg.sender][_index].completed = _completed */\n      0x0100\n      exp\n      dup2\n      sload\n      dup2\n      0xff\n      mul\n      not\n      and\n      swap1\n      dup4\n      iszero\n      iszero\n      mul\n      or\n      swap1\n      sstore\n      pop\n        /* \"09_TodoList.sol\":1475:1766  function update(uint _index, bool _completed) external {... */\n      pop\n      pop\n      jump\t// out\n        /* \"09_TodoList.sol\":199:229  address public immutable owner */\n    tag_16:\n      immutable(\"0x2a80e1ef1d7842f27f2e6be0972bb708b9a135c38860dbe73c27c3486c34f4de\")\n      dup2\n      jump\t// out\n        /* \"09_TodoList.sol\":877:1312  function create(string memory _name) external  returns(address, string memory, bool, uint){... */\n    tag_22:\n        /* \"09_TodoList.sol\":932:939  address */\n      0x00\n        /* \"09_TodoList.sol\":941:954  string memory */\n      0x60\n        /* \"09_TodoList.sol\":956:960  bool */\n      0x00\n        /* \"09_TodoList.sol\":962:966  uint */\n      dup1\n        /* \"09_TodoList.sol\":978:992  uint taskIndex */\n      0x00\n        /* \"09_TodoList.sol\":1029:1030  1 */\n      0x01\n        /* \"09_TodoList.sol\":995:1007  tasksByOwner */\n      0x00\n        /* \"09_TodoList.sol\":995:1019  tasksByOwner[msg.sender] */\n      dup1\n        /* \"09_TodoList.sol\":1008:1018  msg.sender */\n      caller\n        /* \"09_TodoList.sol\":995:1019  tasksByOwner[msg.sender] */\n      0xffffffffffffffffffffffffffffffffffffffff\n      and\n      0xffffffffffffffffffffffffffffffffffffffff\n      and\n      dup2\n      mstore\n      0x20\n      add\n      swap1\n      dup2\n      mstore\n      0x20\n      add\n      0x00\n      keccak256\n        /* \"09_TodoList.sol\":995:1026  tasksByOwner[msg.sender].length */\n      dup1\n      sload\n      swap1\n      pop\n        /* \"09_TodoList.sol\":995:1030  tasksByOwner[msg.sender].length + 1 */\n      tag_51\n      swap2\n      swap1\n      tag_52\n      jump\t// in\n    tag_51:\n        /* \"09_TodoList.sol\":978:1030  uint taskIndex = tasksByOwner[msg.sender].length + 1 */\n      swap1\n      pop\n        /* \"09_TodoList.sol\":1041:1060  Task memory newTask */\n      0x00\n        /* \"09_TodoList.sol\":1063:1200  Task({... */\n      mload(0x40)\n      dup1\n      0x80\n      add\n      0x40\n      mstore\n      dup1\n        /* \"09_TodoList.sol\":1121:1126  _name */\n      dup9\n        /* \"09_TodoList.sol\":1063:1200  Task({... */\n      dup2\n      mstore\n      0x20\n      add\n        /* \"09_TodoList.sol\":1152:1157  false */\n      0x00\n        /* \"09_TodoList.sol\":1063:1200  Task({... */\n      iszero\n      iszero\n      dup2\n      mstore\n      0x20\n      add\n        /* \"09_TodoList.sol\":1090:1100  msg.sender */\n      caller\n        /* \"09_TodoList.sol\":1063:1200  Task({... */\n      0xffffffffffffffffffffffffffffffffffffffff\n      and\n      dup2\n      mstore\n      0x20\n      add\n        /* \"09_TodoList.sol\":1179:1188  taskIndex */\n      dup4\n        /* \"09_TodoList.sol\":1063:1200  Task({... */\n      dup2\n      mstore\n      pop\n        /* \"09_TodoList.sol\":1041:1200  Task memory newTask = Task({... */\n      swap1\n      pop\n        /* \"09_TodoList.sol\":1211:1223  tasksByOwner */\n      0x00\n        /* \"09_TodoList.sol\":1211:1235  tasksByOwner[msg.sender] */\n      dup1\n        /* \"09_TodoList.sol\":1224:1234  msg.sender */\n      caller\n        /* \"09_TodoList.sol\":1211:1235  tasksByOwner[msg.sender] */\n      0xffffffffffffffffffffffffffffffffffffffff\n      and\n      0xffffffffffffffffffffffffffffffffffffffff\n      and\n      dup2\n      mstore\n      0x20\n      add\n      swap1\n      dup2\n      mstore\n      0x20\n      add\n      0x00\n      keccak256\n        /* \"09_TodoList.sol\":1241:1248  newTask */\n      dup2\n        /* \"09_TodoList.sol\":1211:1249  tasksByOwner[msg.sender].push(newTask) */\n      swap1\n      dup1\n      0x01\n      dup2\n      sload\n      add\n      dup1\n      dup3\n      sstore\n      dup1\n      swap2\n      pop\n      pop\n      0x01\n      swap1\n      sub\n      swap1\n      0x00\n      mstore\n      keccak256(0x00, 0x20)\n      swap1\n      0x03\n      mul\n      add\n      0x00\n      swap1\n      swap2\n      swap1\n      swap2\n      swap1\n      swap2\n      pop\n      0x00\n      dup3\n      add\n      mload\n      dup2\n      0x00\n      add\n      swap1\n      dup2\n      tag_54\n      swap2\n      swap1\n      tag_55\n      jump\t// in\n    tag_54:\n      pop\n      0x20\n      dup3\n      add\n      mload\n      dup2\n      0x01\n      add\n      exp(0x0100, 0x00)\n      dup2\n      sload\n      dup2\n      0xff\n      mul\n      not\n      and\n      swap1\n      dup4\n      iszero\n      iszero\n      mul\n      or\n      swap1\n      sstore\n      pop\n      0x40\n      dup3\n      add\n      mload\n      dup2\n      0x01\n      add\n      exp(0x0100, 0x01)\n      dup2\n      sload\n      dup2\n      0xffffffffffffffffffffffffffffffffffffffff\n      mul\n      not\n      and\n      swap1\n      dup4\n      0xffffffffffffffffffffffffffffffffffffffff\n      and\n      mul\n      or\n      swap1\n      sstore\n      pop\n      0x60\n      dup3\n      add\n      mload\n      dup2\n      0x02\n      add\n      sstore\n      pop\n      pop\n        /* \"09_TodoList.sol\":1268:1278  msg.sender */\n      caller\n        /* \"09_TodoList.sol\":1280:1285  _name */\n      dup8\n        /* \"09_TodoList.sol\":1287:1292  false */\n      0x00\n        /* \"09_TodoList.sol\":1294:1303  taskIndex */\n      dup5\n        /* \"09_TodoList.sol\":1260:1304  return (msg.sender, _name, false, taskIndex) */\n      swap6\n      pop\n      swap6\n      pop\n      swap6\n      pop\n      swap6\n      pop\n      pop\n      pop\n        /* \"09_TodoList.sol\":877:1312  function create(string memory _name) external  returns(address, string memory, bool, uint){... */\n      swap2\n      swap4\n      pop\n      swap2\n      swap4\n      jump\t// out\n        /* \"09_TodoList.sol\":1892:2188  function getTaskInfo(uint _index) view external returns(string memory, bool){... */\n    tag_28:\n        /* \"09_TodoList.sol\":1948:1961  string memory */\n      0x60\n        /* \"09_TodoList.sol\":1963:1967  bool */\n      0x00\n        /* \"09_TodoList.sol\":1996:2008  tasksByOwner */\n      dup1\n        /* \"09_TodoList.sol\":1996:2020  tasksByOwner[msg.sender] */\n      0x00\n        /* \"09_TodoList.sol\":2009:2019  msg.sender */\n      caller\n        /* \"09_TodoList.sol\":1996:2020  tasksByOwner[msg.sender] */\n      0xffffffffffffffffffffffffffffffffffffffff\n      and\n      0xffffffffffffffffffffffffffffffffffffffff\n      and\n      dup2\n      mstore\n      0x20\n      add\n      swap1\n      dup2\n      mstore\n      0x20\n      add\n      0x00\n      keccak256\n        /* \"09_TodoList.sol\":1996:2027  tasksByOwner[msg.sender].length */\n      dup1\n      sload\n      swap1\n      pop\n        /* \"09_TodoList.sol\":1987:1993  _index */\n      dup4\n        /* \"09_TodoList.sol\":1987:2027  _index < tasksByOwner[msg.sender].length */\n      lt\n        /* \"09_TodoList.sol\":1979:2051  require(_index < tasksByOwner[msg.sender].length, \"Index out of bounds\") */\n      tag_57\n      jumpi\n      mload(0x40)\n      0x08c379a000000000000000000000000000000000000000000000000000000000\n      dup2\n      mstore\n      0x04\n      add\n      tag_58\n      swap1\n      tag_45\n      jump\t// in\n    tag_58:\n      mload(0x40)\n      dup1\n      swap2\n      sub\n      swap1\n      revert\n    tag_57:\n        /* \"09_TodoList.sol\":2062:2084  Task[] memory taskList */\n      0x00\n        /* \"09_TodoList.sol\":2087:2099  tasksByOwner */\n      dup1\n        /* \"09_TodoList.sol\":2087:2111  tasksByOwner[msg.sender] */\n      0x00\n        /* \"09_TodoList.sol\":2100:2110  msg.sender */\n      caller\n        /* \"09_TodoList.sol\":2087:2111  tasksByOwner[msg.sender] */\n      0xffffffffffffffffffffffffffffffffffffffff\n      and\n      0xffffffffffffffffffffffffffffffffffffffff\n      and\n      dup2\n      mstore\n      0x20\n      add\n      swap1\n      dup2\n      mstore\n      0x20\n      add\n      0x00\n      keccak256\n        /* \"09_TodoList.sol\":2062:2111  Task[] memory taskList = tasksByOwner[msg.sender] */\n      dup1\n      sload\n      dup1\n      0x20\n      mul\n      0x20\n      add\n      mload(0x40)\n      swap1\n      dup2\n      add\n      0x40\n      mstore\n      dup1\n      swap3\n      swap2\n      swap1\n      dup2\n      dup2\n      mstore\n      0x20\n      add\n      0x00\n      swap1\n    tag_59:\n      dup3\n      dup3\n      lt\n      iszero\n      tag_60\n      jumpi\n      dup4\n      dup3\n      swap1\n      0x00\n      mstore\n      keccak256(0x00, 0x20)\n      swap1\n      0x03\n      mul\n      add\n      mload(0x40)\n      dup1\n      0x80\n      add\n      0x40\n      mstore\n      swap1\n      dup2\n      0x00\n      dup3\n      add\n      dup1\n      sload\n      tag_62\n      swap1\n      tag_63\n      jump\t// in\n    tag_62:\n      dup1\n      0x1f\n      add\n      0x20\n      dup1\n      swap2\n      div\n      mul\n      0x20\n      add\n      mload(0x40)\n      swap1\n      dup2\n      add\n      0x40\n      mstore\n      dup1\n      swap3\n      swap2\n      swap1\n      dup2\n      dup2\n      mstore\n      0x20\n      add\n      dup3\n      dup1\n      sload\n      tag_64\n      swap1\n      tag_63\n      jump\t// in\n    tag_64:\n      dup1\n      iszero\n      tag_65\n      jumpi\n      dup1\n      0x1f\n      lt\n      tag_66\n      jumpi\n      0x0100\n      dup1\n      dup4\n      sload\n      div\n      mul\n      dup4\n      mstore\n      swap2\n      0x20\n      add\n      swap2\n      jump(tag_65)\n    tag_66:\n      dup3\n      add\n      swap2\n      swap1\n      0x00\n      mstore\n      keccak256(0x00, 0x20)\n      swap1\n    tag_67:\n      dup2\n      sload\n      dup2\n      mstore\n      swap1\n      0x01\n      add\n      swap1\n      0x20\n      add\n      dup1\n      dup4\n      gt\n      tag_67\n      jumpi\n      dup3\n      swap1\n      sub\n      0x1f\n      and\n      dup3\n      add\n      swap2\n    tag_65:\n      pop\n      pop\n      pop\n      pop\n      pop\n      dup2\n      mstore\n      0x20\n      add\n      0x01\n      dup3\n      add\n      0x00\n      swap1\n      sload\n      swap1\n      0x0100\n      exp\n      swap1\n      div\n      0xff\n      and\n      iszero\n      iszero\n      iszero\n      iszero\n      dup2\n      mstore\n      0x20\n      add\n      0x01\n      dup3\n      add\n      0x01\n      swap1\n      sload\n      swap1\n      0x0100\n      exp\n      swap1\n      div\n      0xffffffffffffffffffffffffffffffffffffffff\n      and\n      0xffffffffffffffffffffffffffffffffffffffff\n      and\n      0xffffffffffffffffffffffffffffffffffffffff\n      and\n      dup2\n      mstore\n      0x20\n      add\n      0x02\n      dup3\n      add\n      sload\n      dup2\n      mstore\n      pop\n      pop\n      dup2\n      mstore\n      0x20\n      add\n      swap1\n      0x01\n      add\n      swap1\n      jump(tag_59)\n    tag_60:\n      pop\n      pop\n      pop\n      pop\n      swap1\n      pop\n        /* \"09_TodoList.sol\":2130:2138  taskList */\n      dup1\n        /* \"09_TodoList.sol\":2139:2145  _index */\n      dup5\n        /* \"09_TodoList.sol\":2130:2146  taskList[_index] */\n      dup2\n      mload\n      dup2\n      lt\n      tag_68\n      jumpi\n      tag_69\n      tag_48\n      jump\t// in\n    tag_69:\n    tag_68:\n      0x20\n      mul\n      0x20\n      add\n      add\n      mload\n        /* \"09_TodoList.sol\":2130:2151  taskList[_index].name */\n      0x00\n      add\n      mload\n        /* \"09_TodoList.sol\":2153:2161  taskList */\n      dup2\n        /* \"09_TodoList.sol\":2162:2168  _index */\n      dup6\n        /* \"09_TodoList.sol\":2153:2169  taskList[_index] */\n      dup2\n      mload\n      dup2\n      lt\n      tag_70\n      jumpi\n      tag_71\n      tag_48\n      jump\t// in\n    tag_71:\n    tag_70:\n      0x20\n      mul\n      0x20\n      add\n      add\n      mload\n        /* \"09_TodoList.sol\":2153:2179  taskList[_index].completed */\n      0x20\n      add\n      mload\n        /* \"09_TodoList.sol\":2122:2180  return (taskList[_index].name, taskList[_index].completed) */\n      swap3\n      pop\n      swap3\n      pop\n      pop\n        /* \"09_TodoList.sol\":1892:2188  function getTaskInfo(uint _index) view external returns(string memory, bool){... */\n      swap2\n      pop\n      swap2\n      jump\t// out\n        /* \"09_TodoList.sol\":557:603  mapping(address => Task[]) public tasksByOwner */\n    tag_34:\n      mstore(0x20, 0x00)\n      dup2\n      0x00\n      mstore\n      keccak256(0x00, 0x40)\n      dup2\n      dup2\n      sload\n      dup2\n      lt\n      tag_72\n      jumpi\n      0x00\n      dup1\n      revert\n    tag_72:\n      swap1\n      0x00\n      mstore\n      keccak256(0x00, 0x20)\n      swap1\n      0x03\n      mul\n      add\n      0x00\n      swap2\n      pop\n      swap2\n      pop\n      pop\n      dup1\n      0x00\n      add\n      dup1\n      sload\n      tag_74\n      swap1\n      tag_63\n      jump\t// in\n    tag_74:\n      dup1\n      0x1f\n      add\n      0x20\n      dup1\n      swap2\n      div\n      mul\n      0x20\n      add\n      mload(0x40)\n      swap1\n      dup2\n      add\n      0x40\n      mstore\n      dup1\n      swap3\n      swap2\n      swap1\n      dup2\n      dup2\n      mstore\n      0x20\n      add\n      dup3\n      dup1\n      sload\n      tag_75\n      swap1\n      tag_63\n      jump\t// in\n    tag_75:\n      dup1\n      iszero\n      tag_76\n      jumpi\n      dup1\n      0x1f\n      lt\n      tag_77\n      jumpi\n      0x0100\n      dup1\n      dup4\n      sload\n      div\n      mul\n      dup4\n      mstore\n      swap2\n      0x20\n      add\n      swap2\n      jump(tag_76)\n    tag_77:\n      dup3\n      add\n      swap2\n      swap1\n      0x00\n      mstore\n      keccak256(0x00, 0x20)\n      swap1\n    tag_78:\n      dup2\n      sload\n      dup2\n      mstore\n      swap1\n      0x01\n      add\n      swap1\n      0x20\n      add\n      dup1\n      dup4\n      gt\n      tag_78\n      jumpi\n      dup3\n      swap1\n      sub\n      0x1f\n      and\n      dup3\n      add\n      swap2\n    tag_76:\n      pop\n      pop\n      pop\n      pop\n      pop\n      swap1\n      dup1\n      0x01\n      add\n      0x00\n      swap1\n      sload\n      swap1\n      0x0100\n      exp\n      swap1\n      div\n      0xff\n      and\n      swap1\n      dup1\n      0x01\n      add\n      0x01\n      swap1\n      sload\n      swap1\n      0x0100\n      exp\n      swap1\n      div\n      0xffffffffffffffffffffffffffffffffffffffff\n      and\n      swap1\n      dup1\n      0x02\n      add\n      sload\n      swap1\n      pop\n      dup5\n      jump\t// out\n        /* \"#utility.yul\":7:82   */\n    tag_79:\n        /* \"#utility.yul\":40:46   */\n      0x00\n        /* \"#utility.yul\":73:75   */\n      0x40\n        /* \"#utility.yul\":67:76   */\n      mload\n        /* \"#utility.yul\":57:76   */\n      swap1\n      pop\n        /* \"#utility.yul\":7:82   */\n      swap1\n      jump\t// out\n        /* \"#utility.yul\":88:205   */\n    tag_80:\n        /* \"#utility.yul\":197:198   */\n      0x00\n        /* \"#utility.yul\":194:195   */\n      dup1\n        /* \"#utility.yul\":187:199   */\n      revert\n        /* \"#utility.yul\":211:328   */\n    tag_81:\n        /* \"#utility.yul\":320:321   */\n      0x00\n        /* \"#utility.yul\":317:318   */\n      dup1\n        /* \"#utility.yul\":310:322   */\n      revert\n        /* \"#utility.yul\":334:411   */\n    tag_82:\n        /* \"#utility.yul\":371:378   */\n      0x00\n        /* \"#utility.yul\":400:405   */\n      dup2\n        /* \"#utility.yul\":389:405   */\n      swap1\n      pop\n        /* \"#utility.yul\":334:411   */\n      swap2\n      swap1\n      pop\n      jump\t// out\n        /* \"#utility.yul\":417:539   */\n    tag_83:\n        /* \"#utility.yul\":490:514   */\n      tag_136\n        /* \"#utility.yul\":508:513   */\n      dup2\n        /* \"#utility.yul\":490:514   */\n      tag_82\n      jump\t// in\n    tag_136:\n        /* \"#utility.yul\":483:488   */\n      dup2\n        /* \"#utility.yul\":480:515   */\n      eq\n        /* \"#utility.yul\":470:533   */\n      tag_137\n      jumpi\n        /* \"#utility.yul\":529:530   */\n      0x00\n        /* \"#utility.yul\":526:527   */\n      dup1\n        /* \"#utility.yul\":519:531   */\n      revert\n        /* \"#utility.yul\":470:533   */\n    tag_137:\n        /* \"#utility.yul\":417:539   */\n      pop\n      jump\t// out\n        /* \"#utility.yul\":545:684   */\n    tag_84:\n        /* \"#utility.yul\":591:596   */\n      0x00\n        /* \"#utility.yul\":629:635   */\n      dup2\n        /* \"#utility.yul\":616:636   */\n      calldataload\n        /* \"#utility.yul\":607:636   */\n      swap1\n      pop\n        /* \"#utility.yul\":645:678   */\n      tag_139\n        /* \"#utility.yul\":672:677   */\n      dup2\n        /* \"#utility.yul\":645:678   */\n      tag_83\n      jump\t// in\n    tag_139:\n        /* \"#utility.yul\":545:684   */\n      swap3\n      swap2\n      pop\n      pop\n      jump\t// out\n        /* \"#utility.yul\":690:780   */\n    tag_85:\n        /* \"#utility.yul\":724:731   */\n      0x00\n        /* \"#utility.yul\":767:772   */\n      dup2\n        /* \"#utility.yul\":760:773   */\n      iszero\n        /* \"#utility.yul\":753:774   */\n      iszero\n        /* \"#utility.yul\":742:774   */\n      swap1\n      pop\n        /* \"#utility.yul\":690:780   */\n      swap2\n      swap1\n      pop\n      jump\t// out\n        /* \"#utility.yul\":786:902   */\n    tag_86:\n        /* \"#utility.yul\":856:877   */\n      tag_142\n        /* \"#utility.yul\":871:876   */\n      dup2\n        /* \"#utility.yul\":856:877   */\n      tag_85\n      jump\t// in\n    tag_142:\n        /* \"#utility.yul\":849:854   */\n      dup2\n        /* \"#utility.yul\":846:878   */\n      eq\n        /* \"#utility.yul\":836:896   */\n      tag_143\n      jumpi\n        /* \"#utility.yul\":892:893   */\n      0x00\n        /* \"#utility.yul\":889:890   */\n      dup1\n        /* \"#utility.yul\":882:894   */\n      revert\n        /* \"#utility.yul\":836:896   */\n    tag_143:\n        /* \"#utility.yul\":786:902   */\n      pop\n      jump\t// out\n        /* \"#utility.yul\":908:1041   */\n    tag_87:\n        /* \"#utility.yul\":951:956   */\n      0x00\n        /* \"#utility.yul\":989:995   */\n      dup2\n        /* \"#utility.yul\":976:996   */\n      calldataload\n        /* \"#utility.yul\":967:996   */\n      swap1\n      pop\n        /* \"#utility.yul\":1005:1035   */\n      tag_145\n        /* \"#utility.yul\":1029:1034   */\n      dup2\n        /* \"#utility.yul\":1005:1035   */\n      tag_86\n      jump\t// in\n    tag_145:\n        /* \"#utility.yul\":908:1041   */\n      swap3\n      swap2\n      pop\n      pop\n      jump\t// out\n        /* \"#utility.yul\":1047:1515   */\n    tag_13:\n        /* \"#utility.yul\":1112:1118   */\n      0x00\n        /* \"#utility.yul\":1120:1126   */\n      dup1\n        /* \"#utility.yul\":1169:1171   */\n      0x40\n        /* \"#utility.yul\":1157:1166   */\n      dup4\n        /* \"#utility.yul\":1148:1155   */\n      dup6\n        /* \"#utility.yul\":1144:1167   */\n      sub\n        /* \"#utility.yul\":1140:1172   */\n      slt\n        /* \"#utility.yul\":1137:1256   */\n      iszero\n      tag_147\n      jumpi\n        /* \"#utility.yul\":1175:1254   */\n      tag_148\n      tag_80\n      jump\t// in\n    tag_148:\n        /* \"#utility.yul\":1137:1256   */\n    tag_147:\n        /* \"#utility.yul\":1295:1296   */\n      0x00\n        /* \"#utility.yul\":1320:1373   */\n      tag_149\n        /* \"#utility.yul\":1365:1372   */\n      dup6\n        /* \"#utility.yul\":1356:1362   */\n      dup3\n        /* \"#utility.yul\":1345:1354   */\n      dup7\n        /* \"#utility.yul\":1341:1363   */\n      add\n        /* \"#utility.yul\":1320:1373   */\n      tag_84\n      jump\t// in\n    tag_149:\n        /* \"#utility.yul\":1310:1373   */\n      swap3\n      pop\n        /* \"#utility.yul\":1266:1383   */\n      pop\n        /* \"#utility.yul\":1422:1424   */\n      0x20\n        /* \"#utility.yul\":1448:1498   */\n      tag_150\n        /* \"#utility.yul\":1490:1497   */\n      dup6\n        /* \"#utility.yul\":1481:1487   */\n      dup3\n        /* \"#utility.yul\":1470:1479   */\n      dup7\n        /* \"#utility.yul\":1466:1488   */\n      add\n        /* \"#utility.yul\":1448:1498   */\n      tag_87\n      jump\t// in\n    tag_150:\n        /* \"#utility.yul\":1438:1498   */\n      swap2\n      pop\n        /* \"#utility.yul\":1393:1508   */\n      pop\n        /* \"#utility.yul\":1047:1515   */\n      swap3\n      pop\n      swap3\n      swap1\n      pop\n      jump\t// out\n        /* \"#utility.yul\":1521:1647   */\n    tag_88:\n        /* \"#utility.yul\":1558:1565   */\n      0x00\n        /* \"#utility.yul\":1598:1640   */\n      0xffffffffffffffffffffffffffffffffffffffff\n        /* \"#utility.yul\":1591:1596   */\n      dup3\n        /* \"#utility.yul\":1587:1641   */\n      and\n        /* \"#utility.yul\":1576:1641   */\n      swap1\n      pop\n        /* \"#utility.yul\":1521:1647   */\n      swap2\n      swap1\n      pop\n      jump\t// out\n        /* \"#utility.yul\":1653:1749   */\n    tag_89:\n        /* \"#utility.yul\":1690:1697   */\n      0x00\n        /* \"#utility.yul\":1719:1743   */\n      tag_153\n        /* \"#utility.yul\":1737:1742   */\n      dup3\n        /* \"#utility.yul\":1719:1743   */\n      tag_88\n      jump\t// in\n    tag_153:\n        /* \"#utility.yul\":1708:1743   */\n      swap1\n      pop\n        /* \"#utility.yul\":1653:1749   */\n      swap2\n      swap1\n      pop\n      jump\t// out\n        /* \"#utility.yul\":1755:1873   */\n    tag_90:\n        /* \"#utility.yul\":1842:1866   */\n      tag_155\n        /* \"#utility.yul\":1860:1865   */\n      dup2\n        /* \"#utility.yul\":1842:1866   */\n      tag_89\n      jump\t// in\n    tag_155:\n        /* \"#utility.yul\":1837:1840   */\n      dup3\n        /* \"#utility.yul\":1830:1867   */\n      mstore\n        /* \"#utility.yul\":1755:1873   */\n      pop\n      pop\n      jump\t// out\n        /* \"#utility.yul\":1879:2101   */\n    tag_18:\n        /* \"#utility.yul\":1972:1976   */\n      0x00\n        /* \"#utility.yul\":2010:2012   */\n      0x20\n        /* \"#utility.yul\":1999:2008   */\n      dup3\n        /* \"#utility.yul\":1995:2013   */\n      add\n        /* \"#utility.yul\":1987:2013   */\n      swap1\n      pop\n        /* \"#utility.yul\":2023:2094   */\n      tag_157\n        /* \"#utility.yul\":2091:2092   */\n      0x00\n        /* \"#utility.yul\":2080:2089   */\n      dup4\n        /* \"#utility.yul\":2076:2093   */\n      add\n        /* \"#utility.yul\":2067:2073   */\n      dup5\n        /* \"#utility.yul\":2023:2094   */\n      tag_90\n      jump\t// in\n    tag_157:\n        /* \"#utility.yul\":1879:2101   */\n      swap3\n      swap2\n      pop\n      pop\n      jump\t// out\n        /* \"#utility.yul\":2107:2224   */\n    tag_91:\n        /* \"#utility.yul\":2216:2217   */\n      0x00\n        /* \"#utility.yul\":2213:2214   */\n      dup1\n        /* \"#utility.yul\":2206:2218   */\n      revert\n        /* \"#utility.yul\":2230:2347   */\n    tag_92:\n        /* \"#utility.yul\":2339:2340   */\n      0x00\n        /* \"#utility.yul\":2336:2337   */\n      dup1\n        /* \"#utility.yul\":2329:2341   */\n      revert\n        /* \"#utility.yul\":2353:2455   */\n    tag_93:\n        /* \"#utility.yul\":2394:2400   */\n      0x00\n        /* \"#utility.yul\":2445:2447   */\n      0x1f\n        /* \"#utility.yul\":2441:2448   */\n      not\n        /* \"#utility.yul\":2436:2438   */\n      0x1f\n        /* \"#utility.yul\":2429:2434   */\n      dup4\n        /* \"#utility.yul\":2425:2439   */\n      add\n        /* \"#utility.yul\":2421:2449   */\n      and\n        /* \"#utility.yul\":2411:2449   */\n      swap1\n      pop\n        /* \"#utility.yul\":2353:2455   */\n      swap2\n      swap1\n      pop\n      jump\t// out\n        /* \"#utility.yul\":2461:2641   */\n    tag_94:\n        /* \"#utility.yul\":2509:2586   */\n      0x4e487b7100000000000000000000000000000000000000000000000000000000\n        /* \"#utility.yul\":2506:2507   */\n      0x00\n        /* \"#utility.yul\":2499:2587   */\n      mstore\n        /* \"#utility.yul\":2606:2610   */\n      0x41\n        /* \"#utility.yul\":2603:2604   */\n      0x04\n        /* \"#utility.yul\":2596:2611   */\n      mstore\n        /* \"#utility.yul\":2630:2634   */\n      0x24\n        /* \"#utility.yul\":2627:2628   */\n      0x00\n        /* \"#utility.yul\":2620:2635   */\n      revert\n        /* \"#utility.yul\":2647:2928   */\n    tag_95:\n        /* \"#utility.yul\":2730:2757   */\n      tag_163\n        /* \"#utility.yul\":2752:2756   */\n      dup3\n        /* \"#utility.yul\":2730:2757   */\n      tag_93\n      jump\t// in\n    tag_163:\n        /* \"#utility.yul\":2722:2728   */\n      dup2\n        /* \"#utility.yul\":2718:2758   */\n      add\n        /* \"#utility.yul\":2860:2866   */\n      dup2\n        /* \"#utility.yul\":2848:2858   */\n      dup2\n        /* \"#utility.yul\":2845:2867   */\n      lt\n        /* \"#utility.yul\":2824:2842   */\n      0xffffffffffffffff\n        /* \"#utility.yul\":2812:2822   */\n      dup3\n        /* \"#utility.yul\":2809:2843   */\n      gt\n        /* \"#utility.yul\":2806:2868   */\n      or\n        /* \"#utility.yul\":2803:2891   */\n      iszero\n      tag_164\n      jumpi\n        /* \"#utility.yul\":2871:2889   */\n      tag_165\n      tag_94\n      jump\t// in\n    tag_165:\n        /* \"#utility.yul\":2803:2891   */\n    tag_164:\n        /* \"#utility.yul\":2911:2921   */\n      dup1\n        /* \"#utility.yul\":2907:2909   */\n      0x40\n        /* \"#utility.yul\":2900:2922   */\n      mstore\n        /* \"#utility.yul\":2690:2928   */\n      pop\n        /* \"#utility.yul\":2647:2928   */\n      pop\n      pop\n      jump\t// out\n        /* \"#utility.yul\":2934:3063   */\n    tag_96:\n        /* \"#utility.yul\":2968:2974   */\n      0x00\n        /* \"#utility.yul\":2995:3015   */\n      tag_167\n      tag_79\n      jump\t// in\n    tag_167:\n        /* \"#utility.yul\":2985:3015   */\n      swap1\n      pop\n        /* \"#utility.yul\":3024:3057   */\n      tag_168\n        /* \"#utility.yul\":3052:3056   */\n      dup3\n        /* \"#utility.yul\":3044:3050   */\n      dup3\n        /* \"#utility.yul\":3024:3057   */\n      tag_95\n      jump\t// in\n    tag_168:\n        /* \"#utility.yul\":2934:3063   */\n      swap2\n      swap1\n      pop\n      jump\t// out\n        /* \"#utility.yul\":3069:3377   */\n    tag_97:\n        /* \"#utility.yul\":3131:3135   */\n      0x00\n        /* \"#utility.yul\":3221:3239   */\n      0xffffffffffffffff\n        /* \"#utility.yul\":3213:3219   */\n      dup3\n        /* \"#utility.yul\":3210:3240   */\n      gt\n        /* \"#utility.yul\":3207:3263   */\n      iszero\n      tag_170\n      jumpi\n        /* \"#utility.yul\":3243:3261   */\n      tag_171\n      tag_94\n      jump\t// in\n    tag_171:\n        /* \"#utility.yul\":3207:3263   */\n    tag_170:\n        /* \"#utility.yul\":3281:3310   */\n      tag_172\n        /* \"#utility.yul\":3303:3309   */\n      dup3\n        /* \"#utility.yul\":3281:3310   */\n      tag_93\n      jump\t// in\n    tag_172:\n        /* \"#utility.yul\":3273:3310   */\n      swap1\n      pop\n        /* \"#utility.yul\":3365:3369   */\n      0x20\n        /* \"#utility.yul\":3359:3363   */\n      dup2\n        /* \"#utility.yul\":3355:3370   */\n      add\n        /* \"#utility.yul\":3347:3370   */\n      swap1\n      pop\n        /* \"#utility.yul\":3069:3377   */\n      swap2\n      swap1\n      pop\n      jump\t// out\n        /* \"#utility.yul\":3383:3529   */\n    tag_98:\n        /* \"#utility.yul\":3480:3486   */\n      dup3\n        /* \"#utility.yul\":3475:3478   */\n      dup2\n        /* \"#utility.yul\":3470:3473   */\n      dup4\n        /* \"#utility.yul\":3457:3487   */\n      calldatacopy\n        /* \"#utility.yul\":3521:3522   */\n      0x00\n        /* \"#utility.yul\":3512:3518   */\n      dup4\n        /* \"#utility.yul\":3507:3510   */\n      dup4\n        /* \"#utility.yul\":3503:3519   */\n      add\n        /* \"#utility.yul\":3496:3523   */\n      mstore\n        /* \"#utility.yul\":3383:3529   */\n      pop\n      pop\n      pop\n      jump\t// out\n        /* \"#utility.yul\":3535:3960   */\n    tag_99:\n        /* \"#utility.yul\":3613:3618   */\n      0x00\n        /* \"#utility.yul\":3638:3704   */\n      tag_175\n        /* \"#utility.yul\":3654:3703   */\n      tag_176\n        /* \"#utility.yul\":3696:3702   */\n      dup5\n        /* \"#utility.yul\":3654:3703   */\n      tag_97\n      jump\t// in\n    tag_176:\n        /* \"#utility.yul\":3638:3704   */\n      tag_96\n      jump\t// in\n    tag_175:\n        /* \"#utility.yul\":3629:3704   */\n      swap1\n      pop\n        /* \"#utility.yul\":3727:3733   */\n      dup3\n        /* \"#utility.yul\":3720:3725   */\n      dup2\n        /* \"#utility.yul\":3713:3734   */\n      mstore\n        /* \"#utility.yul\":3765:3769   */\n      0x20\n        /* \"#utility.yul\":3758:3763   */\n      dup2\n        /* \"#utility.yul\":3754:3770   */\n      add\n        /* \"#utility.yul\":3803:3806   */\n      dup5\n        /* \"#utility.yul\":3794:3800   */\n      dup5\n        /* \"#utility.yul\":3789:3792   */\n      dup5\n        /* \"#utility.yul\":3785:3801   */\n      add\n        /* \"#utility.yul\":3782:3807   */\n      gt\n        /* \"#utility.yul\":3779:3891   */\n      iszero\n      tag_177\n      jumpi\n        /* \"#utility.yul\":3810:3889   */\n      tag_178\n      tag_92\n      jump\t// in\n    tag_178:\n        /* \"#utility.yul\":3779:3891   */\n    tag_177:\n        /* \"#utility.yul\":3900:3954   */\n      tag_179\n        /* \"#utility.yul\":3947:3953   */\n      dup5\n        /* \"#utility.yul\":3942:3945   */\n      dup3\n        /* \"#utility.yul\":3937:3940   */\n      dup6\n        /* \"#utility.yul\":3900:3954   */\n      tag_98\n      jump\t// in\n    tag_179:\n        /* \"#utility.yul\":3619:3960   */\n      pop\n        /* \"#utility.yul\":3535:3960   */\n      swap4\n      swap3\n      pop\n      pop\n      pop\n      jump\t// out\n        /* \"#utility.yul\":3980:4320   */\n    tag_100:\n        /* \"#utility.yul\":4036:4041   */\n      0x00\n        /* \"#utility.yul\":4085:4088   */\n      dup3\n        /* \"#utility.yul\":4078:4082   */\n      0x1f\n        /* \"#utility.yul\":4070:4076   */\n      dup4\n        /* \"#utility.yul\":4066:4083   */\n      add\n        /* \"#utility.yul\":4062:4089   */\n      slt\n        /* \"#utility.yul\":4052:4174   */\n      tag_181\n      jumpi\n        /* \"#utility.yul\":4093:4172   */\n      tag_182\n      tag_91\n      jump\t// in\n    tag_182:\n        /* \"#utility.yul\":4052:4174   */\n    tag_181:\n        /* \"#utility.yul\":4210:4216   */\n      dup2\n        /* \"#utility.yul\":4197:4217   */\n      calldataload\n        /* \"#utility.yul\":4235:4314   */\n      tag_183\n        /* \"#utility.yul\":4310:4313   */\n      dup5\n        /* \"#utility.yul\":4302:4308   */\n      dup3\n        /* \"#utility.yul\":4295:4299   */\n      0x20\n        /* \"#utility.yul\":4287:4293   */\n      dup7\n        /* \"#utility.yul\":4283:4300   */\n      add\n        /* \"#utility.yul\":4235:4314   */\n      tag_99\n      jump\t// in\n    tag_183:\n        /* \"#utility.yul\":4226:4314   */\n      swap2\n      pop\n        /* \"#utility.yul\":4042:4320   */\n      pop\n        /* \"#utility.yul\":3980:4320   */\n      swap3\n      swap2\n      pop\n      pop\n      jump\t// out\n        /* \"#utility.yul\":4326:4835   */\n    tag_21:\n        /* \"#utility.yul\":4395:4401   */\n      0x00\n        /* \"#utility.yul\":4444:4446   */\n      0x20\n        /* \"#utility.yul\":4432:4441   */\n      dup3\n        /* \"#utility.yul\":4423:4430   */\n      dup5\n        /* \"#utility.yul\":4419:4442   */\n      sub\n        /* \"#utility.yul\":4415:4447   */\n      slt\n        /* \"#utility.yul\":4412:4531   */\n      iszero\n      tag_185\n      jumpi\n        /* \"#utility.yul\":4450:4529   */\n      tag_186\n      tag_80\n      jump\t// in\n    tag_186:\n        /* \"#utility.yul\":4412:4531   */\n    tag_185:\n        /* \"#utility.yul\":4598:4599   */\n      0x00\n        /* \"#utility.yul\":4587:4596   */\n      dup3\n        /* \"#utility.yul\":4583:4600   */\n      add\n        /* \"#utility.yul\":4570:4601   */\n      calldataload\n        /* \"#utility.yul\":4628:4646   */\n      0xffffffffffffffff\n        /* \"#utility.yul\":4620:4626   */\n      dup2\n        /* \"#utility.yul\":4617:4647   */\n      gt\n        /* \"#utility.yul\":4614:4731   */\n      iszero\n      tag_187\n      jumpi\n        /* \"#utility.yul\":4650:4729   */\n      tag_188\n      tag_81\n      jump\t// in\n    tag_188:\n        /* \"#utility.yul\":4614:4731   */\n    tag_187:\n        /* \"#utility.yul\":4755:4818   */\n      tag_189\n        /* \"#utility.yul\":4810:4817   */\n      dup5\n        /* \"#utility.yul\":4801:4807   */\n      dup3\n        /* \"#utility.yul\":4790:4799   */\n      dup6\n        /* \"#utility.yul\":4786:4808   */\n      add\n        /* \"#utility.yul\":4755:4818   */\n      tag_100\n      jump\t// in\n    tag_189:\n        /* \"#utility.yul\":4745:4818   */\n      swap2\n      pop\n        /* \"#utility.yul\":4541:4828   */\n      pop\n        /* \"#utility.yul\":4326:4835   */\n      swap3\n      swap2\n      pop\n      pop\n      jump\t// out\n        /* \"#utility.yul\":4841:4940   */\n    tag_101:\n        /* \"#utility.yul\":4893:4899   */\n      0x00\n        /* \"#utility.yul\":4927:4932   */\n      dup2\n        /* \"#utility.yul\":4921:4933   */\n      mload\n        /* \"#utility.yul\":4911:4933   */\n      swap1\n      pop\n        /* \"#utility.yul\":4841:4940   */\n      swap2\n      swap1\n      pop\n      jump\t// out\n        /* \"#utility.yul\":4946:5115   */\n    tag_102:\n        /* \"#utility.yul\":5030:5041   */\n      0x00\n        /* \"#utility.yul\":5064:5070   */\n      dup3\n        /* \"#utility.yul\":5059:5062   */\n      dup3\n        /* \"#utility.yul\":5052:5071   */\n      mstore\n        /* \"#utility.yul\":5104:5108   */\n      0x20\n        /* \"#utility.yul\":5099:5102   */\n      dup3\n        /* \"#utility.yul\":5095:5109   */\n      add\n        /* \"#utility.yul\":5080:5109   */\n      swap1\n      pop\n        /* \"#utility.yul\":4946:5115   */\n      swap3\n      swap2\n      pop\n      pop\n      jump\t// out\n        /* \"#utility.yul\":5121:5367   */\n    tag_103:\n        /* \"#utility.yul\":5202:5203   */\n      0x00\n        /* \"#utility.yul\":5212:5325   */\n    tag_193:\n        /* \"#utility.yul\":5226:5232   */\n      dup4\n        /* \"#utility.yul\":5223:5224   */\n      dup2\n        /* \"#utility.yul\":5220:5233   */\n      lt\n        /* \"#utility.yul\":5212:5325   */\n      iszero\n      tag_195\n      jumpi\n        /* \"#utility.yul\":5311:5312   */\n      dup1\n        /* \"#utility.yul\":5306:5309   */\n      dup3\n        /* \"#utility.yul\":5302:5313   */\n      add\n        /* \"#utility.yul\":5296:5314   */\n      mload\n        /* \"#utility.yul\":5292:5293   */\n      dup2\n        /* \"#utility.yul\":5287:5290   */\n      dup5\n        /* \"#utility.yul\":5283:5294   */\n      add\n        /* \"#utility.yul\":5276:5315   */\n      mstore\n        /* \"#utility.yul\":5248:5250   */\n      0x20\n        /* \"#utility.yul\":5245:5246   */\n      dup2\n        /* \"#utility.yul\":5241:5251   */\n      add\n        /* \"#utility.yul\":5236:5251   */\n      swap1\n      pop\n        /* \"#utility.yul\":5212:5325   */\n      jump(tag_193)\n    tag_195:\n        /* \"#utility.yul\":5359:5360   */\n      0x00\n        /* \"#utility.yul\":5350:5356   */\n      dup5\n        /* \"#utility.yul\":5345:5348   */\n      dup5\n        /* \"#utility.yul\":5341:5357   */\n      add\n        /* \"#utility.yul\":5334:5361   */\n      mstore\n        /* \"#utility.yul\":5183:5367   */\n      pop\n        /* \"#utility.yul\":5121:5367   */\n      pop\n      pop\n      pop\n      jump\t// out\n        /* \"#utility.yul\":5373:5750   */\n    tag_104:\n        /* \"#utility.yul\":5461:5464   */\n      0x00\n        /* \"#utility.yul\":5489:5528   */\n      tag_197\n        /* \"#utility.yul\":5522:5527   */\n      dup3\n        /* \"#utility.yul\":5489:5528   */\n      tag_101\n      jump\t// in\n    tag_197:\n        /* \"#utility.yul\":5544:5615   */\n      tag_198\n        /* \"#utility.yul\":5608:5614   */\n      dup2\n        /* \"#utility.yul\":5603:5606   */\n      dup6\n        /* \"#utility.yul\":5544:5615   */\n      tag_102\n      jump\t// in\n    tag_198:\n        /* \"#utility.yul\":5537:5615   */\n      swap4\n      pop\n        /* \"#utility.yul\":5624:5689   */\n      tag_199\n        /* \"#utility.yul\":5682:5688   */\n      dup2\n        /* \"#utility.yul\":5677:5680   */\n      dup6\n        /* \"#utility.yul\":5670:5674   */\n      0x20\n        /* \"#utility.yul\":5663:5668   */\n      dup7\n        /* \"#utility.yul\":5659:5675   */\n      add\n        /* \"#utility.yul\":5624:5689   */\n      tag_103\n      jump\t// in\n    tag_199:\n        /* \"#utility.yul\":5714:5743   */\n      tag_200\n        /* \"#utility.yul\":5736:5742   */\n      dup2\n        /* \"#utility.yul\":5714:5743   */\n      tag_93\n      jump\t// in\n    tag_200:\n        /* \"#utility.yul\":5709:5712   */\n      dup5\n        /* \"#utility.yul\":5705:5744   */\n      add\n        /* \"#utility.yul\":5698:5744   */\n      swap2\n      pop\n        /* \"#utility.yul\":5465:5750   */\n      pop\n        /* \"#utility.yul\":5373:5750   */\n      swap3\n      swap2\n      pop\n      pop\n      jump\t// out\n        /* \"#utility.yul\":5756:5865   */\n    tag_105:\n        /* \"#utility.yul\":5837:5858   */\n      tag_202\n        /* \"#utility.yul\":5852:5857   */\n      dup2\n        /* \"#utility.yul\":5837:5858   */\n      tag_85\n      jump\t// in\n    tag_202:\n        /* \"#utility.yul\":5832:5835   */\n      dup3\n        /* \"#utility.yul\":5825:5859   */\n      mstore\n        /* \"#utility.yul\":5756:5865   */\n      pop\n      pop\n      jump\t// out\n        /* \"#utility.yul\":5871:5989   */\n    tag_106:\n        /* \"#utility.yul\":5958:5982   */\n      tag_204\n        /* \"#utility.yul\":5976:5981   */\n      dup2\n        /* \"#utility.yul\":5958:5982   */\n      tag_82\n      jump\t// in\n    tag_204:\n        /* \"#utility.yul\":5953:5956   */\n      dup3\n        /* \"#utility.yul\":5946:5983   */\n      mstore\n        /* \"#utility.yul\":5871:5989   */\n      pop\n      pop\n      jump\t// out\n        /* \"#utility.yul\":5995:6627   */\n    tag_24:\n        /* \"#utility.yul\":6186:6190   */\n      0x00\n        /* \"#utility.yul\":6224:6227   */\n      0x80\n        /* \"#utility.yul\":6213:6222   */\n      dup3\n        /* \"#utility.yul\":6209:6228   */\n      add\n        /* \"#utility.yul\":6201:6228   */\n      swap1\n      pop\n        /* \"#utility.yul\":6238:6309   */\n      tag_206\n        /* \"#utility.yul\":6306:6307   */\n      0x00\n        /* \"#utility.yul\":6295:6304   */\n      dup4\n        /* \"#utility.yul\":6291:6308   */\n      add\n        /* \"#utility.yul\":6282:6288   */\n      dup8\n        /* \"#utility.yul\":6238:6309   */\n      tag_90\n      jump\t// in\n    tag_206:\n        /* \"#utility.yul\":6356:6365   */\n      dup2\n        /* \"#utility.yul\":6350:6354   */\n      dup2\n        /* \"#utility.yul\":6346:6366   */\n      sub\n        /* \"#utility.yul\":6341:6343   */\n      0x20\n        /* \"#utility.yul\":6330:6339   */\n      dup4\n        /* \"#utility.yul\":6326:6344   */\n      add\n        /* \"#utility.yul\":6319:6367   */\n      mstore\n        /* \"#utility.yul\":6384:6462   */\n      tag_207\n        /* \"#utility.yul\":6457:6461   */\n      dup2\n        /* \"#utility.yul\":6448:6454   */\n      dup7\n        /* \"#utility.yul\":6384:6462   */\n      tag_104\n      jump\t// in\n    tag_207:\n        /* \"#utility.yul\":6376:6462   */\n      swap1\n      pop\n        /* \"#utility.yul\":6472:6538   */\n      tag_208\n        /* \"#utility.yul\":6534:6536   */\n      0x40\n        /* \"#utility.yul\":6523:6532   */\n      dup4\n        /* \"#utility.yul\":6519:6537   */\n      add\n        /* \"#utility.yul\":6510:6516   */\n      dup6\n        /* \"#utility.yul\":6472:6538   */\n      tag_105\n      jump\t// in\n    tag_208:\n        /* \"#utility.yul\":6548:6620   */\n      tag_209\n        /* \"#utility.yul\":6616:6618   */\n      0x60\n        /* \"#utility.yul\":6605:6614   */\n      dup4\n        /* \"#utility.yul\":6601:6619   */\n      add\n        /* \"#utility.yul\":6592:6598   */\n      dup5\n        /* \"#utility.yul\":6548:6620   */\n      tag_106\n      jump\t// in\n    tag_209:\n        /* \"#utility.yul\":5995:6627   */\n      swap6\n      swap5\n      pop\n      pop\n      pop\n      pop\n      pop\n      jump\t// out\n        /* \"#utility.yul\":6633:6962   */\n    tag_27:\n        /* \"#utility.yul\":6692:6698   */\n      0x00\n        /* \"#utility.yul\":6741:6743   */\n      0x20\n        /* \"#utility.yul\":6729:6738   */\n      dup3\n        /* \"#utility.yul\":6720:6727   */\n      dup5\n        /* \"#utility.yul\":6716:6739   */\n      sub\n        /* \"#utility.yul\":6712:6744   */\n      slt\n        /* \"#utility.yul\":6709:6828   */\n      iszero\n      tag_211\n      jumpi\n        /* \"#utility.yul\":6747:6826   */\n      tag_212\n      tag_80\n      jump\t// in\n    tag_212:\n        /* \"#utility.yul\":6709:6828   */\n    tag_211:\n        /* \"#utility.yul\":6867:6868   */\n      0x00\n        /* \"#utility.yul\":6892:6945   */\n      tag_213\n        /* \"#utility.yul\":6937:6944   */\n      dup5\n        /* \"#utility.yul\":6928:6934   */\n      dup3\n        /* \"#utility.yul\":6917:6926   */\n      dup6\n        /* \"#utility.yul\":6913:6935   */\n      add\n        /* \"#utility.yul\":6892:6945   */\n      tag_84\n      jump\t// in\n    tag_213:\n        /* \"#utility.yul\":6882:6945   */\n      swap2\n      pop\n        /* \"#utility.yul\":6838:6955   */\n      pop\n        /* \"#utility.yul\":6633:6962   */\n      swap3\n      swap2\n      pop\n      pop\n      jump\t// out\n        /* \"#utility.yul\":6968:7379   */\n    tag_30:\n        /* \"#utility.yul\":7103:7107   */\n      0x00\n        /* \"#utility.yul\":7141:7143   */\n      0x40\n        /* \"#utility.yul\":7130:7139   */\n      dup3\n        /* \"#utility.yul\":7126:7144   */\n      add\n        /* \"#utility.yul\":7118:7144   */\n      swap1\n      pop\n        /* \"#utility.yul\":7190:7199   */\n      dup2\n        /* \"#utility.yul\":7184:7188   */\n      dup2\n        /* \"#utility.yul\":7180:7200   */\n      sub\n        /* \"#utility.yul\":7176:7177   */\n      0x00\n        /* \"#utility.yul\":7165:7174   */\n      dup4\n        /* \"#utility.yul\":7161:7178   */\n      add\n        /* \"#utility.yul\":7154:7201   */\n      mstore\n        /* \"#utility.yul\":7218:7296   */\n      tag_215\n        /* \"#utility.yul\":7291:7295   */\n      dup2\n        /* \"#utility.yul\":7282:7288   */\n      dup6\n        /* \"#utility.yul\":7218:7296   */\n      tag_104\n      jump\t// in\n    tag_215:\n        /* \"#utility.yul\":7210:7296   */\n      swap1\n      pop\n        /* \"#utility.yul\":7306:7372   */\n      tag_216\n        /* \"#utility.yul\":7368:7370   */\n      0x20\n        /* \"#utility.yul\":7357:7366   */\n      dup4\n        /* \"#utility.yul\":7353:7371   */\n      add\n        /* \"#utility.yul\":7344:7350   */\n      dup5\n        /* \"#utility.yul\":7306:7372   */\n      tag_105\n      jump\t// in\n    tag_216:\n        /* \"#utility.yul\":6968:7379   */\n      swap4\n      swap3\n      pop\n      pop\n      pop\n      jump\t// out\n        /* \"#utility.yul\":7385:7507   */\n    tag_107:\n        /* \"#utility.yul\":7458:7482   */\n      tag_218\n        /* \"#utility.yul\":7476:7481   */\n      dup2\n        /* \"#utility.yul\":7458:7482   */\n      tag_89\n      jump\t// in\n    tag_218:\n        /* \"#utility.yul\":7451:7456   */\n      dup2\n        /* \"#utility.yul\":7448:7483   */\n      eq\n        /* \"#utility.yul\":7438:7501   */\n      tag_219\n      jumpi\n        /* \"#utility.yul\":7497:7498   */\n      0x00\n        /* \"#utility.yul\":7494:7495   */\n      dup1\n        /* \"#utility.yul\":7487:7499   */\n      revert\n        /* \"#utility.yul\":7438:7501   */\n    tag_219:\n        /* \"#utility.yul\":7385:7507   */\n      pop\n      jump\t// out\n        /* \"#utility.yul\":7513:7652   */\n    tag_108:\n        /* \"#utility.yul\":7559:7564   */\n      0x00\n        /* \"#utility.yul\":7597:7603   */\n      dup2\n        /* \"#utility.yul\":7584:7604   */\n      calldataload\n        /* \"#utility.yul\":7575:7604   */\n      swap1\n      pop\n        /* \"#utility.yul\":7613:7646   */\n      tag_221\n        /* \"#utility.yul\":7640:7645   */\n      dup2\n        /* \"#utility.yul\":7613:7646   */\n      tag_107\n      jump\t// in\n    tag_221:\n        /* \"#utility.yul\":7513:7652   */\n      swap3\n      swap2\n      pop\n      pop\n      jump\t// out\n        /* \"#utility.yul\":7658:8132   */\n    tag_33:\n        /* \"#utility.yul\":7726:7732   */\n      0x00\n        /* \"#utility.yul\":7734:7740   */\n      dup1\n        /* \"#utility.yul\":7783:7785   */\n      0x40\n        /* \"#utility.yul\":7771:7780   */\n      dup4\n        /* \"#utility.yul\":7762:7769   */\n      dup6\n        /* \"#utility.yul\":7758:7781   */\n      sub\n        /* \"#utility.yul\":7754:7786   */\n      slt\n        /* \"#utility.yul\":7751:7870   */\n      iszero\n      tag_223\n      jumpi\n        /* \"#utility.yul\":7789:7868   */\n      tag_224\n      tag_80\n      jump\t// in\n    tag_224:\n        /* \"#utility.yul\":7751:7870   */\n    tag_223:\n        /* \"#utility.yul\":7909:7910   */\n      0x00\n        /* \"#utility.yul\":7934:7987   */\n      tag_225\n        /* \"#utility.yul\":7979:7986   */\n      dup6\n        /* \"#utility.yul\":7970:7976   */\n      dup3\n        /* \"#utility.yul\":7959:7968   */\n      dup7\n        /* \"#utility.yul\":7955:7977   */\n      add\n        /* \"#utility.yul\":7934:7987   */\n      tag_108\n      jump\t// in\n    tag_225:\n        /* \"#utility.yul\":7924:7987   */\n      swap3\n      pop\n        /* \"#utility.yul\":7880:7997   */\n      pop\n        /* \"#utility.yul\":8036:8038   */\n      0x20\n        /* \"#utility.yul\":8062:8115   */\n      tag_226\n        /* \"#utility.yul\":8107:8114   */\n      dup6\n        /* \"#utility.yul\":8098:8104   */\n      dup3\n        /* \"#utility.yul\":8087:8096   */\n      dup7\n        /* \"#utility.yul\":8083:8105   */\n      add\n        /* \"#utility.yul\":8062:8115   */\n      tag_84\n      jump\t// in\n    tag_226:\n        /* \"#utility.yul\":8052:8115   */\n      swap2\n      pop\n        /* \"#utility.yul\":8007:8125   */\n      pop\n        /* \"#utility.yul\":7658:8132   */\n      swap3\n      pop\n      swap3\n      swap1\n      pop\n      jump\t// out\n        /* \"#utility.yul\":8138:8770   */\n    tag_36:\n        /* \"#utility.yul\":8329:8333   */\n      0x00\n        /* \"#utility.yul\":8367:8370   */\n      0x80\n        /* \"#utility.yul\":8356:8365   */\n      dup3\n        /* \"#utility.yul\":8352:8371   */\n      add\n        /* \"#utility.yul\":8344:8371   */\n      swap1\n      pop\n        /* \"#utility.yul\":8417:8426   */\n      dup2\n        /* \"#utility.yul\":8411:8415   */\n      dup2\n        /* \"#utility.yul\":8407:8427   */\n      sub\n        /* \"#utility.yul\":8403:8404   */\n      0x00\n        /* \"#utility.yul\":8392:8401   */\n      dup4\n        /* \"#utility.yul\":8388:8405   */\n      add\n        /* \"#utility.yul\":8381:8428   */\n      mstore\n        /* \"#utility.yul\":8445:8523   */\n      tag_228\n        /* \"#utility.yul\":8518:8522   */\n      dup2\n        /* \"#utility.yul\":8509:8515   */\n      dup8\n        /* \"#utility.yul\":8445:8523   */\n      tag_104\n      jump\t// in\n    tag_228:\n        /* \"#utility.yul\":8437:8523   */\n      swap1\n      pop\n        /* \"#utility.yul\":8533:8599   */\n      tag_229\n        /* \"#utility.yul\":8595:8597   */\n      0x20\n        /* \"#utility.yul\":8584:8593   */\n      dup4\n        /* \"#utility.yul\":8580:8598   */\n      add\n        /* \"#utility.yul\":8571:8577   */\n      dup7\n        /* \"#utility.yul\":8533:8599   */\n      tag_105\n      jump\t// in\n    tag_229:\n        /* \"#utility.yul\":8609:8681   */\n      tag_230\n        /* \"#utility.yul\":8677:8679   */\n      0x40\n        /* \"#utility.yul\":8666:8675   */\n      dup4\n        /* \"#utility.yul\":8662:8680   */\n      add\n        /* \"#utility.yul\":8653:8659   */\n      dup6\n        /* \"#utility.yul\":8609:8681   */\n      tag_90\n      jump\t// in\n    tag_230:\n        /* \"#utility.yul\":8691:8763   */\n      tag_231\n        /* \"#utility.yul\":8759:8761   */\n      0x60\n        /* \"#utility.yul\":8748:8757   */\n      dup4\n        /* \"#utility.yul\":8744:8762   */\n      add\n        /* \"#utility.yul\":8735:8741   */\n      dup5\n        /* \"#utility.yul\":8691:8763   */\n      tag_106\n      jump\t// in\n    tag_231:\n        /* \"#utility.yul\":8138:8770   */\n      swap6\n      swap5\n      pop\n      pop\n      pop\n      pop\n      pop\n      jump\t// out\n        /* \"#utility.yul\":8776:8958   */\n    tag_109:\n        /* \"#utility.yul\":8916:8950   */\n      0x736f7272792c20796f75277265206e6f7420636f6e7472616374206f776e6572\n        /* \"#utility.yul\":8912:8913   */\n      0x00\n        /* \"#utility.yul\":8904:8910   */\n      dup3\n        /* \"#utility.yul\":8900:8914   */\n      add\n        /* \"#utility.yul\":8893:8951   */\n      mstore\n        /* \"#utility.yul\":8776:8958   */\n      pop\n      jump\t// out\n        /* \"#utility.yul\":8964:9330   */\n    tag_110:\n        /* \"#utility.yul\":9106:9109   */\n      0x00\n        /* \"#utility.yul\":9127:9194   */\n      tag_234\n        /* \"#utility.yul\":9191:9193   */\n      0x20\n        /* \"#utility.yul\":9186:9189   */\n      dup4\n        /* \"#utility.yul\":9127:9194   */\n      tag_102\n      jump\t// in\n    tag_234:\n        /* \"#utility.yul\":9120:9194   */\n      swap2\n      pop\n        /* \"#utility.yul\":9203:9296   */\n      tag_235\n        /* \"#utility.yul\":9292:9295   */\n      dup3\n        /* \"#utility.yul\":9203:9296   */\n      tag_109\n      jump\t// in\n    tag_235:\n        /* \"#utility.yul\":9321:9323   */\n      0x20\n        /* \"#utility.yul\":9316:9319   */\n      dup3\n        /* \"#utility.yul\":9312:9324   */\n      add\n        /* \"#utility.yul\":9305:9324   */\n      swap1\n      pop\n        /* \"#utility.yul\":8964:9330   */\n      swap2\n      swap1\n      pop\n      jump\t// out\n        /* \"#utility.yul\":9336:9755   */\n    tag_40:\n        /* \"#utility.yul\":9502:9506   */\n      0x00\n        /* \"#utility.yul\":9540:9542   */\n      0x20\n        /* \"#utility.yul\":9529:9538   */\n      dup3\n        /* \"#utility.yul\":9525:9543   */\n      add\n        /* \"#utility.yul\":9517:9543   */\n      swap1\n      pop\n        /* \"#utility.yul\":9589:9598   */\n      dup2\n        /* \"#utility.yul\":9583:9587   */\n      dup2\n        /* \"#utility.yul\":9579:9599   */\n      sub\n        /* \"#utility.yul\":9575:9576   */\n      0x00\n        /* \"#utility.yul\":9564:9573   */\n      dup4\n        /* \"#utility.yul\":9560:9577   */\n      add\n        /* \"#utility.yul\":9553:9600   */\n      mstore\n        /* \"#utility.yul\":9617:9748   */\n      tag_237\n        /* \"#utility.yul\":9743:9747   */\n      dup2\n        /* \"#utility.yul\":9617:9748   */\n      tag_110\n      jump\t// in\n    tag_237:\n        /* \"#utility.yul\":9609:9748   */\n      swap1\n      pop\n        /* \"#utility.yul\":9336:9755   */\n      swap2\n      swap1\n      pop\n      jump\t// out\n        /* \"#utility.yul\":9761:9930   */\n    tag_111:\n        /* \"#utility.yul\":9901:9922   */\n      0x496e646578206f7574206f6620626f756e647300000000000000000000000000\n        /* \"#utility.yul\":9897:9898   */\n      0x00\n        /* \"#utility.yul\":9889:9895   */\n      dup3\n        /* \"#utility.yul\":9885:9899   */\n      add\n        /* \"#utility.yul\":9878:9923   */\n      mstore\n        /* \"#utility.yul\":9761:9930   */\n      pop\n      jump\t// out\n        /* \"#utility.yul\":9936:10302   */\n    tag_112:\n        /* \"#utility.yul\":10078:10081   */\n      0x00\n        /* \"#utility.yul\":10099:10166   */\n      tag_240\n        /* \"#utility.yul\":10163:10165   */\n      0x13\n        /* \"#utility.yul\":10158:10161   */\n      dup4\n        /* \"#utility.yul\":10099:10166   */\n      tag_102\n      jump\t// in\n    tag_240:\n        /* \"#utility.yul\":10092:10166   */\n      swap2\n      pop\n        /* \"#utility.yul\":10175:10268   */\n      tag_241\n        /* \"#utility.yul\":10264:10267   */\n      dup3\n        /* \"#utility.yul\":10175:10268   */\n      tag_111\n      jump\t// in\n    tag_241:\n        /* \"#utility.yul\":10293:10295   */\n      0x20\n        /* \"#utility.yul\":10288:10291   */\n      dup3\n        /* \"#utility.yul\":10284:10296   */\n      add\n        /* \"#utility.yul\":10277:10296   */\n      swap1\n      pop\n        /* \"#utility.yul\":9936:10302   */\n      swap2\n      swap1\n      pop\n      jump\t// out\n        /* \"#utility.yul\":10308:10727   */\n    tag_45:\n        /* \"#utility.yul\":10474:10478   */\n      0x00\n        /* \"#utility.yul\":10512:10514   */\n      0x20\n        /* \"#utility.yul\":10501:10510   */\n      dup3\n        /* \"#utility.yul\":10497:10515   */\n      add\n        /* \"#utility.yul\":10489:10515   */\n      swap1\n      pop\n        /* \"#utility.yul\":10561:10570   */\n      dup2\n        /* \"#utility.yul\":10555:10559   */\n      dup2\n        /* \"#utility.yul\":10551:10571   */\n      sub\n        /* \"#utility.yul\":10547:10548   */\n      0x00\n        /* \"#utility.yul\":10536:10545   */\n      dup4\n        /* \"#utility.yul\":10532:10549   */\n      add\n        /* \"#utility.yul\":10525:10572   */\n      mstore\n        /* \"#utility.yul\":10589:10720   */\n      tag_243\n        /* \"#utility.yul\":10715:10719   */\n      dup2\n        /* \"#utility.yul\":10589:10720   */\n      tag_112\n      jump\t// in\n    tag_243:\n        /* \"#utility.yul\":10581:10720   */\n      swap1\n      pop\n        /* \"#utility.yul\":10308:10727   */\n      swap2\n      swap1\n      pop\n      jump\t// out\n        /* \"#utility.yul\":10733:10913   */\n    tag_48:\n        /* \"#utility.yul\":10781:10858   */\n      0x4e487b7100000000000000000000000000000000000000000000000000000000\n        /* \"#utility.yul\":10778:10779   */\n      0x00\n        /* \"#utility.yul\":10771:10859   */\n      mstore\n        /* \"#utility.yul\":10878:10882   */\n      0x32\n        /* \"#utility.yul\":10875:10876   */\n      0x04\n        /* \"#utility.yul\":10868:10883   */\n      mstore\n        /* \"#utility.yul\":10902:10906   */\n      0x24\n        /* \"#utility.yul\":10899:10900   */\n      0x00\n        /* \"#utility.yul\":10892:10907   */\n      revert\n        /* \"#utility.yul\":10919:11099   */\n    tag_113:\n        /* \"#utility.yul\":10967:11044   */\n      0x4e487b7100000000000000000000000000000000000000000000000000000000\n        /* \"#utility.yul\":10964:10965   */\n      0x00\n        /* \"#utility.yul\":10957:11045   */\n      mstore\n        /* \"#utility.yul\":11064:11068   */\n      0x11\n        /* \"#utility.yul\":11061:11062   */\n      0x04\n        /* \"#utility.yul\":11054:11069   */\n      mstore\n        /* \"#utility.yul\":11088:11092   */\n      0x24\n        /* \"#utility.yul\":11085:11086   */\n      0x00\n        /* \"#utility.yul\":11078:11093   */\n      revert\n        /* \"#utility.yul\":11105:11296   */\n    tag_52:\n        /* \"#utility.yul\":11145:11148   */\n      0x00\n        /* \"#utility.yul\":11164:11184   */\n      tag_247\n        /* \"#utility.yul\":11182:11183   */\n      dup3\n        /* \"#utility.yul\":11164:11184   */\n      tag_82\n      jump\t// in\n    tag_247:\n        /* \"#utility.yul\":11159:11184   */\n      swap2\n      pop\n        /* \"#utility.yul\":11198:11218   */\n      tag_248\n        /* \"#utility.yul\":11216:11217   */\n      dup4\n        /* \"#utility.yul\":11198:11218   */\n      tag_82\n      jump\t// in\n    tag_248:\n        /* \"#utility.yul\":11193:11218   */\n      swap3\n      pop\n        /* \"#utility.yul\":11241:11242   */\n      dup3\n        /* \"#utility.yul\":11238:11239   */\n      dup3\n        /* \"#utility.yul\":11234:11243   */\n      add\n        /* \"#utility.yul\":11227:11243   */\n      swap1\n      pop\n        /* \"#utility.yul\":11262:11265   */\n      dup1\n        /* \"#utility.yul\":11259:11260   */\n      dup3\n        /* \"#utility.yul\":11256:11266   */\n      gt\n        /* \"#utility.yul\":11253:11289   */\n      iszero\n      tag_249\n      jumpi\n        /* \"#utility.yul\":11269:11287   */\n      tag_250\n      tag_113\n      jump\t// in\n    tag_250:\n        /* \"#utility.yul\":11253:11289   */\n    tag_249:\n        /* \"#utility.yul\":11105:11296   */\n      swap3\n      swap2\n      pop\n      pop\n      jump\t// out\n        /* \"#utility.yul\":11302:11482   */\n    tag_114:\n        /* \"#utility.yul\":11350:11427   */\n      0x4e487b7100000000000000000000000000000000000000000000000000000000\n        /* \"#utility.yul\":11347:11348   */\n      0x00\n        /* \"#utility.yul\":11340:11428   */\n      mstore\n        /* \"#utility.yul\":11447:11451   */\n      0x22\n        /* \"#utility.yul\":11444:11445   */\n      0x04\n        /* \"#utility.yul\":11437:11452   */\n      mstore\n        /* \"#utility.yul\":11471:11475   */\n      0x24\n        /* \"#utility.yul\":11468:11469   */\n      0x00\n        /* \"#utility.yul\":11461:11476   */\n      revert\n        /* \"#utility.yul\":11488:11808   */\n    tag_63:\n        /* \"#utility.yul\":11532:11538   */\n      0x00\n        /* \"#utility.yul\":11569:11570   */\n      0x02\n        /* \"#utility.yul\":11563:11567   */\n      dup3\n        /* \"#utility.yul\":11559:11571   */\n      div\n        /* \"#utility.yul\":11549:11571   */\n      swap1\n      pop\n        /* \"#utility.yul\":11616:11617   */\n      0x01\n        /* \"#utility.yul\":11610:11614   */\n      dup3\n        /* \"#utility.yul\":11606:11618   */\n      and\n        /* \"#utility.yul\":11637:11655   */\n      dup1\n        /* \"#utility.yul\":11627:11708   */\n      tag_253\n      jumpi\n        /* \"#utility.yul\":11693:11697   */\n      0x7f\n        /* \"#utility.yul\":11685:11691   */\n      dup3\n        /* \"#utility.yul\":11681:11698   */\n      and\n        /* \"#utility.yul\":11671:11698   */\n      swap2\n      pop\n        /* \"#utility.yul\":11627:11708   */\n    tag_253:\n        /* \"#utility.yul\":11755:11757   */\n      0x20\n        /* \"#utility.yul\":11747:11753   */\n      dup3\n        /* \"#utility.yul\":11744:11758   */\n      lt\n        /* \"#utility.yul\":11724:11742   */\n      dup2\n        /* \"#utility.yul\":11721:11759   */\n      sub\n        /* \"#utility.yul\":11718:11802   */\n      tag_254\n      jumpi\n        /* \"#utility.yul\":11774:11792   */\n      tag_255\n      tag_114\n      jump\t// in\n    tag_255:\n        /* \"#utility.yul\":11718:11802   */\n    tag_254:\n        /* \"#utility.yul\":11539:11808   */\n      pop\n        /* \"#utility.yul\":11488:11808   */\n      swap2\n      swap1\n      pop\n      jump\t// out\n        /* \"#utility.yul\":11814:11955   */\n    tag_115:\n        /* \"#utility.yul\":11863:11867   */\n      0x00\n        /* \"#utility.yul\":11886:11889   */\n      dup2\n        /* \"#utility.yul\":11878:11889   */\n      swap1\n      pop\n        /* \"#utility.yul\":11909:11912   */\n      dup2\n        /* \"#utility.yul\":11906:11907   */\n      0x00\n        /* \"#utility.yul\":11899:11913   */\n      mstore\n        /* \"#utility.yul\":11943:11947   */\n      0x20\n        /* \"#utility.yul\":11940:11941   */\n      0x00\n        /* \"#utility.yul\":11930:11948   */\n      keccak256\n        /* \"#utility.yul\":11922:11948   */\n      swap1\n      pop\n        /* \"#utility.yul\":11814:11955   */\n      swap2\n      swap1\n      pop\n      jump\t// out\n        /* \"#utility.yul\":11961:12054   */\n    tag_116:\n        /* \"#utility.yul\":11998:12004   */\n      0x00\n        /* \"#utility.yul\":12045:12047   */\n      0x20\n        /* \"#utility.yul\":12040:12042   */\n      0x1f\n        /* \"#utility.yul\":12033:12038   */\n      dup4\n        /* \"#utility.yul\":12029:12043   */\n      add\n        /* \"#utility.yul\":12025:12048   */\n      div\n        /* \"#utility.yul\":12015:12048   */\n      swap1\n      pop\n        /* \"#utility.yul\":11961:12054   */\n      swap2\n      swap1\n      pop\n      jump\t// out\n        /* \"#utility.yul\":12060:12167   */\n    tag_117:\n        /* \"#utility.yul\":12104:12112   */\n      0x00\n        /* \"#utility.yul\":12154:12159   */\n      dup3\n        /* \"#utility.yul\":12148:12152   */\n      dup3\n        /* \"#utility.yul\":12144:12160   */\n      shl\n        /* \"#utility.yul\":12123:12160   */\n      swap1\n      pop\n        /* \"#utility.yul\":12060:12167   */\n      swap3\n      swap2\n      pop\n      pop\n      jump\t// out\n        /* \"#utility.yul\":12173:12566   */\n    tag_118:\n        /* \"#utility.yul\":12242:12248   */\n      0x00\n        /* \"#utility.yul\":12292:12293   */\n      0x08\n        /* \"#utility.yul\":12280:12290   */\n      dup4\n        /* \"#utility.yul\":12276:12294   */\n      mul\n        /* \"#utility.yul\":12315:12412   */\n      tag_260\n        /* \"#utility.yul\":12345:12411   */\n      0xffffffffffffffffffffffffffffffffffffffffffffffffffffffffffffffff\n        /* \"#utility.yul\":12334:12343   */\n      dup3\n        /* \"#utility.yul\":12315:12412   */\n      tag_117\n      jump\t// in\n    tag_260:\n        /* \"#utility.yul\":12433:12472   */\n      tag_261\n        /* \"#utility.yul\":12463:12471   */\n      dup7\n        /* \"#utility.yul\":12452:12461   */\n      dup4\n        /* \"#utility.yul\":12433:12472   */\n      tag_117\n      jump\t// in\n    tag_261:\n        /* \"#utility.yul\":12421:12472   */\n      swap6\n      pop\n        /* \"#utility.yul\":12505:12509   */\n      dup1\n        /* \"#utility.yul\":12501:12510   */\n      not\n        /* \"#utility.yul\":12494:12499   */\n      dup5\n        /* \"#utility.yul\":12490:12511   */\n      and\n        /* \"#utility.yul\":12481:12511   */\n      swap4\n      pop\n        /* \"#utility.yul\":12554:12558   */\n      dup1\n        /* \"#utility.yul\":12544:12552   */\n      dup7\n        /* \"#utility.yul\":12540:12559   */\n      and\n        /* \"#utility.yul\":12533:12538   */\n      dup5\n        /* \"#utility.yul\":12530:12560   */\n      or\n        /* \"#utility.yul\":12520:12560   */\n      swap3\n      pop\n        /* \"#utility.yul\":12249:12566   */\n      pop\n      pop\n        /* \"#utility.yul\":12173:12566   */\n      swap4\n      swap3\n      pop\n      pop\n      pop\n      jump\t// out\n        /* \"#utility.yul\":12572:12632   */\n    tag_119:\n        /* \"#utility.yul\":12600:12603   */\n      0x00\n        /* \"#utility.yul\":12621:12626   */\n      dup2\n        /* \"#utility.yul\":12614:12626   */\n      swap1\n      pop\n        /* \"#utility.yul\":12572:12632   */\n      swap2\n      swap1\n      pop\n      jump\t// out\n        /* \"#utility.yul\":12638:12780   */\n    tag_120:\n        /* \"#utility.yul\":12688:12697   */\n      0x00\n        /* \"#utility.yul\":12721:12774   */\n      tag_264\n        /* \"#utility.yul\":12739:12773   */\n      tag_265\n        /* \"#utility.yul\":12748:12772   */\n      tag_266\n        /* \"#utility.yul\":12766:12771   */\n      dup5\n        /* \"#utility.yul\":12748:12772   */\n      tag_82\n      jump\t// in\n    tag_266:\n        /* \"#utility.yul\":12739:12773   */\n      tag_119\n      jump\t// in\n    tag_265:\n        /* \"#utility.yul\":12721:12774   */\n      tag_82\n      jump\t// in\n    tag_264:\n        /* \"#utility.yul\":12708:12774   */\n      swap1\n      pop\n        /* \"#utility.yul\":12638:12780   */\n      swap2\n      swap1\n      pop\n      jump\t// out\n        /* \"#utility.yul\":12786:12861   */\n    tag_121:\n        /* \"#utility.yul\":12829:12832   */\n      0x00\n        /* \"#utility.yul\":12850:12855   */\n      dup2\n        /* \"#utility.yul\":12843:12855   */\n      swap1\n      pop\n        /* \"#utility.yul\":12786:12861   */\n      swap2\n      swap1\n      pop\n      jump\t// out\n        /* \"#utility.yul\":12867:13136   */\n    tag_122:\n        /* \"#utility.yul\":12977:13016   */\n      tag_269\n        /* \"#utility.yul\":13008:13015   */\n      dup4\n        /* \"#utility.yul\":12977:13016   */\n      tag_120\n      jump\t// in\n    tag_269:\n        /* \"#utility.yul\":13038:13129   */\n      tag_270\n        /* \"#utility.yul\":13087:13128   */\n      tag_271\n        /* \"#utility.yul\":13111:13127   */\n      dup3\n        /* \"#utility.yul\":13087:13128   */\n      tag_121\n      jump\t// in\n    tag_271:\n        /* \"#utility.yul\":13079:13085   */\n      dup5\n        /* \"#utility.yul\":13072:13076   */\n      dup5\n        /* \"#utility.yul\":13066:13077   */\n      sload\n        /* \"#utility.yul\":13038:13129   */\n      tag_118\n      jump\t// in\n    tag_270:\n        /* \"#utility.yul\":13032:13036   */\n      dup3\n        /* \"#utility.yul\":13025:13130   */\n      sstore\n        /* \"#utility.yul\":12943:13136   */\n      pop\n        /* \"#utility.yul\":12867:13136   */\n      pop\n      pop\n      pop\n      jump\t// out\n        /* \"#utility.yul\":13142:13215   */\n    tag_123:\n        /* \"#utility.yul\":13187:13190   */\n      0x00\n        /* \"#utility.yul\":13142:13215   */\n      swap1\n      jump\t// out\n        /* \"#utility.yul\":13221:13410   */\n    tag_124:\n        /* \"#utility.yul\":13298:13330   */\n      tag_274\n      tag_123\n      jump\t// in\n    tag_274:\n        /* \"#utility.yul\":13339:13404   */\n      tag_275\n        /* \"#utility.yul\":13397:13403   */\n      dup2\n        /* \"#utility.yul\":13389:13395   */\n      dup5\n        /* \"#utility.yul\":13383:13387   */\n      dup5\n        /* \"#utility.yul\":13339:13404   */\n      tag_122\n      jump\t// in\n    tag_275:\n        /* \"#utility.yul\":13274:13410   */\n      pop\n        /* \"#utility.yul\":13221:13410   */\n      pop\n      pop\n      jump\t// out\n        /* \"#utility.yul\":13416:13602   */\n    tag_125:\n        /* \"#utility.yul\":13476:13596   */\n    tag_277:\n        /* \"#utility.yul\":13493:13496   */\n      dup2\n        /* \"#utility.yul\":13486:13491   */\n      dup2\n        /* \"#utility.yul\":13483:13497   */\n      lt\n        /* \"#utility.yul\":13476:13596   */\n      iszero\n      tag_279\n      jumpi\n        /* \"#utility.yul\":13547:13586   */\n      tag_280\n        /* \"#utility.yul\":13584:13585   */\n      0x00\n        /* \"#utility.yul\":13577:13582   */\n      dup3\n        /* \"#utility.yul\":13547:13586   */\n      tag_124\n      jump\t// in\n    tag_280:\n        /* \"#utility.yul\":13520:13521   */\n      0x01\n        /* \"#utility.yul\":13513:13518   */\n      dup2\n        /* \"#utility.yul\":13509:13522   */\n      add\n        /* \"#utility.yul\":13500:13522   */\n      swap1\n      pop\n        /* \"#utility.yul\":13476:13596   */\n      jump(tag_277)\n    tag_279:\n        /* \"#utility.yul\":13416:13602   */\n      pop\n      pop\n      jump\t// out\n        /* \"#utility.yul\":13608:14151   */\n    tag_126:\n        /* \"#utility.yul\":13709:13711   */\n      0x1f\n        /* \"#utility.yul\":13704:13707   */\n      dup3\n        /* \"#utility.yul\":13701:13712   */\n      gt\n        /* \"#utility.yul\":13698:14144   */\n      iszero\n      tag_282\n      jumpi\n        /* \"#utility.yul\":13743:13781   */\n      tag_283\n        /* \"#utility.yul\":13775:13780   */\n      dup2\n        /* \"#utility.yul\":13743:13781   */\n      tag_115\n      jump\t// in\n    tag_283:\n        /* \"#utility.yul\":13827:13856   */\n      tag_284\n        /* \"#utility.yul\":13845:13855   */\n      dup5\n        /* \"#utility.yul\":13827:13856   */\n      tag_116\n      jump\t// in\n    tag_284:\n        /* \"#utility.yul\":13817:13825   */\n      dup2\n        /* \"#utility.yul\":13813:13857   */\n      add\n        /* \"#utility.yul\":14010:14012   */\n      0x20\n        /* \"#utility.yul\":13998:14008   */\n      dup6\n        /* \"#utility.yul\":13995:14013   */\n      lt\n        /* \"#utility.yul\":13992:14041   */\n      iszero\n      tag_285\n      jumpi\n        /* \"#utility.yul\":14031:14039   */\n      dup2\n        /* \"#utility.yul\":14016:14039   */\n      swap1\n      pop\n        /* \"#utility.yul\":13992:14041   */\n    tag_285:\n        /* \"#utility.yul\":14054:14134   */\n      tag_286\n        /* \"#utility.yul\":14110:14132   */\n      tag_287\n        /* \"#utility.yul\":14128:14131   */\n      dup6\n        /* \"#utility.yul\":14110:14132   */\n      tag_116\n      jump\t// in\n    tag_287:\n        /* \"#utility.yul\":14100:14108   */\n      dup4\n        /* \"#utility.yul\":14096:14133   */\n      add\n        /* \"#utility.yul\":14083:14094   */\n      dup3\n        /* \"#utility.yul\":14054:14134   */\n      tag_125\n      jump\t// in\n    tag_286:\n        /* \"#utility.yul\":13713:14144   */\n      pop\n      pop\n        /* \"#utility.yul\":13698:14144   */\n    tag_282:\n        /* \"#utility.yul\":13608:14151   */\n      pop\n      pop\n      pop\n      jump\t// out\n        /* \"#utility.yul\":14157:14274   */\n    tag_127:\n        /* \"#utility.yul\":14211:14219   */\n      0x00\n        /* \"#utility.yul\":14261:14266   */\n      dup3\n        /* \"#utility.yul\":14255:14259   */\n      dup3\n        /* \"#utility.yul\":14251:14267   */\n      shr\n        /* \"#utility.yul\":14230:14267   */\n      swap1\n      pop\n        /* \"#utility.yul\":14157:14274   */\n      swap3\n      swap2\n      pop\n      pop\n      jump\t// out\n        /* \"#utility.yul\":14280:14449   */\n    tag_128:\n        /* \"#utility.yul\":14324:14330   */\n      0x00\n        /* \"#utility.yul\":14357:14408   */\n      tag_290\n        /* \"#utility.yul\":14405:14406   */\n      0x00\n        /* \"#utility.yul\":14401:14407   */\n      not\n        /* \"#utility.yul\":14393:14398   */\n      dup5\n        /* \"#utility.yul\":14390:14391   */\n      0x08\n        /* \"#utility.yul\":14386:14399   */\n      mul\n        /* \"#utility.yul\":14357:14408   */\n      tag_127\n      jump\t// in\n    tag_290:\n        /* \"#utility.yul\":14353:14409   */\n      not\n        /* \"#utility.yul\":14438:14442   */\n      dup1\n        /* \"#utility.yul\":14432:14436   */\n      dup4\n        /* \"#utility.yul\":14428:14443   */\n      and\n        /* \"#utility.yul\":14418:14443   */\n      swap2\n      pop\n        /* \"#utility.yul\":14331:14449   */\n      pop\n        /* \"#utility.yul\":14280:14449   */\n      swap3\n      swap2\n      pop\n      pop\n      jump\t// out\n        /* \"#utility.yul\":14454:14749   */\n    tag_129:\n        /* \"#utility.yul\":14530:14534   */\n      0x00\n        /* \"#utility.yul\":14676:14705   */\n      tag_292\n        /* \"#utility.yul\":14701:14704   */\n      dup4\n        /* \"#utility.yul\":14695:14699   */\n      dup4\n        /* \"#utility.yul\":14676:14705   */\n      tag_128\n      jump\t// in\n    tag_292:\n        /* \"#utility.yul\":14668:14705   */\n      swap2\n      pop\n        /* \"#utility.yul\":14738:14741   */\n      dup3\n        /* \"#utility.yul\":14735:14736   */\n      0x02\n        /* \"#utility.yul\":14731:14742   */\n      mul\n        /* \"#utility.yul\":14725:14729   */\n      dup3\n        /* \"#utility.yul\":14722:14743   */\n      or\n        /* \"#utility.yul\":14714:14743   */\n      swap1\n      pop\n        /* \"#utility.yul\":14454:14749   */\n      swap3\n      swap2\n      pop\n      pop\n      jump\t// out\n        /* \"#utility.yul\":14754:16149   */\n    tag_55:\n        /* \"#utility.yul\":14871:14908   */\n      tag_294\n        /* \"#utility.yul\":14904:14907   */\n      dup3\n        /* \"#utility.yul\":14871:14908   */\n      tag_101\n      jump\t// in\n    tag_294:\n        /* \"#utility.yul\":14973:14991   */\n      0xffffffffffffffff\n        /* \"#utility.yul\":14965:14971   */\n      dup2\n        /* \"#utility.yul\":14962:14992   */\n      gt\n        /* \"#utility.yul\":14959:15015   */\n      iszero\n      tag_295\n      jumpi\n        /* \"#utility.yul\":14995:15013   */\n      tag_296\n      tag_94\n      jump\t// in\n    tag_296:\n        /* \"#utility.yul\":14959:15015   */\n    tag_295:\n        /* \"#utility.yul\":15039:15077   */\n      tag_297\n        /* \"#utility.yul\":15071:15075   */\n      dup3\n        /* \"#utility.yul\":15065:15076   */\n      sload\n        /* \"#utility.yul\":15039:15077   */\n      tag_63\n      jump\t// in\n    tag_297:\n        /* \"#utility.yul\":15124:15191   */\n      tag_298\n        /* \"#utility.yul\":15184:15190   */\n      dup3\n        /* \"#utility.yul\":15176:15182   */\n      dup3\n        /* \"#utility.yul\":15170:15174   */\n      dup6\n        /* \"#utility.yul\":15124:15191   */\n      tag_126\n      jump\t// in\n    tag_298:\n        /* \"#utility.yul\":15218:15219   */\n      0x00\n        /* \"#utility.yul\":15242:15246   */\n      0x20\n        /* \"#utility.yul\":15229:15246   */\n      swap1\n      pop\n        /* \"#utility.yul\":15274:15276   */\n      0x1f\n        /* \"#utility.yul\":15266:15272   */\n      dup4\n        /* \"#utility.yul\":15263:15277   */\n      gt\n        /* \"#utility.yul\":15291:15292   */\n      0x01\n        /* \"#utility.yul\":15286:15904   */\n      dup2\n      eq\n      tag_300\n      jumpi\n        /* \"#utility.yul\":15948:15949   */\n      0x00\n        /* \"#utility.yul\":15965:15971   */\n      dup5\n        /* \"#utility.yul\":15962:16039   */\n      iszero\n      tag_301\n      jumpi\n        /* \"#utility.yul\":16014:16023   */\n      dup3\n        /* \"#utility.yul\":16009:16012   */\n      dup8\n        /* \"#utility.yul\":16005:16024   */\n      add\n        /* \"#utility.yul\":15999:16025   */\n      mload\n        /* \"#utility.yul\":15990:16025   */\n      swap1\n      pop\n        /* \"#utility.yul\":15962:16039   */\n    tag_301:\n        /* \"#utility.yul\":16065:16132   */\n      tag_302\n        /* \"#utility.yul\":16125:16131   */\n      dup6\n        /* \"#utility.yul\":16118:16123   */\n      dup3\n        /* \"#utility.yul\":16065:16132   */\n      tag_129\n      jump\t// in\n    tag_302:\n        /* \"#utility.yul\":16059:16063   */\n      dup7\n        /* \"#utility.yul\":16052:16133   */\n      sstore\n        /* \"#utility.yul\":15921:16143   */\n      pop\n        /* \"#utility.yul\":15256:16143   */\n      jump(tag_299)\n        /* \"#utility.yul\":15286:15904   */\n    tag_300:\n        /* \"#utility.yul\":15338:15342   */\n      0x1f\n        /* \"#utility.yul\":15334:15343   */\n      not\n        /* \"#utility.yul\":15326:15332   */\n      dup5\n        /* \"#utility.yul\":15322:15344   */\n      and\n        /* \"#utility.yul\":15372:15409   */\n      tag_303\n        /* \"#utility.yul\":15404:15408   */\n      dup7\n        /* \"#utility.yul\":15372:15409   */\n      tag_115\n      jump\t// in\n    tag_303:\n        /* \"#utility.yul\":15431:15432   */\n      0x00\n        /* \"#utility.yul\":15445:15653   */\n    tag_304:\n        /* \"#utility.yul\":15459:15466   */\n      dup3\n        /* \"#utility.yul\":15456:15457   */\n      dup2\n        /* \"#utility.yul\":15453:15467   */\n      lt\n        /* \"#utility.yul\":15445:15653   */\n      iszero\n      tag_306\n      jumpi\n        /* \"#utility.yul\":15538:15547   */\n      dup5\n        /* \"#utility.yul\":15533:15536   */\n      dup10\n        /* \"#utility.yul\":15529:15548   */\n      add\n        /* \"#utility.yul\":15523:15549   */\n      mload\n        /* \"#utility.yul\":15515:15521   */\n      dup3\n        /* \"#utility.yul\":15508:15550   */\n      sstore\n        /* \"#utility.yul\":15589:15590   */\n      0x01\n        /* \"#utility.yul\":15581:15587   */\n      dup3\n        /* \"#utility.yul\":15577:15591   */\n      add\n        /* \"#utility.yul\":15567:15591   */\n      swap2\n      pop\n        /* \"#utility.yul\":15636:15638   */\n      0x20\n        /* \"#utility.yul\":15625:15634   */\n      dup6\n        /* \"#utility.yul\":15621:15639   */\n      add\n        /* \"#utility.yul\":15608:15639   */\n      swap5\n      pop\n        /* \"#utility.yul\":15482:15486   */\n      0x20\n        /* \"#utility.yul\":15479:15480   */\n      dup2\n        /* \"#utility.yul\":15475:15487   */\n      add\n        /* \"#utility.yul\":15470:15487   */\n      swap1\n      pop\n        /* \"#utility.yul\":15445:15653   */\n      jump(tag_304)\n    tag_306:\n        /* \"#utility.yul\":15681:15687   */\n      dup7\n        /* \"#utility.yul\":15672:15679   */\n      dup4\n        /* \"#utility.yul\":15669:15688   */\n      lt\n        /* \"#utility.yul\":15666:15845   */\n      iszero\n      tag_307\n      jumpi\n        /* \"#utility.yul\":15739:15748   */\n      dup5\n        /* \"#utility.yul\":15734:15737   */\n      dup10\n        /* \"#utility.yul\":15730:15749   */\n      add\n        /* \"#utility.yul\":15724:15750   */\n      mload\n        /* \"#utility.yul\":15782:15830   */\n      tag_308\n        /* \"#utility.yul\":15824:15828   */\n      0x1f\n        /* \"#utility.yul\":15816:15822   */\n      dup10\n        /* \"#utility.yul\":15812:15829   */\n      and\n        /* \"#utility.yul\":15801:15810   */\n      dup3\n        /* \"#utility.yul\":15782:15830   */\n      tag_128\n      jump\t// in\n    tag_308:\n        /* \"#utility.yul\":15774:15780   */\n      dup4\n        /* \"#utility.yul\":15767:15831   */\n      sstore\n        /* \"#utility.yul\":15689:15845   */\n      pop\n        /* \"#utility.yul\":15666:15845   */\n    tag_307:\n        /* \"#utility.yul\":15891:15892   */\n      0x01\n        /* \"#utility.yul\":15887:15888   */\n      0x02\n        /* \"#utility.yul\":15879:15885   */\n      dup9\n        /* \"#utility.yul\":15875:15889   */\n      mul\n        /* \"#utility.yul\":15871:15893   */\n      add\n        /* \"#utility.yul\":15865:15869   */\n      dup9\n        /* \"#utility.yul\":15858:15894   */\n      sstore\n        /* \"#utility.yul\":15293:15904   */\n      pop\n      pop\n      pop\n        /* \"#utility.yul\":15256:16143   */\n    tag_299:\n      pop\n        /* \"#utility.yul\":14846:16149   */\n      pop\n      pop\n      pop\n        /* \"#utility.yul\":14754:16149   */\n      pop\n      pop\n      jump\t// out\n\n    auxdata: 0xa26469706673582212202282d525f0482f21ca5f7586d91220bf80d9d00b6deb72fce25c63f00702597b64736f6c63430008120033\n}\n",
				"bytecode": {
					"linkReferences": {},
					"object": "60a060405234801561001057600080fd5b503373ffffffffffffffffffffffffffffffffffffffff1660808173ffffffffffffffffffffffffffffffffffffffff168152505060805161116a61006e60003960008181610144015281816101d2015261030b015261116a6000f3fe608060405234801561001057600080fd5b50600436106100625760003560e01c806341c0e1b51461006757806348284b62146100715780638da5cb5b1461008d578063b6a46b3b146100ab578063d1a1b999146100de578063d299370b1461010f575b600080fd5b61006f610142565b005b61008b600480360381019061008691906108c3565b610209565b005b610095610309565b6040516100a29190610944565b60405180910390f35b6100c560048036038101906100c09190610aa5565b61032d565b6040516100d59493929190610b8b565b60405180910390f35b6100f860048036038101906100f39190610bd7565b6104cb565b604051610106929190610c04565b60405180910390f35b61012960048036038101906101249190610c60565b61073f565b6040516101399493929190610ca0565b60405180910390f35b7f000000000000000000000000000000000000000000000000000000000000000073ffffffffffffffffffffffffffffffffffffffff163373ffffffffffffffffffffffffffffffffffffffff16146101d0576040517f08c379a00000000000000000000000000000000000000000000000000000000081526004016101c790610d38565b60405180910390fd5b7f000000000000000000000000000000000000000000000000000000000000000073ffffffffffffffffffffffffffffffffffffffff16ff5b6000803373ffffffffffffffffffffffffffffffffffffffff1673ffffffffffffffffffffffffffffffffffffffff16815260200190815260200160002080549050821061028c576040517f08c379a000000000000000000000000000000000000000000000000000000000815260040161028390610da4565b60405180910390fd5b806000803373ffffffffffffffffffffffffffffffffffffffff1673ffffffffffffffffffffffffffffffffffffffff16815260200190815260200160002083815481106102dd576102dc610dc4565b5b906000526020600020906003020160010160006101000a81548160ff0219169083151502179055505050565b7f000000000000000000000000000000000000000000000000000000000000000081565b60006060600080600060016000803373ffffffffffffffffffffffffffffffffffffffff1673ffffffffffffffffffffffffffffffffffffffff168152602001908152602001600020805490506103849190610e22565b9050600060405180608001604052808881526020016000151581526020013373ffffffffffffffffffffffffffffffffffffffff1681526020018381525090506000803373ffffffffffffffffffffffffffffffffffffffff1673ffffffffffffffffffffffffffffffffffffffff16815260200190815260200160002081908060018154018082558091505060019003906000526020600020906003020160009091909190915060008201518160000190816104419190611062565b5060208201518160010160006101000a81548160ff02191690831515021790555060408201518160010160016101000a81548173ffffffffffffffffffffffffffffffffffffffff021916908373ffffffffffffffffffffffffffffffffffffffff1602179055506060820151816002015550503387600084955095509550955050509193509193565b606060008060003373ffffffffffffffffffffffffffffffffffffffff1673ffffffffffffffffffffffffffffffffffffffff168152602001908152602001600020805490508310610552576040517f08c379a000000000000000000000000000000000000000000000000000000000815260040161054990610da4565b60405180910390fd5b60008060003373ffffffffffffffffffffffffffffffffffffffff1673ffffffffffffffffffffffffffffffffffffffff168152602001908152602001600020805480602002602001604051908101604052809291908181526020016000905b828210156106f157838290600052602060002090600302016040518060800160405290816000820180546105e590610e85565b80601f016020809104026020016040519081016040528092919081815260200182805461061190610e85565b801561065e5780601f106106335761010080835404028352916020019161065e565b820191906000526020600020905b81548152906001019060200180831161064157829003601f168201915b505050505081526020016001820160009054906101000a900460ff161515151581526020016001820160019054906101000a900473ffffffffffffffffffffffffffffffffffffffff1673ffffffffffffffffffffffffffffffffffffffff1673ffffffffffffffffffffffffffffffffffffffff168152602001600282015481525050815260200190600101906105b2565b50505050905080848151811061070a57610709610dc4565b5b60200260200101516000015181858151811061072957610728610dc4565b5b6020026020010151602001519250925050915091565b6000602052816000526040600020818154811061075b57600080fd5b90600052602060002090600302016000915091505080600001805461077f90610e85565b80601f01602080910402602001604051908101604052809291908181526020018280546107ab90610e85565b80156107f85780601f106107cd576101008083540402835291602001916107f8565b820191906000526020600020905b8154815290600101906020018083116107db57829003601f168201915b5050505050908060010160009054906101000a900460ff16908060010160019054906101000a900473ffffffffffffffffffffffffffffffffffffffff16908060020154905084565b6000604051905090565b600080fd5b600080fd5b6000819050919050565b61086881610855565b811461087357600080fd5b50565b6000813590506108858161085f565b92915050565b60008115159050919050565b6108a08161088b565b81146108ab57600080fd5b50565b6000813590506108bd81610897565b92915050565b600080604083850312156108da576108d961084b565b5b60006108e885828601610876565b92505060206108f9858286016108ae565b9150509250929050565b600073ffffffffffffffffffffffffffffffffffffffff82169050919050565b600061092e82610903565b9050919050565b61093e81610923565b82525050565b60006020820190506109596000830184610935565b92915050565b600080fd5b600080fd5b6000601f19601f8301169050919050565b7f4e487b7100000000000000000000000000000000000000000000000000000000600052604160045260246000fd5b6109b282610969565b810181811067ffffffffffffffff821117156109d1576109d061097a565b5b80604052505050565b60006109e4610841565b90506109f082826109a9565b919050565b600067ffffffffffffffff821115610a1057610a0f61097a565b5b610a1982610969565b9050602081019050919050565b82818337600083830152505050565b6000610a48610a43846109f5565b6109da565b905082815260208101848484011115610a6457610a63610964565b5b610a6f848285610a26565b509392505050565b600082601f830112610a8c57610a8b61095f565b5b8135610a9c848260208601610a35565b91505092915050565b600060208284031215610abb57610aba61084b565b5b600082013567ffffffffffffffff811115610ad957610ad8610850565b5b610ae584828501610a77565b91505092915050565b600081519050919050565b600082825260208201905092915050565b60005b83811015610b28578082015181840152602081019050610b0d565b60008484015250505050565b6000610b3f82610aee565b610b498185610af9565b9350610b59818560208601610b0a565b610b6281610969565b840191505092915050565b610b768161088b565b82525050565b610b8581610855565b82525050565b6000608082019050610ba06000830187610935565b8181036020830152610bb28186610b34565b9050610bc16040830185610b6d565b610bce6060830184610b7c565b95945050505050565b600060208284031215610bed57610bec61084b565b5b6000610bfb84828501610876565b91505092915050565b60006040820190508181036000830152610c1e8185610b34565b9050610c2d6020830184610b6d565b9392505050565b610c3d81610923565b8114610c4857600080fd5b50565b600081359050610c5a81610c34565b92915050565b60008060408385031215610c7757610c7661084b565b5b6000610c8585828601610c4b565b9250506020610c9685828601610876565b9150509250929050565b60006080820190508181036000830152610cba8187610b34565b9050610cc96020830186610b6d565b610cd66040830185610935565b610ce36060830184610b7c565b95945050505050565b7f736f7272792c20796f75277265206e6f7420636f6e7472616374206f776e6572600082015250565b6000610d22602083610af9565b9150610d2d82610cec565b602082019050919050565b60006020820190508181036000830152610d5181610d15565b9050919050565b7f496e646578206f7574206f6620626f756e647300000000000000000000000000600082015250565b6000610d8e601383610af9565b9150610d9982610d58565b602082019050919050565b60006020820190508181036000830152610dbd81610d81565b9050919050565b7f4e487b7100000000000000000000000000000000000000000000000000000000600052603260045260246000fd5b7f4e487b7100000000000000000000000000000000000000000000000000000000600052601160045260246000fd5b6000610e2d82610855565b9150610e3883610855565b9250828201905080821115610e5057610e4f610df3565b5b92915050565b7f4e487b7100000000000000000000000000000000000000000000000000000000600052602260045260246000fd5b60006002820490506001821680610e9d57607f821691505b602082108103610eb057610eaf610e56565b5b50919050565b60008190508160005260206000209050919050565b60006020601f8301049050919050565b600082821b905092915050565b600060088302610f187fffffffffffffffffffffffffffffffffffffffffffffffffffffffffffffffff82610edb565b610f228683610edb565b95508019841693508086168417925050509392505050565b6000819050919050565b6000610f5f610f5a610f5584610855565b610f3a565b610855565b9050919050565b6000819050919050565b610f7983610f44565b610f8d610f8582610f66565b848454610ee8565b825550505050565b600090565b610fa2610f95565b610fad818484610f70565b505050565b5b81811015610fd157610fc6600082610f9a565b600181019050610fb3565b5050565b601f82111561101657610fe781610eb6565b610ff084610ecb565b81016020851015610fff578190505b61101361100b85610ecb565b830182610fb2565b50505b505050565b600082821c905092915050565b60006110396000198460080261101b565b1980831691505092915050565b60006110528383611028565b9150826002028217905092915050565b61106b82610aee565b67ffffffffffffffff8111156110845761108361097a565b5b61108e8254610e85565b611099828285610fd5565b600060209050601f8311600181146110cc57600084156110ba578287015190505b6110c48582611046565b86555061112c565b601f1984166110da86610eb6565b60005b82811015611102578489015182556001820191506020850194506020810190506110dd565b8683101561111f578489015161111b601f891682611028565b8355505b6001600288020188555050505b50505050505056fea26469706673582212202282d525f0482f21ca5f7586d91220bf80d9d00b6deb72fce25c63f00702597b64736f6c63430008120033",
					"opcodes": "PUSH1 0xA0 PUSH1 0x40 MSTORE CALLVALUE DUP1 ISZERO PUSH2 0x10 JUMPI PUSH1 0x0 DUP1 REVERT JUMPDEST POP CALLER PUSH20 0xFFFFFFFFFFFFFFFFFFFFFFFFFFFFFFFFFFFFFFFF AND PUSH1 0x80 DUP2 PUSH20 0xFFFFFFFFFFFFFFFFFFFFFFFFFFFFFFFFFFFFFFFF AND DUP2 MSTORE POP POP PUSH1 0x80 MLOAD PUSH2 0x116A PUSH2 0x6E PUSH1 0x0 CODECOPY PUSH1 0x0 DUP2 DUP2 PUSH2 0x144 ADD MSTORE DUP2 DUP2 PUSH2 0x1D2 ADD MSTORE PUSH2 0x30B ADD MSTORE PUSH2 0x116A PUSH1 0x0 RETURN INVALID PUSH1 0x80 PUSH1 0x40 MSTORE CALLVALUE DUP1 ISZERO PUSH2 0x10 JUMPI PUSH1 0x0 DUP1 REVERT JUMPDEST POP PUSH1 0x4 CALLDATASIZE LT PUSH2 0x62 JUMPI PUSH1 0x0 CALLDATALOAD PUSH1 0xE0 SHR DUP1 PUSH4 0x41C0E1B5 EQ PUSH2 0x67 JUMPI DUP1 PUSH4 0x48284B62 EQ PUSH2 0x71 JUMPI DUP1 PUSH4 0x8DA5CB5B EQ PUSH2 0x8D JUMPI DUP1 PUSH4 0xB6A46B3B EQ PUSH2 0xAB JUMPI DUP1 PUSH4 0xD1A1B999 EQ PUSH2 0xDE JUMPI DUP1 PUSH4 0xD299370B EQ PUSH2 0x10F JUMPI JUMPDEST PUSH1 0x0 DUP1 REVERT JUMPDEST PUSH2 0x6F PUSH2 0x142 JUMP JUMPDEST STOP JUMPDEST PUSH2 0x8B PUSH1 0x4 DUP1 CALLDATASIZE SUB DUP2 ADD SWAP1 PUSH2 0x86 SWAP2 SWAP1 PUSH2 0x8C3 JUMP JUMPDEST PUSH2 0x209 JUMP JUMPDEST STOP JUMPDEST PUSH2 0x95 PUSH2 0x309 JUMP JUMPDEST PUSH1 0x40 MLOAD PUSH2 0xA2 SWAP2 SWAP1 PUSH2 0x944 JUMP JUMPDEST PUSH1 0x40 MLOAD DUP1 SWAP2 SUB SWAP1 RETURN JUMPDEST PUSH2 0xC5 PUSH1 0x4 DUP1 CALLDATASIZE SUB DUP2 ADD SWAP1 PUSH2 0xC0 SWAP2 SWAP1 PUSH2 0xAA5 JUMP JUMPDEST PUSH2 0x32D JUMP JUMPDEST PUSH1 0x40 MLOAD PUSH2 0xD5 SWAP5 SWAP4 SWAP3 SWAP2 SWAP1 PUSH2 0xB8B JUMP JUMPDEST PUSH1 0x40 MLOAD DUP1 SWAP2 SUB SWAP1 RETURN JUMPDEST PUSH2 0xF8 PUSH1 0x4 DUP1 CALLDATASIZE SUB DUP2 ADD SWAP1 PUSH2 0xF3 SWAP2 SWAP1 PUSH2 0xBD7 JUMP JUMPDEST PUSH2 0x4CB JUMP JUMPDEST PUSH1 0x40 MLOAD PUSH2 0x106 SWAP3 SWAP2 SWAP1 PUSH2 0xC04 JUMP JUMPDEST PUSH1 0x40 MLOAD DUP1 SWAP2 SUB SWAP1 RETURN JUMPDEST PUSH2 0x129 PUSH1 0x4 DUP1 CALLDATASIZE SUB DUP2 ADD SWAP1 PUSH2 0x124 SWAP2 SWAP1 PUSH2 0xC60 JUMP JUMPDEST PUSH2 0x73F JUMP JUMPDEST PUSH1 0x40 MLOAD PUSH2 0x139 SWAP5 SWAP4 SWAP3 SWAP2 SWAP1 PUSH2 0xCA0 JUMP JUMPDEST PUSH1 0x40 MLOAD DUP1 SWAP2 SUB SWAP1 RETURN JUMPDEST PUSH32 0x0 PUSH20 0xFFFFFFFFFFFFFFFFFFFFFFFFFFFFFFFFFFFFFFFF AND CALLER PUSH20 0xFFFFFFFFFFFFFFFFFFFFFFFFFFFFFFFFFFFFFFFF AND EQ PUSH2 0x1D0 JUMPI PUSH1 0x40 MLOAD PUSH32 0x8C379A000000000000000000000000000000000000000000000000000000000 DUP2 MSTORE PUSH1 0x4 ADD PUSH2 0x1C7 SWAP1 PUSH2 0xD38 JUMP JUMPDEST PUSH1 0x40 MLOAD DUP1 SWAP2 SUB SWAP1 REVERT JUMPDEST PUSH32 0x0 PUSH20 0xFFFFFFFFFFFFFFFFFFFFFFFFFFFFFFFFFFFFFFFF AND SELFDESTRUCT JUMPDEST PUSH1 0x0 DUP1 CALLER PUSH20 0xFFFFFFFFFFFFFFFFFFFFFFFFFFFFFFFFFFFFFFFF AND PUSH20 0xFFFFFFFFFFFFFFFFFFFFFFFFFFFFFFFFFFFFFFFF AND DUP2 MSTORE PUSH1 0x20 ADD SWAP1 DUP2 MSTORE PUSH1 0x20 ADD PUSH1 0x0 KECCAK256 DUP1 SLOAD SWAP1 POP DUP3 LT PUSH2 0x28C JUMPI PUSH1 0x40 MLOAD PUSH32 0x8C379A000000000000000000000000000000000000000000000000000000000 DUP2 MSTORE PUSH1 0x4 ADD PUSH2 0x283 SWAP1 PUSH2 0xDA4 JUMP JUMPDEST PUSH1 0x40 MLOAD DUP1 SWAP2 SUB SWAP1 REVERT JUMPDEST DUP1 PUSH1 0x0 DUP1 CALLER PUSH20 0xFFFFFFFFFFFFFFFFFFFFFFFFFFFFFFFFFFFFFFFF AND PUSH20 0xFFFFFFFFFFFFFFFFFFFFFFFFFFFFFFFFFFFFFFFF AND DUP2 MSTORE PUSH1 0x20 ADD SWAP1 DUP2 MSTORE PUSH1 0x20 ADD PUSH1 0x0 KECCAK256 DUP4 DUP2 SLOAD DUP2 LT PUSH2 0x2DD JUMPI PUSH2 0x2DC PUSH2 0xDC4 JUMP JUMPDEST JUMPDEST SWAP1 PUSH1 0x0 MSTORE PUSH1 0x20 PUSH1 0x0 KECCAK256 SWAP1 PUSH1 0x3 MUL ADD PUSH1 0x1 ADD PUSH1 0x0 PUSH2 0x100 EXP DUP2 SLOAD DUP2 PUSH1 0xFF MUL NOT AND SWAP1 DUP4 ISZERO ISZERO MUL OR SWAP1 SSTORE POP POP POP JUMP JUMPDEST PUSH32 0x0 DUP2 JUMP JUMPDEST PUSH1 0x0 PUSH1 0x60 PUSH1 0x0 DUP1 PUSH1 0x0 PUSH1 0x1 PUSH1 0x0 DUP1 CALLER PUSH20 0xFFFFFFFFFFFFFFFFFFFFFFFFFFFFFFFFFFFFFFFF AND PUSH20 0xFFFFFFFFFFFFFFFFFFFFFFFFFFFFFFFFFFFFFFFF AND DUP2 MSTORE PUSH1 0x20 ADD SWAP1 DUP2 MSTORE PUSH1 0x20 ADD PUSH1 0x0 KECCAK256 DUP1 SLOAD SWAP1 POP PUSH2 0x384 SWAP2 SWAP1 PUSH2 0xE22 JUMP JUMPDEST SWAP1 POP PUSH1 0x0 PUSH1 0x40 MLOAD DUP1 PUSH1 0x80 ADD PUSH1 0x40 MSTORE DUP1 DUP9 DUP2 MSTORE PUSH1 0x20 ADD PUSH1 0x0 ISZERO ISZERO DUP2 MSTORE PUSH1 0x20 ADD CALLER PUSH20 0xFFFFFFFFFFFFFFFFFFFFFFFFFFFFFFFFFFFFFFFF AND DUP2 MSTORE PUSH1 0x20 ADD DUP4 DUP2 MSTORE POP SWAP1 POP PUSH1 0x0 DUP1 CALLER PUSH20 0xFFFFFFFFFFFFFFFFFFFFFFFFFFFFFFFFFFFFFFFF AND PUSH20 0xFFFFFFFFFFFFFFFFFFFFFFFFFFFFFFFFFFFFFFFF AND DUP2 MSTORE PUSH1 0x20 ADD SWAP1 DUP2 MSTORE PUSH1 0x20 ADD PUSH1 0x0 KECCAK256 DUP2 SWAP1 DUP1 PUSH1 0x1 DUP2 SLOAD ADD DUP1 DUP3 SSTORE DUP1 SWAP2 POP POP PUSH1 0x1 SWAP1 SUB SWAP1 PUSH1 0x0 MSTORE PUSH1 0x20 PUSH1 0x0 KECCAK256 SWAP1 PUSH1 0x3 MUL ADD PUSH1 0x0 SWAP1 SWAP2 SWAP1 SWAP2 SWAP1 SWAP2 POP PUSH1 0x0 DUP3 ADD MLOAD DUP2 PUSH1 0x0 ADD SWAP1 DUP2 PUSH2 0x441 SWAP2 SWAP1 PUSH2 0x1062 JUMP JUMPDEST POP PUSH1 0x20 DUP3 ADD MLOAD DUP2 PUSH1 0x1 ADD PUSH1 0x0 PUSH2 0x100 EXP DUP2 SLOAD DUP2 PUSH1 0xFF MUL NOT AND SWAP1 DUP4 ISZERO ISZERO MUL OR SWAP1 SSTORE POP PUSH1 0x40 DUP3 ADD MLOAD DUP2 PUSH1 0x1 ADD PUSH1 0x1 PUSH2 0x100 EXP DUP2 SLOAD DUP2 PUSH20 0xFFFFFFFFFFFFFFFFFFFFFFFFFFFFFFFFFFFFFFFF MUL NOT AND SWAP1 DUP4 PUSH20 0xFFFFFFFFFFFFFFFFFFFFFFFFFFFFFFFFFFFFFFFF AND MUL OR SWAP1 SSTORE POP PUSH1 0x60 DUP3 ADD MLOAD DUP2 PUSH1 0x2 ADD SSTORE POP POP CALLER DUP8 PUSH1 0x0 DUP5 SWAP6 POP SWAP6 POP SWAP6 POP SWAP6 POP POP POP SWAP2 SWAP4 POP SWAP2 SWAP4 JUMP JUMPDEST PUSH1 0x60 PUSH1 0x0 DUP1 PUSH1 0x0 CALLER PUSH20 0xFFFFFFFFFFFFFFFFFFFFFFFFFFFFFFFFFFFFFFFF AND PUSH20 0xFFFFFFFFFFFFFFFFFFFFFFFFFFFFFFFFFFFFFFFF AND DUP2 MSTORE PUSH1 0x20 ADD SWAP1 DUP2 MSTORE PUSH1 0x20 ADD PUSH1 0x0 KECCAK256 DUP1 SLOAD SWAP1 POP DUP4 LT PUSH2 0x552 JUMPI PUSH1 0x40 MLOAD PUSH32 0x8C379A000000000000000000000000000000000000000000000000000000000 DUP2 MSTORE PUSH1 0x4 ADD PUSH2 0x549 SWAP1 PUSH2 0xDA4 JUMP JUMPDEST PUSH1 0x40 MLOAD DUP1 SWAP2 SUB SWAP1 REVERT JUMPDEST PUSH1 0x0 DUP1 PUSH1 0x0 CALLER PUSH20 0xFFFFFFFFFFFFFFFFFFFFFFFFFFFFFFFFFFFFFFFF AND PUSH20 0xFFFFFFFFFFFFFFFFFFFFFFFFFFFFFFFFFFFFFFFF AND DUP2 MSTORE PUSH1 0x20 ADD SWAP1 DUP2 MSTORE PUSH1 0x20 ADD PUSH1 0x0 KECCAK256 DUP1 SLOAD DUP1 PUSH1 0x20 MUL PUSH1 0x20 ADD PUSH1 0x40 MLOAD SWAP1 DUP2 ADD PUSH1 0x40 MSTORE DUP1 SWAP3 SWAP2 SWAP1 DUP2 DUP2 MSTORE PUSH1 0x20 ADD PUSH1 0x0 SWAP1 JUMPDEST DUP3 DUP3 LT ISZERO PUSH2 0x6F1 JUMPI DUP4 DUP3 SWAP1 PUSH1 0x0 MSTORE PUSH1 0x20 PUSH1 0x0 KECCAK256 SWAP1 PUSH1 0x3 MUL ADD PUSH1 0x40 MLOAD DUP1 PUSH1 0x80 ADD PUSH1 0x40 MSTORE SWAP1 DUP2 PUSH1 0x0 DUP3 ADD DUP1 SLOAD PUSH2 0x5E5 SWAP1 PUSH2 0xE85 JUMP JUMPDEST DUP1 PUSH1 0x1F ADD PUSH1 0x20 DUP1 SWAP2 DIV MUL PUSH1 0x20 ADD PUSH1 0x40 MLOAD SWAP1 DUP2 ADD PUSH1 0x40 MSTORE DUP1 SWAP3 SWAP2 SWAP1 DUP2 DUP2 MSTORE PUSH1 0x20 ADD DUP3 DUP1 SLOAD PUSH2 0x611 SWAP1 PUSH2 0xE85 JUMP JUMPDEST DUP1 ISZERO PUSH2 0x65E JUMPI DUP1 PUSH1 0x1F LT PUSH2 0x633 JUMPI PUSH2 0x100 DUP1 DUP4 SLOAD DIV MUL DUP4 MSTORE SWAP2 PUSH1 0x20 ADD SWAP2 PUSH2 0x65E JUMP JUMPDEST DUP3 ADD SWAP2 SWAP1 PUSH1 0x0 MSTORE PUSH1 0x20 PUSH1 0x0 KECCAK256 SWAP1 JUMPDEST DUP2 SLOAD DUP2 MSTORE SWAP1 PUSH1 0x1 ADD SWAP1 PUSH1 0x20 ADD DUP1 DUP4 GT PUSH2 0x641 JUMPI DUP3 SWAP1 SUB PUSH1 0x1F AND DUP3 ADD SWAP2 JUMPDEST POP POP POP POP POP DUP2 MSTORE PUSH1 0x20 ADD PUSH1 0x1 DUP3 ADD PUSH1 0x0 SWAP1 SLOAD SWAP1 PUSH2 0x100 EXP SWAP1 DIV PUSH1 0xFF AND ISZERO ISZERO ISZERO ISZERO DUP2 MSTORE PUSH1 0x20 ADD PUSH1 0x1 DUP3 ADD PUSH1 0x1 SWAP1 SLOAD SWAP1 PUSH2 0x100 EXP SWAP1 DIV PUSH20 0xFFFFFFFFFFFFFFFFFFFFFFFFFFFFFFFFFFFFFFFF AND PUSH20 0xFFFFFFFFFFFFFFFFFFFFFFFFFFFFFFFFFFFFFFFF AND PUSH20 0xFFFFFFFFFFFFFFFFFFFFFFFFFFFFFFFFFFFFFFFF AND DUP2 MSTORE PUSH1 0x20 ADD PUSH1 0x2 DUP3 ADD SLOAD DUP2 MSTORE POP POP DUP2 MSTORE PUSH1 0x20 ADD SWAP1 PUSH1 0x1 ADD SWAP1 PUSH2 0x5B2 JUMP JUMPDEST POP POP POP POP SWAP1 POP DUP1 DUP5 DUP2 MLOAD DUP2 LT PUSH2 0x70A JUMPI PUSH2 0x709 PUSH2 0xDC4 JUMP JUMPDEST JUMPDEST PUSH1 0x20 MUL PUSH1 0x20 ADD ADD MLOAD PUSH1 0x0 ADD MLOAD DUP2 DUP6 DUP2 MLOAD DUP2 LT PUSH2 0x729 JUMPI PUSH2 0x728 PUSH2 0xDC4 JUMP JUMPDEST JUMPDEST PUSH1 0x20 MUL PUSH1 0x20 ADD ADD MLOAD PUSH1 0x20 ADD MLOAD SWAP3 POP SWAP3 POP POP SWAP2 POP SWAP2 JUMP JUMPDEST PUSH1 0x0 PUSH1 0x20 MSTORE DUP2 PUSH1 0x0 MSTORE PUSH1 0x40 PUSH1 0x0 KECCAK256 DUP2 DUP2 SLOAD DUP2 LT PUSH2 0x75B JUMPI PUSH1 0x0 DUP1 REVERT JUMPDEST SWAP1 PUSH1 0x0 MSTORE PUSH1 0x20 PUSH1 0x0 KECCAK256 SWAP1 PUSH1 0x3 MUL ADD PUSH1 0x0 SWAP2 POP SWAP2 POP POP DUP1 PUSH1 0x0 ADD DUP1 SLOAD PUSH2 0x77F SWAP1 PUSH2 0xE85 JUMP JUMPDEST DUP1 PUSH1 0x1F ADD PUSH1 0x20 DUP1 SWAP2 DIV MUL PUSH1 0x20 ADD PUSH1 0x40 MLOAD SWAP1 DUP2 ADD PUSH1 0x40 MSTORE DUP1 SWAP3 SWAP2 SWAP1 DUP2 DUP2 MSTORE PUSH1 0x20 ADD DUP3 DUP1 SLOAD PUSH2 0x7AB SWAP1 PUSH2 0xE85 JUMP JUMPDEST DUP1 ISZERO PUSH2 0x7F8 JUMPI DUP1 PUSH1 0x1F LT PUSH2 0x7CD JUMPI PUSH2 0x100 DUP1 DUP4 SLOAD DIV MUL DUP4 MSTORE SWAP2 PUSH1 0x20 ADD SWAP2 PUSH2 0x7F8 JUMP JUMPDEST DUP3 ADD SWAP2 SWAP1 PUSH1 0x0 MSTORE PUSH1 0x20 PUSH1 0x0 KECCAK256 SWAP1 JUMPDEST DUP2 SLOAD DUP2 MSTORE SWAP1 PUSH1 0x1 ADD SWAP1 PUSH1 0x20 ADD DUP1 DUP4 GT PUSH2 0x7DB JUMPI DUP3 SWAP1 SUB PUSH1 0x1F AND DUP3 ADD SWAP2 JUMPDEST POP POP POP POP POP SWAP1 DUP1 PUSH1 0x1 ADD PUSH1 0x0 SWAP1 SLOAD SWAP1 PUSH2 0x100 EXP SWAP1 DIV PUSH1 0xFF AND SWAP1 DUP1 PUSH1 0x1 ADD PUSH1 0x1 SWAP1 SLOAD SWAP1 PUSH2 0x100 EXP SWAP1 DIV PUSH20 0xFFFFFFFFFFFFFFFFFFFFFFFFFFFFFFFFFFFFFFFF AND SWAP1 DUP1 PUSH1 0x2 ADD SLOAD SWAP1 POP DUP5 JUMP JUMPDEST PUSH1 0x0 PUSH1 0x40 MLOAD SWAP1 POP SWAP1 JUMP JUMPDEST PUSH1 0x0 DUP1 REVERT JUMPDEST PUSH1 0x0 DUP1 REVERT JUMPDEST PUSH1 0x0 DUP2 SWAP1 POP SWAP2 SWAP1 POP JUMP JUMPDEST PUSH2 0x868 DUP2 PUSH2 0x855 JUMP JUMPDEST DUP2 EQ PUSH2 0x873 JUMPI PUSH1 0x0 DUP1 REVERT JUMPDEST POP JUMP JUMPDEST PUSH1 0x0 DUP2 CALLDATALOAD SWAP1 POP PUSH2 0x885 DUP2 PUSH2 0x85F JUMP JUMPDEST SWAP3 SWAP2 POP POP JUMP JUMPDEST PUSH1 0x0 DUP2 ISZERO ISZERO SWAP1 POP SWAP2 SWAP1 POP JUMP JUMPDEST PUSH2 0x8A0 DUP2 PUSH2 0x88B JUMP JUMPDEST DUP2 EQ PUSH2 0x8AB JUMPI PUSH1 0x0 DUP1 REVERT JUMPDEST POP JUMP JUMPDEST PUSH1 0x0 DUP2 CALLDATALOAD SWAP1 POP PUSH2 0x8BD DUP2 PUSH2 0x897 JUMP JUMPDEST SWAP3 SWAP2 POP POP JUMP JUMPDEST PUSH1 0x0 DUP1 PUSH1 0x40 DUP4 DUP6 SUB SLT ISZERO PUSH2 0x8DA JUMPI PUSH2 0x8D9 PUSH2 0x84B JUMP JUMPDEST JUMPDEST PUSH1 0x0 PUSH2 0x8E8 DUP6 DUP3 DUP7 ADD PUSH2 0x876 JUMP JUMPDEST SWAP3 POP POP PUSH1 0x20 PUSH2 0x8F9 DUP6 DUP3 DUP7 ADD PUSH2 0x8AE JUMP JUMPDEST SWAP2 POP POP SWAP3 POP SWAP3 SWAP1 POP JUMP JUMPDEST PUSH1 0x0 PUSH20 0xFFFFFFFFFFFFFFFFFFFFFFFFFFFFFFFFFFFFFFFF DUP3 AND SWAP1 POP SWAP2 SWAP1 POP JUMP JUMPDEST PUSH1 0x0 PUSH2 0x92E DUP3 PUSH2 0x903 JUMP JUMPDEST SWAP1 POP SWAP2 SWAP1 POP JUMP JUMPDEST PUSH2 0x93E DUP2 PUSH2 0x923 JUMP JUMPDEST DUP3 MSTORE POP POP JUMP JUMPDEST PUSH1 0x0 PUSH1 0x20 DUP3 ADD SWAP1 POP PUSH2 0x959 PUSH1 0x0 DUP4 ADD DUP5 PUSH2 0x935 JUMP JUMPDEST SWAP3 SWAP2 POP POP JUMP JUMPDEST PUSH1 0x0 DUP1 REVERT JUMPDEST PUSH1 0x0 DUP1 REVERT JUMPDEST PUSH1 0x0 PUSH1 0x1F NOT PUSH1 0x1F DUP4 ADD AND SWAP1 POP SWAP2 SWAP1 POP JUMP JUMPDEST PUSH32 0x4E487B7100000000000000000000000000000000000000000000000000000000 PUSH1 0x0 MSTORE PUSH1 0x41 PUSH1 0x4 MSTORE PUSH1 0x24 PUSH1 0x0 REVERT JUMPDEST PUSH2 0x9B2 DUP3 PUSH2 0x969 JUMP JUMPDEST DUP2 ADD DUP2 DUP2 LT PUSH8 0xFFFFFFFFFFFFFFFF DUP3 GT OR ISZERO PUSH2 0x9D1 JUMPI PUSH2 0x9D0 PUSH2 0x97A JUMP JUMPDEST JUMPDEST DUP1 PUSH1 0x40 MSTORE POP POP POP JUMP JUMPDEST PUSH1 0x0 PUSH2 0x9E4 PUSH2 0x841 JUMP JUMPDEST SWAP1 POP PUSH2 0x9F0 DUP3 DUP3 PUSH2 0x9A9 JUMP JUMPDEST SWAP2 SWAP1 POP JUMP JUMPDEST PUSH1 0x0 PUSH8 0xFFFFFFFFFFFFFFFF DUP3 GT ISZERO PUSH2 0xA10 JUMPI PUSH2 0xA0F PUSH2 0x97A JUMP JUMPDEST JUMPDEST PUSH2 0xA19 DUP3 PUSH2 0x969 JUMP JUMPDEST SWAP1 POP PUSH1 0x20 DUP2 ADD SWAP1 POP SWAP2 SWAP1 POP JUMP JUMPDEST DUP3 DUP2 DUP4 CALLDATACOPY PUSH1 0x0 DUP4 DUP4 ADD MSTORE POP POP POP JUMP JUMPDEST PUSH1 0x0 PUSH2 0xA48 PUSH2 0xA43 DUP5 PUSH2 0x9F5 JUMP JUMPDEST PUSH2 0x9DA JUMP JUMPDEST SWAP1 POP DUP3 DUP2 MSTORE PUSH1 0x20 DUP2 ADD DUP5 DUP5 DUP5 ADD GT ISZERO PUSH2 0xA64 JUMPI PUSH2 0xA63 PUSH2 0x964 JUMP JUMPDEST JUMPDEST PUSH2 0xA6F DUP5 DUP3 DUP6 PUSH2 0xA26 JUMP JUMPDEST POP SWAP4 SWAP3 POP POP POP JUMP JUMPDEST PUSH1 0x0 DUP3 PUSH1 0x1F DUP4 ADD SLT PUSH2 0xA8C JUMPI PUSH2 0xA8B PUSH2 0x95F JUMP JUMPDEST JUMPDEST DUP2 CALLDATALOAD PUSH2 0xA9C DUP5 DUP3 PUSH1 0x20 DUP7 ADD PUSH2 0xA35 JUMP JUMPDEST SWAP2 POP POP SWAP3 SWAP2 POP POP JUMP JUMPDEST PUSH1 0x0 PUSH1 0x20 DUP3 DUP5 SUB SLT ISZERO PUSH2 0xABB JUMPI PUSH2 0xABA PUSH2 0x84B JUMP JUMPDEST JUMPDEST PUSH1 0x0 DUP3 ADD CALLDATALOAD PUSH8 0xFFFFFFFFFFFFFFFF DUP2 GT ISZERO PUSH2 0xAD9 JUMPI PUSH2 0xAD8 PUSH2 0x850 JUMP JUMPDEST JUMPDEST PUSH2 0xAE5 DUP5 DUP3 DUP6 ADD PUSH2 0xA77 JUMP JUMPDEST SWAP2 POP POP SWAP3 SWAP2 POP POP JUMP JUMPDEST PUSH1 0x0 DUP2 MLOAD SWAP1 POP SWAP2 SWAP1 POP JUMP JUMPDEST PUSH1 0x0 DUP3 DUP3 MSTORE PUSH1 0x20 DUP3 ADD SWAP1 POP SWAP3 SWAP2 POP POP JUMP JUMPDEST PUSH1 0x0 JUMPDEST DUP4 DUP2 LT ISZERO PUSH2 0xB28 JUMPI DUP1 DUP3 ADD MLOAD DUP2 DUP5 ADD MSTORE PUSH1 0x20 DUP2 ADD SWAP1 POP PUSH2 0xB0D JUMP JUMPDEST PUSH1 0x0 DUP5 DUP5 ADD MSTORE POP POP POP POP JUMP JUMPDEST PUSH1 0x0 PUSH2 0xB3F DUP3 PUSH2 0xAEE JUMP JUMPDEST PUSH2 0xB49 DUP2 DUP6 PUSH2 0xAF9 JUMP JUMPDEST SWAP4 POP PUSH2 0xB59 DUP2 DUP6 PUSH1 0x20 DUP7 ADD PUSH2 0xB0A JUMP JUMPDEST PUSH2 0xB62 DUP2 PUSH2 0x969 JUMP JUMPDEST DUP5 ADD SWAP2 POP POP SWAP3 SWAP2 POP POP JUMP JUMPDEST PUSH2 0xB76 DUP2 PUSH2 0x88B JUMP JUMPDEST DUP3 MSTORE POP POP JUMP JUMPDEST PUSH2 0xB85 DUP2 PUSH2 0x855 JUMP JUMPDEST DUP3 MSTORE POP POP JUMP JUMPDEST PUSH1 0x0 PUSH1 0x80 DUP3 ADD SWAP1 POP PUSH2 0xBA0 PUSH1 0x0 DUP4 ADD DUP8 PUSH2 0x935 JUMP JUMPDEST DUP2 DUP2 SUB PUSH1 0x20 DUP4 ADD MSTORE PUSH2 0xBB2 DUP2 DUP7 PUSH2 0xB34 JUMP JUMPDEST SWAP1 POP PUSH2 0xBC1 PUSH1 0x40 DUP4 ADD DUP6 PUSH2 0xB6D JUMP JUMPDEST PUSH2 0xBCE PUSH1 0x60 DUP4 ADD DUP5 PUSH2 0xB7C JUMP JUMPDEST SWAP6 SWAP5 POP POP POP POP POP JUMP JUMPDEST PUSH1 0x0 PUSH1 0x20 DUP3 DUP5 SUB SLT ISZERO PUSH2 0xBED JUMPI PUSH2 0xBEC PUSH2 0x84B JUMP JUMPDEST JUMPDEST PUSH1 0x0 PUSH2 0xBFB DUP5 DUP3 DUP6 ADD PUSH2 0x876 JUMP JUMPDEST SWAP2 POP POP SWAP3 SWAP2 POP POP JUMP JUMPDEST PUSH1 0x0 PUSH1 0x40 DUP3 ADD SWAP1 POP DUP2 DUP2 SUB PUSH1 0x0 DUP4 ADD MSTORE PUSH2 0xC1E DUP2 DUP6 PUSH2 0xB34 JUMP JUMPDEST SWAP1 POP PUSH2 0xC2D PUSH1 0x20 DUP4 ADD DUP5 PUSH2 0xB6D JUMP JUMPDEST SWAP4 SWAP3 POP POP POP JUMP JUMPDEST PUSH2 0xC3D DUP2 PUSH2 0x923 JUMP JUMPDEST DUP2 EQ PUSH2 0xC48 JUMPI PUSH1 0x0 DUP1 REVERT JUMPDEST POP JUMP JUMPDEST PUSH1 0x0 DUP2 CALLDATALOAD SWAP1 POP PUSH2 0xC5A DUP2 PUSH2 0xC34 JUMP JUMPDEST SWAP3 SWAP2 POP POP JUMP JUMPDEST PUSH1 0x0 DUP1 PUSH1 0x40 DUP4 DUP6 SUB SLT ISZERO PUSH2 0xC77 JUMPI PUSH2 0xC76 PUSH2 0x84B JUMP JUMPDEST JUMPDEST PUSH1 0x0 PUSH2 0xC85 DUP6 DUP3 DUP7 ADD PUSH2 0xC4B JUMP JUMPDEST SWAP3 POP POP PUSH1 0x20 PUSH2 0xC96 DUP6 DUP3 DUP7 ADD PUSH2 0x876 JUMP JUMPDEST SWAP2 POP POP SWAP3 POP SWAP3 SWAP1 POP JUMP JUMPDEST PUSH1 0x0 PUSH1 0x80 DUP3 ADD SWAP1 POP DUP2 DUP2 SUB PUSH1 0x0 DUP4 ADD MSTORE PUSH2 0xCBA DUP2 DUP8 PUSH2 0xB34 JUMP JUMPDEST SWAP1 POP PUSH2 0xCC9 PUSH1 0x20 DUP4 ADD DUP7 PUSH2 0xB6D JUMP JUMPDEST PUSH2 0xCD6 PUSH1 0x40 DUP4 ADD DUP6 PUSH2 0x935 JUMP JUMPDEST PUSH2 0xCE3 PUSH1 0x60 DUP4 ADD DUP5 PUSH2 0xB7C JUMP JUMPDEST SWAP6 SWAP5 POP POP POP POP POP JUMP JUMPDEST PUSH32 0x736F7272792C20796F75277265206E6F7420636F6E7472616374206F776E6572 PUSH1 0x0 DUP3 ADD MSTORE POP JUMP JUMPDEST PUSH1 0x0 PUSH2 0xD22 PUSH1 0x20 DUP4 PUSH2 0xAF9 JUMP JUMPDEST SWAP2 POP PUSH2 0xD2D DUP3 PUSH2 0xCEC JUMP JUMPDEST PUSH1 0x20 DUP3 ADD SWAP1 POP SWAP2 SWAP1 POP JUMP JUMPDEST PUSH1 0x0 PUSH1 0x20 DUP3 ADD SWAP1 POP DUP2 DUP2 SUB PUSH1 0x0 DUP4 ADD MSTORE PUSH2 0xD51 DUP2 PUSH2 0xD15 JUMP JUMPDEST SWAP1 POP SWAP2 SWAP1 POP JUMP JUMPDEST PUSH32 0x496E646578206F7574206F6620626F756E647300000000000000000000000000 PUSH1 0x0 DUP3 ADD MSTORE POP JUMP JUMPDEST PUSH1 0x0 PUSH2 0xD8E PUSH1 0x13 DUP4 PUSH2 0xAF9 JUMP JUMPDEST SWAP2 POP PUSH2 0xD99 DUP3 PUSH2 0xD58 JUMP JUMPDEST PUSH1 0x20 DUP3 ADD SWAP1 POP SWAP2 SWAP1 POP JUMP JUMPDEST PUSH1 0x0 PUSH1 0x20 DUP3 ADD SWAP1 POP DUP2 DUP2 SUB PUSH1 0x0 DUP4 ADD MSTORE PUSH2 0xDBD DUP2 PUSH2 0xD81 JUMP JUMPDEST SWAP1 POP SWAP2 SWAP1 POP JUMP JUMPDEST PUSH32 0x4E487B7100000000000000000000000000000000000000000000000000000000 PUSH1 0x0 MSTORE PUSH1 0x32 PUSH1 0x4 MSTORE PUSH1 0x24 PUSH1 0x0 REVERT JUMPDEST PUSH32 0x4E487B7100000000000000000000000000000000000000000000000000000000 PUSH1 0x0 MSTORE PUSH1 0x11 PUSH1 0x4 MSTORE PUSH1 0x24 PUSH1 0x0 REVERT JUMPDEST PUSH1 0x0 PUSH2 0xE2D DUP3 PUSH2 0x855 JUMP JUMPDEST SWAP2 POP PUSH2 0xE38 DUP4 PUSH2 0x855 JUMP JUMPDEST SWAP3 POP DUP3 DUP3 ADD SWAP1 POP DUP1 DUP3 GT ISZERO PUSH2 0xE50 JUMPI PUSH2 0xE4F PUSH2 0xDF3 JUMP JUMPDEST JUMPDEST SWAP3 SWAP2 POP POP JUMP JUMPDEST PUSH32 0x4E487B7100000000000000000000000000000000000000000000000000000000 PUSH1 0x0 MSTORE PUSH1 0x22 PUSH1 0x4 MSTORE PUSH1 0x24 PUSH1 0x0 REVERT JUMPDEST PUSH1 0x0 PUSH1 0x2 DUP3 DIV SWAP1 POP PUSH1 0x1 DUP3 AND DUP1 PUSH2 0xE9D JUMPI PUSH1 0x7F DUP3 AND SWAP2 POP JUMPDEST PUSH1 0x20 DUP3 LT DUP2 SUB PUSH2 0xEB0 JUMPI PUSH2 0xEAF PUSH2 0xE56 JUMP JUMPDEST JUMPDEST POP SWAP2 SWAP1 POP JUMP JUMPDEST PUSH1 0x0 DUP2 SWAP1 POP DUP2 PUSH1 0x0 MSTORE PUSH1 0x20 PUSH1 0x0 KECCAK256 SWAP1 POP SWAP2 SWAP1 POP JUMP JUMPDEST PUSH1 0x0 PUSH1 0x20 PUSH1 0x1F DUP4 ADD DIV SWAP1 POP SWAP2 SWAP1 POP JUMP JUMPDEST PUSH1 0x0 DUP3 DUP3 SHL SWAP1 POP SWAP3 SWAP2 POP POP JUMP JUMPDEST PUSH1 0x0 PUSH1 0x8 DUP4 MUL PUSH2 0xF18 PUSH32 0xFFFFFFFFFFFFFFFFFFFFFFFFFFFFFFFFFFFFFFFFFFFFFFFFFFFFFFFFFFFFFFFF DUP3 PUSH2 0xEDB JUMP JUMPDEST PUSH2 0xF22 DUP7 DUP4 PUSH2 0xEDB JUMP JUMPDEST SWAP6 POP DUP1 NOT DUP5 AND SWAP4 POP DUP1 DUP7 AND DUP5 OR SWAP3 POP POP POP SWAP4 SWAP3 POP POP POP JUMP JUMPDEST PUSH1 0x0 DUP2 SWAP1 POP SWAP2 SWAP1 POP JUMP JUMPDEST PUSH1 0x0 PUSH2 0xF5F PUSH2 0xF5A PUSH2 0xF55 DUP5 PUSH2 0x855 JUMP JUMPDEST PUSH2 0xF3A JUMP JUMPDEST PUSH2 0x855 JUMP JUMPDEST SWAP1 POP SWAP2 SWAP1 POP JUMP JUMPDEST PUSH1 0x0 DUP2 SWAP1 POP SWAP2 SWAP1 POP JUMP JUMPDEST PUSH2 0xF79 DUP4 PUSH2 0xF44 JUMP JUMPDEST PUSH2 0xF8D PUSH2 0xF85 DUP3 PUSH2 0xF66 JUMP JUMPDEST DUP5 DUP5 SLOAD PUSH2 0xEE8 JUMP JUMPDEST DUP3 SSTORE POP POP POP POP JUMP JUMPDEST PUSH1 0x0 SWAP1 JUMP JUMPDEST PUSH2 0xFA2 PUSH2 0xF95 JUMP JUMPDEST PUSH2 0xFAD DUP2 DUP5 DUP5 PUSH2 0xF70 JUMP JUMPDEST POP POP POP JUMP JUMPDEST JUMPDEST DUP2 DUP2 LT ISZERO PUSH2 0xFD1 JUMPI PUSH2 0xFC6 PUSH1 0x0 DUP3 PUSH2 0xF9A JUMP JUMPDEST PUSH1 0x1 DUP2 ADD SWAP1 POP PUSH2 0xFB3 JUMP JUMPDEST POP POP JUMP JUMPDEST PUSH1 0x1F DUP3 GT ISZERO PUSH2 0x1016 JUMPI PUSH2 0xFE7 DUP2 PUSH2 0xEB6 JUMP JUMPDEST PUSH2 0xFF0 DUP5 PUSH2 0xECB JUMP JUMPDEST DUP2 ADD PUSH1 0x20 DUP6 LT ISZERO PUSH2 0xFFF JUMPI DUP2 SWAP1 POP JUMPDEST PUSH2 0x1013 PUSH2 0x100B DUP6 PUSH2 0xECB JUMP JUMPDEST DUP4 ADD DUP3 PUSH2 0xFB2 JUMP JUMPDEST POP POP JUMPDEST POP POP POP JUMP JUMPDEST PUSH1 0x0 DUP3 DUP3 SHR SWAP1 POP SWAP3 SWAP2 POP POP JUMP JUMPDEST PUSH1 0x0 PUSH2 0x1039 PUSH1 0x0 NOT DUP5 PUSH1 0x8 MUL PUSH2 0x101B JUMP JUMPDEST NOT DUP1 DUP4 AND SWAP2 POP POP SWAP3 SWAP2 POP POP JUMP JUMPDEST PUSH1 0x0 PUSH2 0x1052 DUP4 DUP4 PUSH2 0x1028 JUMP JUMPDEST SWAP2 POP DUP3 PUSH1 0x2 MUL DUP3 OR SWAP1 POP SWAP3 SWAP2 POP POP JUMP JUMPDEST PUSH2 0x106B DUP3 PUSH2 0xAEE JUMP JUMPDEST PUSH8 0xFFFFFFFFFFFFFFFF DUP2 GT ISZERO PUSH2 0x1084 JUMPI PUSH2 0x1083 PUSH2 0x97A JUMP JUMPDEST JUMPDEST PUSH2 0x108E DUP3 SLOAD PUSH2 0xE85 JUMP JUMPDEST PUSH2 0x1099 DUP3 DUP3 DUP6 PUSH2 0xFD5 JUMP JUMPDEST PUSH1 0x0 PUSH1 0x20 SWAP1 POP PUSH1 0x1F DUP4 GT PUSH1 0x1 DUP2 EQ PUSH2 0x10CC JUMPI PUSH1 0x0 DUP5 ISZERO PUSH2 0x10BA JUMPI DUP3 DUP8 ADD MLOAD SWAP1 POP JUMPDEST PUSH2 0x10C4 DUP6 DUP3 PUSH2 0x1046 JUMP JUMPDEST DUP7 SSTORE POP PUSH2 0x112C JUMP JUMPDEST PUSH1 0x1F NOT DUP5 AND PUSH2 0x10DA DUP7 PUSH2 0xEB6 JUMP JUMPDEST PUSH1 0x0 JUMPDEST DUP3 DUP2 LT ISZERO PUSH2 0x1102 JUMPI DUP5 DUP10 ADD MLOAD DUP3 SSTORE PUSH1 0x1 DUP3 ADD SWAP2 POP PUSH1 0x20 DUP6 ADD SWAP5 POP PUSH1 0x20 DUP2 ADD SWAP1 POP PUSH2 0x10DD JUMP JUMPDEST DUP7 DUP4 LT ISZERO PUSH2 0x111F JUMPI DUP5 DUP10 ADD MLOAD PUSH2 0x111B PUSH1 0x1F DUP10 AND DUP3 PUSH2 0x1028 JUMP JUMPDEST DUP4 SSTORE POP JUMPDEST PUSH1 0x1 PUSH1 0x2 DUP9 MUL ADD DUP9 SSTORE POP POP POP JUMPDEST POP POP POP POP POP POP JUMP INVALID LOG2 PUSH5 0x6970667358 0x22 SLT KECCAK256 0x22 DUP3 0xD5 0x25 CREATE BASEFEE 0x2F 0x21 0xCA 0x5F PUSH22 0x86D91220BF80D9D00B6DEB72FCE25C63F00702597B64 PUSH20 0x6F6C634300081200330000000000000000000000 "
				},
				"gasEstimates": {
					"creation": {
						"codeDepositCost": "891600",
						"executionCost": "infinite",
						"totalCost": "infinite"
					},
					"external": {
						"create(string)": "infinite",
						"getTaskInfo(uint256)": "infinite",
						"kill()": "infinite",
						"owner()": "infinite",
						"tasksByOwner(address,uint256)": "infinite",
						"update(uint256,bool)": "29358"
					}
				},
				"methodIdentifiers": {
					"create(string)": "b6a46b3b",
					"getTaskInfo(uint256)": "d1a1b999",
					"kill()": "41c0e1b5",
					"owner()": "8da5cb5b",
					"tasksByOwner(address,uint256)": "d299370b",
					"update(uint256,bool)": "48284b62"
				}
			},
			"storageLayout": {
				"storage": [
					{
						"astId": 27,
						"contract": "09_TodoList.sol:TodoList",
						"label": "tasksByOwner",
						"offset": 0,
						"slot": "0",
						"type": "t_mapping(t_address,t_array(t_struct(Task)21_storage)dyn_storage)"
					}
				],
				"types": {
					"t_address": {
						"encoding": "inplace",
						"label": "address",
						"numberOfBytes": "20"
					},
					"t_array(t_struct(Task)21_storage)dyn_storage": {
						"base": "t_struct(Task)21_storage",
						"encoding": "dynamic_array",
						"label": "struct TodoList.Task[]",
						"numberOfBytes": "32"
					},
					"t_bool": {
						"encoding": "inplace",
						"label": "bool",
						"numberOfBytes": "1"
					},
					"t_mapping(t_address,t_array(t_struct(Task)21_storage)dyn_storage)": {
						"encoding": "mapping",
						"key": "t_address",
						"label": "mapping(address => struct TodoList.Task[])",
						"numberOfBytes": "32",
						"value": "t_array(t_struct(Task)21_storage)dyn_storage"
					},
					"t_string_storage": {
						"encoding": "bytes",
						"label": "string",
						"numberOfBytes": "32"
					},
					"t_struct(Task)21_storage": {
						"encoding": "inplace",
						"label": "struct TodoList.Task",
						"members": [
							{
								"astId": 14,
								"contract": "09_TodoList.sol:TodoList",
								"label": "name",
								"offset": 0,
								"slot": "0",
								"type": "t_string_storage"
							},
							{
								"astId": 16,
								"contract": "09_TodoList.sol:TodoList",
								"label": "completed",
								"offset": 0,
								"slot": "1",
								"type": "t_bool"
							},
							{
								"astId": 18,
								"contract": "09_TodoList.sol:TodoList",
								"label": "owner",
								"offset": 1,
								"slot": "1",
								"type": "t_address"
							},
							{
								"astId": 20,
								"contract": "09_TodoList.sol:TodoList",
								"label": "index",
								"offset": 0,
								"slot": "2",
								"type": "t_uint256"
							}
						],
						"numberOfBytes": "96"
					},
					"t_uint256": {
						"encoding": "inplace",
						"label": "uint256",
						"numberOfBytes": "32"
					}
				}
			},
			"userdoc": {
				"kind": "user",
				"methods": {},
				"version": 1
			}
		}
	}
}