{
	"02_Function_Modifier.sol": {
		"FunctionModifier": {
			"abi": [
				{
					"inputs": [
						{
							"internalType": "uint256",
							"name": "_num",
							"type": "uint256"
						}
					],
					"name": "boo",
					"outputs": [],
					"stateMutability": "nonpayable",
					"type": "function"
				},
				{
					"inputs": [],
					"name": "count",
					"outputs": [
						{
							"internalType": "uint256",
							"name": "",
							"type": "uint256"
						}
					],
					"stateMutability": "view",
					"type": "function"
				},
				{
					"inputs": [],
					"name": "dec",
					"outputs": [],
					"stateMutability": "nonpayable",
					"type": "function"
				},
				{
					"inputs": [],
					"name": "foo",
					"outputs": [],
					"stateMutability": "nonpayable",
					"type": "function"
				},
				{
					"inputs": [],
					"name": "inc",
					"outputs": [],
					"stateMutability": "nonpayable",
					"type": "function"
				},
				{
					"inputs": [
						{
							"internalType": "uint256",
							"name": "_x",
							"type": "uint256"
						}
					],
					"name": "incBy",
					"outputs": [],
					"stateMutability": "nonpayable",
					"type": "function"
				},
				{
					"inputs": [],
					"name": "paused",
					"outputs": [
						{
							"internalType": "bool",
							"name": "",
							"type": "bool"
						}
					],
					"stateMutability": "view",
					"type": "function"
				},
				{
					"inputs": [
						{
							"internalType": "bool",
							"name": "_paused",
							"type": "bool"
						}
					],
					"name": "setPause",
					"outputs": [],
					"stateMutability": "nonpayable",
					"type": "function"
				}
			],
			"devdoc": {
				"kind": "dev",
				"methods": {},
				"version": 1
			},
			"evm": {
				"assembly": "    /* \"02_Function_Modifier.sol\":62:1312  contract FunctionModifier {... */\n  mstore(0x40, 0x80)\n  callvalue\n  dup1\n  iszero\n  tag_1\n  jumpi\n  0x00\n  dup1\n  revert\ntag_1:\n  pop\n  dataSize(sub_0)\n  dup1\n  dataOffset(sub_0)\n  0x00\n  codecopy\n  0x00\n  return\nstop\n\nsub_0: assembly {\n        /* \"02_Function_Modifier.sol\":62:1312  contract FunctionModifier {... */\n      mstore(0x40, 0x80)\n      callvalue\n      dup1\n      iszero\n      tag_1\n      jumpi\n      0x00\n      dup1\n      revert\n    tag_1:\n      pop\n      jumpi(tag_2, lt(calldatasize, 0x04))\n      shr(0xe0, calldataload(0x00))\n      dup1\n      0xb3bcfa82\n      gt\n      tag_11\n      jumpi\n      dup1\n      0xb3bcfa82\n      eq\n      tag_7\n      jumpi\n      dup1\n      0xbedb86fb\n      eq\n      tag_8\n      jumpi\n      dup1\n      0xbfc2e3d5\n      eq\n      tag_9\n      jumpi\n      dup1\n      0xc2985578\n      eq\n      tag_10\n      jumpi\n      jump(tag_2)\n    tag_11:\n      dup1\n      0x06661abd\n      eq\n      tag_3\n      jumpi\n      dup1\n      0x371303c0\n      eq\n      tag_4\n      jumpi\n      dup1\n      0x5c975abb\n      eq\n      tag_5\n      jumpi\n      dup1\n      0x70119d06\n      eq\n      tag_6\n      jumpi\n    tag_2:\n      0x00\n      dup1\n      revert\n        /* \"02_Function_Modifier.sol\":120:137  uint public count */\n    tag_3:\n      tag_12\n      tag_13\n      jump\t// in\n    tag_12:\n      mload(0x40)\n      tag_14\n      swap2\n      swap1\n      tag_15\n      jump\t// in\n    tag_14:\n      mload(0x40)\n      dup1\n      swap2\n      sub\n      swap1\n      return\n        /* \"02_Function_Modifier.sol\":414:487  function inc() external whenContractNotPaused{... */\n    tag_4:\n      tag_16\n      tag_17\n      jump\t// in\n    tag_16:\n      stop\n        /* \"02_Function_Modifier.sol\":95:113  bool public paused */\n    tag_5:\n      tag_18\n      tag_19\n      jump\t// in\n    tag_18:\n      mload(0x40)\n      tag_20\n      swap2\n      swap1\n      tag_21\n      jump\t// in\n    tag_20:\n      mload(0x40)\n      dup1\n      swap2\n      sub\n      swap1\n      return\n        /* \"02_Function_Modifier.sol\":714:806  function incBy(uint _x) external whenContractNotPaused cap(_x){... */\n    tag_6:\n      tag_22\n      0x04\n      dup1\n      calldatasize\n      sub\n      dup2\n      add\n      swap1\n      tag_23\n      swap2\n      swap1\n      tag_24\n      jump\t// in\n    tag_23:\n      tag_25\n      jump\t// in\n    tag_22:\n      stop\n        /* \"02_Function_Modifier.sol\":495:569  function dec() whenContractNotPaused external {... */\n    tag_7:\n      tag_26\n      tag_27\n      jump\t// in\n    tag_26:\n      stop\n        /* \"02_Function_Modifier.sol\":146:222  function setPause(bool _paused) external {... */\n    tag_8:\n      tag_28\n      0x04\n      dup1\n      calldatasize\n      sub\n      dup2\n      add\n      swap1\n      tag_29\n      swap2\n      swap1\n      tag_30\n      jump\t// in\n    tag_29:\n      tag_31\n      jump\t// in\n    tag_28:\n      stop\n        /* \"02_Function_Modifier.sol\":1212:1309  function boo(uint _num) external lastExcute {... */\n    tag_9:\n      tag_32\n      0x04\n      dup1\n      calldatasize\n      sub\n      dup2\n      add\n      swap1\n      tag_33\n      swap2\n      swap1\n      tag_24\n      jump\t// in\n    tag_33:\n      tag_34\n      jump\t// in\n    tag_32:\n      stop\n        /* \"02_Function_Modifier.sol\":1040:1102  function foo() external sandwich {... */\n    tag_10:\n      tag_35\n      tag_36\n      jump\t// in\n    tag_35:\n      stop\n        /* \"02_Function_Modifier.sol\":120:137  uint public count */\n    tag_13:\n      sload(0x01)\n      dup2\n      jump\t// out\n        /* \"02_Function_Modifier.sol\":414:487  function inc() external whenContractNotPaused{... */\n    tag_17:\n        /* \"02_Function_Modifier.sol\":357:363  paused */\n      0x00\n      dup1\n      sload\n      swap1\n      0x0100\n      exp\n      swap1\n      div\n      0xff\n      and\n        /* \"02_Function_Modifier.sol\":356:363  !paused */\n      iszero\n        /* \"02_Function_Modifier.sol\":348:386  require(!paused, \"contract is paused\") */\n      tag_38\n      jumpi\n      mload(0x40)\n      0x08c379a000000000000000000000000000000000000000000000000000000000\n      dup2\n      mstore\n      0x04\n      add\n      tag_39\n      swap1\n      tag_40\n      jump\t// in\n    tag_39:\n      mload(0x40)\n      dup1\n      swap2\n      sub\n      swap1\n      revert\n    tag_38:\n        /* \"02_Function_Modifier.sol\":478:479  1 */\n      0x01\n        /* \"02_Function_Modifier.sol\":470:475  count */\n      dup1\n      0x00\n        /* \"02_Function_Modifier.sol\":470:479  count +=1 */\n      dup3\n      dup3\n      sload\n      tag_42\n      swap2\n      swap1\n      tag_43\n      jump\t// in\n    tag_42:\n      swap3\n      pop\n      pop\n      dup2\n      swap1\n      sstore\n      pop\n        /* \"02_Function_Modifier.sol\":414:487  function inc() external whenContractNotPaused{... */\n      jump\t// out\n        /* \"02_Function_Modifier.sol\":95:113  bool public paused */\n    tag_19:\n      0x00\n      dup1\n      sload\n      swap1\n      0x0100\n      exp\n      swap1\n      div\n      0xff\n      and\n      dup2\n      jump\t// out\n        /* \"02_Function_Modifier.sol\":714:806  function incBy(uint _x) external whenContractNotPaused cap(_x){... */\n    tag_25:\n        /* \"02_Function_Modifier.sol\":357:363  paused */\n      0x00\n      dup1\n      sload\n      swap1\n      0x0100\n      exp\n      swap1\n      div\n      0xff\n      and\n        /* \"02_Function_Modifier.sol\":356:363  !paused */\n      iszero\n        /* \"02_Function_Modifier.sol\":348:386  require(!paused, \"contract is paused\") */\n      tag_45\n      jumpi\n      mload(0x40)\n      0x08c379a000000000000000000000000000000000000000000000000000000000\n      dup2\n      mstore\n      0x04\n      add\n      tag_46\n      swap1\n      tag_40\n      jump\t// in\n    tag_46:\n      mload(0x40)\n      dup1\n      swap2\n      sub\n      swap1\n      revert\n    tag_45:\n        /* \"02_Function_Modifier.sol\":773:775  _x */\n      dup1\n        /* \"02_Function_Modifier.sol\":657:660  100 */\n      0x64\n        /* \"02_Function_Modifier.sol\":650:654  _num */\n      dup2\n        /* \"02_Function_Modifier.sol\":650:660  _num < 100 */\n      lt\n        /* \"02_Function_Modifier.sol\":642:686  require(_num < 100, \"input arg must >= 100\") */\n      tag_48\n      jumpi\n      mload(0x40)\n      0x08c379a000000000000000000000000000000000000000000000000000000000\n      dup2\n      mstore\n      0x04\n      add\n      tag_49\n      swap1\n      tag_50\n      jump\t// in\n    tag_49:\n      mload(0x40)\n      dup1\n      swap2\n      sub\n      swap1\n      revert\n    tag_48:\n        /* \"02_Function_Modifier.sol\":796:798  _x */\n      dup2\n        /* \"02_Function_Modifier.sol\":787:792  count */\n      0x01\n      0x00\n        /* \"02_Function_Modifier.sol\":787:798  count += _x */\n      dup3\n      dup3\n      sload\n      tag_52\n      swap2\n      swap1\n      tag_43\n      jump\t// in\n    tag_52:\n      swap3\n      pop\n      pop\n      dup2\n      swap1\n      sstore\n      pop\n        /* \"02_Function_Modifier.sol\":397:398  _ */\n      pop\n        /* \"02_Function_Modifier.sol\":714:806  function incBy(uint _x) external whenContractNotPaused cap(_x){... */\n      pop\n      jump\t// out\n        /* \"02_Function_Modifier.sol\":495:569  function dec() whenContractNotPaused external {... */\n    tag_27:\n        /* \"02_Function_Modifier.sol\":357:363  paused */\n      0x00\n      dup1\n      sload\n      swap1\n      0x0100\n      exp\n      swap1\n      div\n      0xff\n      and\n        /* \"02_Function_Modifier.sol\":356:363  !paused */\n      iszero\n        /* \"02_Function_Modifier.sol\":348:386  require(!paused, \"contract is paused\") */\n      tag_54\n      jumpi\n      mload(0x40)\n      0x08c379a000000000000000000000000000000000000000000000000000000000\n      dup2\n      mstore\n      0x04\n      add\n      tag_55\n      swap1\n      tag_40\n      jump\t// in\n    tag_55:\n      mload(0x40)\n      dup1\n      swap2\n      sub\n      swap1\n      revert\n    tag_54:\n        /* \"02_Function_Modifier.sol\":560:561  1 */\n      0x01\n        /* \"02_Function_Modifier.sol\":552:557  count */\n      dup1\n      0x00\n        /* \"02_Function_Modifier.sol\":552:561  count -=1 */\n      dup3\n      dup3\n      sload\n      tag_57\n      swap2\n      swap1\n      tag_58\n      jump\t// in\n    tag_57:\n      swap3\n      pop\n      pop\n      dup2\n      swap1\n      sstore\n      pop\n        /* \"02_Function_Modifier.sol\":495:569  function dec() whenContractNotPaused external {... */\n      jump\t// out\n        /* \"02_Function_Modifier.sol\":146:222  function setPause(bool _paused) external {... */\n    tag_31:\n        /* \"02_Function_Modifier.sol\":207:214  _paused */\n      dup1\n        /* \"02_Function_Modifier.sol\":198:204  paused */\n      0x00\n      dup1\n        /* \"02_Function_Modifier.sol\":198:214  paused = _paused */\n      0x0100\n      exp\n      dup2\n      sload\n      dup2\n      0xff\n      mul\n      not\n      and\n      swap1\n      dup4\n      iszero\n      iszero\n      mul\n      or\n      swap1\n      sstore\n      pop\n        /* \"02_Function_Modifier.sol\":146:222  function setPause(bool _paused) external {... */\n      pop\n      jump\t// out\n        /* \"02_Function_Modifier.sol\":1212:1309  function boo(uint _num) external lastExcute {... */\n    tag_34:\n        /* \"02_Function_Modifier.sol\":1276:1277  8 */\n      0x08\n        /* \"02_Function_Modifier.sol\":1267:1272  count */\n      0x01\n      0x00\n        /* \"02_Function_Modifier.sol\":1267:1277  count += 8 */\n      dup3\n      dup3\n      sload\n      tag_62\n      swap2\n      swap1\n      tag_43\n      jump\t// in\n    tag_62:\n      swap3\n      pop\n      pop\n      dup2\n      swap1\n      sstore\n      pop\n        /* \"02_Function_Modifier.sol\":1297:1301  _num */\n      dup1\n        /* \"02_Function_Modifier.sol\":1288:1293  count */\n      0x01\n      0x00\n        /* \"02_Function_Modifier.sol\":1288:1301  count -= _num */\n      dup3\n      dup3\n      sload\n      tag_63\n      swap2\n      swap1\n      tag_58\n      jump\t// in\n    tag_63:\n      swap3\n      pop\n      pop\n      dup2\n      swap1\n      sstore\n      pop\n        /* \"02_Function_Modifier.sol\":1173:1174  0 */\n      0x00\n        /* \"02_Function_Modifier.sol\":1165:1170  count */\n      sload(0x01)\n        /* \"02_Function_Modifier.sol\":1165:1174  count > 0 */\n      gt\n        /* \"02_Function_Modifier.sol\":1157:1196  require(count > 0, \"sorry, check fail\") */\n      tag_64\n      jumpi\n      mload(0x40)\n      0x08c379a000000000000000000000000000000000000000000000000000000000\n      dup2\n      mstore\n      0x04\n      add\n      tag_65\n      swap1\n      tag_66\n      jump\t// in\n    tag_65:\n      mload(0x40)\n      dup1\n      swap2\n      sub\n      swap1\n      revert\n    tag_64:\n        /* \"02_Function_Modifier.sol\":1212:1309  function boo(uint _num) external lastExcute {... */\n      pop\n      jump\t// out\n        /* \"02_Function_Modifier.sol\":1040:1102  function foo() external sandwich {... */\n    tag_36:\n        /* \"02_Function_Modifier.sol\":989:991  10 */\n      0x0a\n        /* \"02_Function_Modifier.sol\":980:985  count */\n      0x01\n      0x00\n        /* \"02_Function_Modifier.sol\":980:991  count += 10 */\n      dup3\n      dup3\n      sload\n      tag_68\n      swap2\n      swap1\n      tag_43\n      jump\t// in\n    tag_68:\n      swap3\n      pop\n      pop\n      dup2\n      swap1\n      sstore\n      pop\n        /* \"02_Function_Modifier.sol\":1093:1094  1 */\n      0x01\n        /* \"02_Function_Modifier.sol\":1084:1089  count */\n      dup1\n      0x00\n        /* \"02_Function_Modifier.sol\":1084:1094  count += 1 */\n      dup3\n      dup3\n      sload\n      tag_70\n      swap2\n      swap1\n      tag_43\n      jump\t// in\n    tag_70:\n      swap3\n      pop\n      pop\n      dup2\n      swap1\n      sstore\n      pop\n        /* \"02_Function_Modifier.sol\":1023:1024  2 */\n      0x02\n        /* \"02_Function_Modifier.sol\":1014:1019  count */\n      0x01\n      0x00\n        /* \"02_Function_Modifier.sol\":1014:1024  count *= 2 */\n      dup3\n      dup3\n      sload\n      tag_71\n      swap2\n      swap1\n      tag_72\n      jump\t// in\n    tag_71:\n      swap3\n      pop\n      pop\n      dup2\n      swap1\n      sstore\n      pop\n        /* \"02_Function_Modifier.sol\":1040:1102  function foo() external sandwich {... */\n      jump\t// out\n        /* \"#utility.yul\":7:84   */\n    tag_73:\n        /* \"#utility.yul\":44:51   */\n      0x00\n        /* \"#utility.yul\":73:78   */\n      dup2\n        /* \"#utility.yul\":62:78   */\n      swap1\n      pop\n        /* \"#utility.yul\":7:84   */\n      swap2\n      swap1\n      pop\n      jump\t// out\n        /* \"#utility.yul\":90:208   */\n    tag_74:\n        /* \"#utility.yul\":177:201   */\n      tag_95\n        /* \"#utility.yul\":195:200   */\n      dup2\n        /* \"#utility.yul\":177:201   */\n      tag_73\n      jump\t// in\n    tag_95:\n        /* \"#utility.yul\":172:175   */\n      dup3\n        /* \"#utility.yul\":165:202   */\n      mstore\n        /* \"#utility.yul\":90:208   */\n      pop\n      pop\n      jump\t// out\n        /* \"#utility.yul\":214:436   */\n    tag_15:\n        /* \"#utility.yul\":307:311   */\n      0x00\n        /* \"#utility.yul\":345:347   */\n      0x20\n        /* \"#utility.yul\":334:343   */\n      dup3\n        /* \"#utility.yul\":330:348   */\n      add\n        /* \"#utility.yul\":322:348   */\n      swap1\n      pop\n        /* \"#utility.yul\":358:429   */\n      tag_97\n        /* \"#utility.yul\":426:427   */\n      0x00\n        /* \"#utility.yul\":415:424   */\n      dup4\n        /* \"#utility.yul\":411:428   */\n      add\n        /* \"#utility.yul\":402:408   */\n      dup5\n        /* \"#utility.yul\":358:429   */\n      tag_74\n      jump\t// in\n    tag_97:\n        /* \"#utility.yul\":214:436   */\n      swap3\n      swap2\n      pop\n      pop\n      jump\t// out\n        /* \"#utility.yul\":442:532   */\n    tag_75:\n        /* \"#utility.yul\":476:483   */\n      0x00\n        /* \"#utility.yul\":519:524   */\n      dup2\n        /* \"#utility.yul\":512:525   */\n      iszero\n        /* \"#utility.yul\":505:526   */\n      iszero\n        /* \"#utility.yul\":494:526   */\n      swap1\n      pop\n        /* \"#utility.yul\":442:532   */\n      swap2\n      swap1\n      pop\n      jump\t// out\n        /* \"#utility.yul\":538:647   */\n    tag_76:\n        /* \"#utility.yul\":619:640   */\n      tag_100\n        /* \"#utility.yul\":634:639   */\n      dup2\n        /* \"#utility.yul\":619:640   */\n      tag_75\n      jump\t// in\n    tag_100:\n        /* \"#utility.yul\":614:617   */\n      dup3\n        /* \"#utility.yul\":607:641   */\n      mstore\n        /* \"#utility.yul\":538:647   */\n      pop\n      pop\n      jump\t// out\n        /* \"#utility.yul\":653:863   */\n    tag_21:\n        /* \"#utility.yul\":740:744   */\n      0x00\n        /* \"#utility.yul\":778:780   */\n      0x20\n        /* \"#utility.yul\":767:776   */\n      dup3\n        /* \"#utility.yul\":763:781   */\n      add\n        /* \"#utility.yul\":755:781   */\n      swap1\n      pop\n        /* \"#utility.yul\":791:856   */\n      tag_102\n        /* \"#utility.yul\":853:854   */\n      0x00\n        /* \"#utility.yul\":842:851   */\n      dup4\n        /* \"#utility.yul\":838:855   */\n      add\n        /* \"#utility.yul\":829:835   */\n      dup5\n        /* \"#utility.yul\":791:856   */\n      tag_76\n      jump\t// in\n    tag_102:\n        /* \"#utility.yul\":653:863   */\n      swap3\n      swap2\n      pop\n      pop\n      jump\t// out\n        /* \"#utility.yul\":950:1067   */\n    tag_78:\n        /* \"#utility.yul\":1059:1060   */\n      0x00\n        /* \"#utility.yul\":1056:1057   */\n      dup1\n        /* \"#utility.yul\":1049:1061   */\n      revert\n        /* \"#utility.yul\":1196:1318   */\n    tag_80:\n        /* \"#utility.yul\":1269:1293   */\n      tag_107\n        /* \"#utility.yul\":1287:1292   */\n      dup2\n        /* \"#utility.yul\":1269:1293   */\n      tag_73\n      jump\t// in\n    tag_107:\n        /* \"#utility.yul\":1262:1267   */\n      dup2\n        /* \"#utility.yul\":1259:1294   */\n      eq\n        /* \"#utility.yul\":1249:1312   */\n      tag_108\n      jumpi\n        /* \"#utility.yul\":1308:1309   */\n      0x00\n        /* \"#utility.yul\":1305:1306   */\n      dup1\n        /* \"#utility.yul\":1298:1310   */\n      revert\n        /* \"#utility.yul\":1249:1312   */\n    tag_108:\n        /* \"#utility.yul\":1196:1318   */\n      pop\n      jump\t// out\n        /* \"#utility.yul\":1324:1463   */\n    tag_81:\n        /* \"#utility.yul\":1370:1375   */\n      0x00\n        /* \"#utility.yul\":1408:1414   */\n      dup2\n        /* \"#utility.yul\":1395:1415   */\n      calldataload\n        /* \"#utility.yul\":1386:1415   */\n      swap1\n      pop\n        /* \"#utility.yul\":1424:1457   */\n      tag_110\n        /* \"#utility.yul\":1451:1456   */\n      dup2\n        /* \"#utility.yul\":1424:1457   */\n      tag_80\n      jump\t// in\n    tag_110:\n        /* \"#utility.yul\":1324:1463   */\n      swap3\n      swap2\n      pop\n      pop\n      jump\t// out\n        /* \"#utility.yul\":1469:1798   */\n    tag_24:\n        /* \"#utility.yul\":1528:1534   */\n      0x00\n        /* \"#utility.yul\":1577:1579   */\n      0x20\n        /* \"#utility.yul\":1565:1574   */\n      dup3\n        /* \"#utility.yul\":1556:1563   */\n      dup5\n        /* \"#utility.yul\":1552:1575   */\n      sub\n        /* \"#utility.yul\":1548:1580   */\n      slt\n        /* \"#utility.yul\":1545:1664   */\n      iszero\n      tag_112\n      jumpi\n        /* \"#utility.yul\":1583:1662   */\n      tag_113\n      tag_78\n      jump\t// in\n    tag_113:\n        /* \"#utility.yul\":1545:1664   */\n    tag_112:\n        /* \"#utility.yul\":1703:1704   */\n      0x00\n        /* \"#utility.yul\":1728:1781   */\n      tag_114\n        /* \"#utility.yul\":1773:1780   */\n      dup5\n        /* \"#utility.yul\":1764:1770   */\n      dup3\n        /* \"#utility.yul\":1753:1762   */\n      dup6\n        /* \"#utility.yul\":1749:1771   */\n      add\n        /* \"#utility.yul\":1728:1781   */\n      tag_81\n      jump\t// in\n    tag_114:\n        /* \"#utility.yul\":1718:1781   */\n      swap2\n      pop\n        /* \"#utility.yul\":1674:1791   */\n      pop\n        /* \"#utility.yul\":1469:1798   */\n      swap3\n      swap2\n      pop\n      pop\n      jump\t// out\n        /* \"#utility.yul\":1804:1920   */\n    tag_82:\n        /* \"#utility.yul\":1874:1895   */\n      tag_116\n        /* \"#utility.yul\":1889:1894   */\n      dup2\n        /* \"#utility.yul\":1874:1895   */\n      tag_75\n      jump\t// in\n    tag_116:\n        /* \"#utility.yul\":1867:1872   */\n      dup2\n        /* \"#utility.yul\":1864:1896   */\n      eq\n        /* \"#utility.yul\":1854:1914   */\n      tag_117\n      jumpi\n        /* \"#utility.yul\":1910:1911   */\n      0x00\n        /* \"#utility.yul\":1907:1908   */\n      dup1\n        /* \"#utility.yul\":1900:1912   */\n      revert\n        /* \"#utility.yul\":1854:1914   */\n    tag_117:\n        /* \"#utility.yul\":1804:1920   */\n      pop\n      jump\t// out\n        /* \"#utility.yul\":1926:2059   */\n    tag_83:\n        /* \"#utility.yul\":1969:1974   */\n      0x00\n        /* \"#utility.yul\":2007:2013   */\n      dup2\n        /* \"#utility.yul\":1994:2014   */\n      calldataload\n        /* \"#utility.yul\":1985:2014   */\n      swap1\n      pop\n        /* \"#utility.yul\":2023:2053   */\n      tag_119\n        /* \"#utility.yul\":2047:2052   */\n      dup2\n        /* \"#utility.yul\":2023:2053   */\n      tag_82\n      jump\t// in\n    tag_119:\n        /* \"#utility.yul\":1926:2059   */\n      swap3\n      swap2\n      pop\n      pop\n      jump\t// out\n        /* \"#utility.yul\":2065:2388   */\n    tag_30:\n        /* \"#utility.yul\":2121:2127   */\n      0x00\n        /* \"#utility.yul\":2170:2172   */\n      0x20\n        /* \"#utility.yul\":2158:2167   */\n      dup3\n        /* \"#utility.yul\":2149:2156   */\n      dup5\n        /* \"#utility.yul\":2145:2168   */\n      sub\n        /* \"#utility.yul\":2141:2173   */\n      slt\n        /* \"#utility.yul\":2138:2257   */\n      iszero\n      tag_121\n      jumpi\n        /* \"#utility.yul\":2176:2255   */\n      tag_122\n      tag_78\n      jump\t// in\n    tag_122:\n        /* \"#utility.yul\":2138:2257   */\n    tag_121:\n        /* \"#utility.yul\":2296:2297   */\n      0x00\n        /* \"#utility.yul\":2321:2371   */\n      tag_123\n        /* \"#utility.yul\":2363:2370   */\n      dup5\n        /* \"#utility.yul\":2354:2360   */\n      dup3\n        /* \"#utility.yul\":2343:2352   */\n      dup6\n        /* \"#utility.yul\":2339:2361   */\n      add\n        /* \"#utility.yul\":2321:2371   */\n      tag_83\n      jump\t// in\n    tag_123:\n        /* \"#utility.yul\":2311:2371   */\n      swap2\n      pop\n        /* \"#utility.yul\":2267:2381   */\n      pop\n        /* \"#utility.yul\":2065:2388   */\n      swap3\n      swap2\n      pop\n      pop\n      jump\t// out\n        /* \"#utility.yul\":2394:2563   */\n    tag_84:\n        /* \"#utility.yul\":2478:2489   */\n      0x00\n        /* \"#utility.yul\":2512:2518   */\n      dup3\n        /* \"#utility.yul\":2507:2510   */\n      dup3\n        /* \"#utility.yul\":2500:2519   */\n      mstore\n        /* \"#utility.yul\":2552:2556   */\n      0x20\n        /* \"#utility.yul\":2547:2550   */\n      dup3\n        /* \"#utility.yul\":2543:2557   */\n      add\n        /* \"#utility.yul\":2528:2557   */\n      swap1\n      pop\n        /* \"#utility.yul\":2394:2563   */\n      swap3\n      swap2\n      pop\n      pop\n      jump\t// out\n        /* \"#utility.yul\":2569:2737   */\n    tag_85:\n        /* \"#utility.yul\":2709:2729   */\n      0x636f6e7472616374206973207061757365640000000000000000000000000000\n        /* \"#utility.yul\":2705:2706   */\n      0x00\n        /* \"#utility.yul\":2697:2703   */\n      dup3\n        /* \"#utility.yul\":2693:2707   */\n      add\n        /* \"#utility.yul\":2686:2730   */\n      mstore\n        /* \"#utility.yul\":2569:2737   */\n      pop\n      jump\t// out\n        /* \"#utility.yul\":2743:3109   */\n    tag_86:\n        /* \"#utility.yul\":2885:2888   */\n      0x00\n        /* \"#utility.yul\":2906:2973   */\n      tag_127\n        /* \"#utility.yul\":2970:2972   */\n      0x12\n        /* \"#utility.yul\":2965:2968   */\n      dup4\n        /* \"#utility.yul\":2906:2973   */\n      tag_84\n      jump\t// in\n    tag_127:\n        /* \"#utility.yul\":2899:2973   */\n      swap2\n      pop\n        /* \"#utility.yul\":2982:3075   */\n      tag_128\n        /* \"#utility.yul\":3071:3074   */\n      dup3\n        /* \"#utility.yul\":2982:3075   */\n      tag_85\n      jump\t// in\n    tag_128:\n        /* \"#utility.yul\":3100:3102   */\n      0x20\n        /* \"#utility.yul\":3095:3098   */\n      dup3\n        /* \"#utility.yul\":3091:3103   */\n      add\n        /* \"#utility.yul\":3084:3103   */\n      swap1\n      pop\n        /* \"#utility.yul\":2743:3109   */\n      swap2\n      swap1\n      pop\n      jump\t// out\n        /* \"#utility.yul\":3115:3534   */\n    tag_40:\n        /* \"#utility.yul\":3281:3285   */\n      0x00\n        /* \"#utility.yul\":3319:3321   */\n      0x20\n        /* \"#utility.yul\":3308:3317   */\n      dup3\n        /* \"#utility.yul\":3304:3322   */\n      add\n        /* \"#utility.yul\":3296:3322   */\n      swap1\n      pop\n        /* \"#utility.yul\":3368:3377   */\n      dup2\n        /* \"#utility.yul\":3362:3366   */\n      dup2\n        /* \"#utility.yul\":3358:3378   */\n      sub\n        /* \"#utility.yul\":3354:3355   */\n      0x00\n        /* \"#utility.yul\":3343:3352   */\n      dup4\n        /* \"#utility.yul\":3339:3356   */\n      add\n        /* \"#utility.yul\":3332:3379   */\n      mstore\n        /* \"#utility.yul\":3396:3527   */\n      tag_130\n        /* \"#utility.yul\":3522:3526   */\n      dup2\n        /* \"#utility.yul\":3396:3527   */\n      tag_86\n      jump\t// in\n    tag_130:\n        /* \"#utility.yul\":3388:3527   */\n      swap1\n      pop\n        /* \"#utility.yul\":3115:3534   */\n      swap2\n      swap1\n      pop\n      jump\t// out\n        /* \"#utility.yul\":3540:3720   */\n    tag_87:\n        /* \"#utility.yul\":3588:3665   */\n      0x4e487b7100000000000000000000000000000000000000000000000000000000\n        /* \"#utility.yul\":3585:3586   */\n      0x00\n        /* \"#utility.yul\":3578:3666   */\n      mstore\n        /* \"#utility.yul\":3685:3689   */\n      0x11\n        /* \"#utility.yul\":3682:3683   */\n      0x04\n        /* \"#utility.yul\":3675:3690   */\n      mstore\n        /* \"#utility.yul\":3709:3713   */\n      0x24\n        /* \"#utility.yul\":3706:3707   */\n      0x00\n        /* \"#utility.yul\":3699:3714   */\n      revert\n        /* \"#utility.yul\":3726:3917   */\n    tag_43:\n        /* \"#utility.yul\":3766:3769   */\n      0x00\n        /* \"#utility.yul\":3785:3805   */\n      tag_133\n        /* \"#utility.yul\":3803:3804   */\n      dup3\n        /* \"#utility.yul\":3785:3805   */\n      tag_73\n      jump\t// in\n    tag_133:\n        /* \"#utility.yul\":3780:3805   */\n      swap2\n      pop\n        /* \"#utility.yul\":3819:3839   */\n      tag_134\n        /* \"#utility.yul\":3837:3838   */\n      dup4\n        /* \"#utility.yul\":3819:3839   */\n      tag_73\n      jump\t// in\n    tag_134:\n        /* \"#utility.yul\":3814:3839   */\n      swap3\n      pop\n        /* \"#utility.yul\":3862:3863   */\n      dup3\n        /* \"#utility.yul\":3859:3860   */\n      dup3\n        /* \"#utility.yul\":3855:3864   */\n      add\n        /* \"#utility.yul\":3848:3864   */\n      swap1\n      pop\n        /* \"#utility.yul\":3883:3886   */\n      dup1\n        /* \"#utility.yul\":3880:3881   */\n      dup3\n        /* \"#utility.yul\":3877:3887   */\n      gt\n        /* \"#utility.yul\":3874:3910   */\n      iszero\n      tag_135\n      jumpi\n        /* \"#utility.yul\":3890:3908   */\n      tag_136\n      tag_87\n      jump\t// in\n    tag_136:\n        /* \"#utility.yul\":3874:3910   */\n    tag_135:\n        /* \"#utility.yul\":3726:3917   */\n      swap3\n      swap2\n      pop\n      pop\n      jump\t// out\n        /* \"#utility.yul\":3923:4094   */\n    tag_88:\n        /* \"#utility.yul\":4063:4086   */\n      0x696e70757420617267206d757374203e3d203130300000000000000000000000\n        /* \"#utility.yul\":4059:4060   */\n      0x00\n        /* \"#utility.yul\":4051:4057   */\n      dup3\n        /* \"#utility.yul\":4047:4061   */\n      add\n        /* \"#utility.yul\":4040:4087   */\n      mstore\n        /* \"#utility.yul\":3923:4094   */\n      pop\n      jump\t// out\n        /* \"#utility.yul\":4100:4466   */\n    tag_89:\n        /* \"#utility.yul\":4242:4245   */\n      0x00\n        /* \"#utility.yul\":4263:4330   */\n      tag_139\n        /* \"#utility.yul\":4327:4329   */\n      0x15\n        /* \"#utility.yul\":4322:4325   */\n      dup4\n        /* \"#utility.yul\":4263:4330   */\n      tag_84\n      jump\t// in\n    tag_139:\n        /* \"#utility.yul\":4256:4330   */\n      swap2\n      pop\n        /* \"#utility.yul\":4339:4432   */\n      tag_140\n        /* \"#utility.yul\":4428:4431   */\n      dup3\n        /* \"#utility.yul\":4339:4432   */\n      tag_88\n      jump\t// in\n    tag_140:\n        /* \"#utility.yul\":4457:4459   */\n      0x20\n        /* \"#utility.yul\":4452:4455   */\n      dup3\n        /* \"#utility.yul\":4448:4460   */\n      add\n        /* \"#utility.yul\":4441:4460   */\n      swap1\n      pop\n        /* \"#utility.yul\":4100:4466   */\n      swap2\n      swap1\n      pop\n      jump\t// out\n        /* \"#utility.yul\":4472:4891   */\n    tag_50:\n        /* \"#utility.yul\":4638:4642   */\n      0x00\n        /* \"#utility.yul\":4676:4678   */\n      0x20\n        /* \"#utility.yul\":4665:4674   */\n      dup3\n        /* \"#utility.yul\":4661:4679   */\n      add\n        /* \"#utility.yul\":4653:4679   */\n      swap1\n      pop\n        /* \"#utility.yul\":4725:4734   */\n      dup2\n        /* \"#utility.yul\":4719:4723   */\n      dup2\n        /* \"#utility.yul\":4715:4735   */\n      sub\n        /* \"#utility.yul\":4711:4712   */\n      0x00\n        /* \"#utility.yul\":4700:4709   */\n      dup4\n        /* \"#utility.yul\":4696:4713   */\n      add\n        /* \"#utility.yul\":4689:4736   */\n      mstore\n        /* \"#utility.yul\":4753:4884   */\n      tag_142\n        /* \"#utility.yul\":4879:4883   */\n      dup2\n        /* \"#utility.yul\":4753:4884   */\n      tag_89\n      jump\t// in\n    tag_142:\n        /* \"#utility.yul\":4745:4884   */\n      swap1\n      pop\n        /* \"#utility.yul\":4472:4891   */\n      swap2\n      swap1\n      pop\n      jump\t// out\n        /* \"#utility.yul\":4897:5091   */\n    tag_58:\n        /* \"#utility.yul\":4937:4941   */\n      0x00\n        /* \"#utility.yul\":4957:4977   */\n      tag_144\n        /* \"#utility.yul\":4975:4976   */\n      dup3\n        /* \"#utility.yul\":4957:4977   */\n      tag_73\n      jump\t// in\n    tag_144:\n        /* \"#utility.yul\":4952:4977   */\n      swap2\n      pop\n        /* \"#utility.yul\":4991:5011   */\n      tag_145\n        /* \"#utility.yul\":5009:5010   */\n      dup4\n        /* \"#utility.yul\":4991:5011   */\n      tag_73\n      jump\t// in\n    tag_145:\n        /* \"#utility.yul\":4986:5011   */\n      swap3\n      pop\n        /* \"#utility.yul\":5035:5036   */\n      dup3\n        /* \"#utility.yul\":5032:5033   */\n      dup3\n        /* \"#utility.yul\":5028:5037   */\n      sub\n        /* \"#utility.yul\":5020:5037   */\n      swap1\n      pop\n        /* \"#utility.yul\":5059:5060   */\n      dup2\n        /* \"#utility.yul\":5053:5057   */\n      dup2\n        /* \"#utility.yul\":5050:5061   */\n      gt\n        /* \"#utility.yul\":5047:5084   */\n      iszero\n      tag_146\n      jumpi\n        /* \"#utility.yul\":5064:5082   */\n      tag_147\n      tag_87\n      jump\t// in\n    tag_147:\n        /* \"#utility.yul\":5047:5084   */\n    tag_146:\n        /* \"#utility.yul\":4897:5091   */\n      swap3\n      swap2\n      pop\n      pop\n      jump\t// out\n        /* \"#utility.yul\":5097:5264   */\n    tag_90:\n        /* \"#utility.yul\":5237:5256   */\n      0x736f7272792c20636865636b206661696c000000000000000000000000000000\n        /* \"#utility.yul\":5233:5234   */\n      0x00\n        /* \"#utility.yul\":5225:5231   */\n      dup3\n        /* \"#utility.yul\":5221:5235   */\n      add\n        /* \"#utility.yul\":5214:5257   */\n      mstore\n        /* \"#utility.yul\":5097:5264   */\n      pop\n      jump\t// out\n        /* \"#utility.yul\":5270:5636   */\n    tag_91:\n        /* \"#utility.yul\":5412:5415   */\n      0x00\n        /* \"#utility.yul\":5433:5500   */\n      tag_150\n        /* \"#utility.yul\":5497:5499   */\n      0x11\n        /* \"#utility.yul\":5492:5495   */\n      dup4\n        /* \"#utility.yul\":5433:5500   */\n      tag_84\n      jump\t// in\n    tag_150:\n        /* \"#utility.yul\":5426:5500   */\n      swap2\n      pop\n        /* \"#utility.yul\":5509:5602   */\n      tag_151\n        /* \"#utility.yul\":5598:5601   */\n      dup3\n        /* \"#utility.yul\":5509:5602   */\n      tag_90\n      jump\t// in\n    tag_151:\n        /* \"#utility.yul\":5627:5629   */\n      0x20\n        /* \"#utility.yul\":5622:5625   */\n      dup3\n        /* \"#utility.yul\":5618:5630   */\n      add\n        /* \"#utility.yul\":5611:5630   */\n      swap1\n      pop\n        /* \"#utility.yul\":5270:5636   */\n      swap2\n      swap1\n      pop\n      jump\t// out\n        /* \"#utility.yul\":5642:6061   */\n    tag_66:\n        /* \"#utility.yul\":5808:5812   */\n      0x00\n        /* \"#utility.yul\":5846:5848   */\n      0x20\n        /* \"#utility.yul\":5835:5844   */\n      dup3\n        /* \"#utility.yul\":5831:5849   */\n      add\n        /* \"#utility.yul\":5823:5849   */\n      swap1\n      pop\n        /* \"#utility.yul\":5895:5904   */\n      dup2\n        /* \"#utility.yul\":5889:5893   */\n      dup2\n        /* \"#utility.yul\":5885:5905   */\n      sub\n        /* \"#utility.yul\":5881:5882   */\n      0x00\n        /* \"#utility.yul\":5870:5879   */\n      dup4\n        /* \"#utility.yul\":5866:5883   */\n      add\n        /* \"#utility.yul\":5859:5906   */\n      mstore\n        /* \"#utility.yul\":5923:6054   */\n      tag_153\n        /* \"#utility.yul\":6049:6053   */\n      dup2\n        /* \"#utility.yul\":5923:6054   */\n      tag_91\n      jump\t// in\n    tag_153:\n        /* \"#utility.yul\":5915:6054   */\n      swap1\n      pop\n        /* \"#utility.yul\":5642:6061   */\n      swap2\n      swap1\n      pop\n      jump\t// out\n        /* \"#utility.yul\":6067:6477   */\n    tag_72:\n        /* \"#utility.yul\":6107:6114   */\n      0x00\n        /* \"#utility.yul\":6130:6150   */\n      tag_155\n        /* \"#utility.yul\":6148:6149   */\n      dup3\n        /* \"#utility.yul\":6130:6150   */\n      tag_73\n      jump\t// in\n    tag_155:\n        /* \"#utility.yul\":6125:6150   */\n      swap2\n      pop\n        /* \"#utility.yul\":6164:6184   */\n      tag_156\n        /* \"#utility.yul\":6182:6183   */\n      dup4\n        /* \"#utility.yul\":6164:6184   */\n      tag_73\n      jump\t// in\n    tag_156:\n        /* \"#utility.yul\":6159:6184   */\n      swap3\n      pop\n        /* \"#utility.yul\":6219:6220   */\n      dup3\n        /* \"#utility.yul\":6216:6217   */\n      dup3\n        /* \"#utility.yul\":6212:6221   */\n      mul\n        /* \"#utility.yul\":6241:6271   */\n      tag_157\n        /* \"#utility.yul\":6259:6270   */\n      dup2\n        /* \"#utility.yul\":6241:6271   */\n      tag_73\n      jump\t// in\n    tag_157:\n        /* \"#utility.yul\":6230:6271   */\n      swap2\n      pop\n        /* \"#utility.yul\":6420:6421   */\n      dup3\n        /* \"#utility.yul\":6411:6418   */\n      dup3\n        /* \"#utility.yul\":6407:6422   */\n      div\n        /* \"#utility.yul\":6404:6405   */\n      dup5\n        /* \"#utility.yul\":6401:6423   */\n      eq\n        /* \"#utility.yul\":6381:6382   */\n      dup4\n        /* \"#utility.yul\":6374:6383   */\n      iszero\n        /* \"#utility.yul\":6354:6437   */\n      or\n        /* \"#utility.yul\":6331:6470   */\n      tag_158\n      jumpi\n        /* \"#utility.yul\":6450:6468   */\n      tag_159\n      tag_87\n      jump\t// in\n    tag_159:\n        /* \"#utility.yul\":6331:6470   */\n    tag_158:\n        /* \"#utility.yul\":6115:6477   */\n      pop\n        /* \"#utility.yul\":6067:6477   */\n      swap3\n      swap2\n      pop\n      pop\n      jump\t// out\n\n    auxdata: 0xa26469706673582212204527d31db6a8fbbb349b8ba37d0354401204e5180f2915bb8abda5ed94df594764736f6c63430008120033\n}\n",
				"bytecode": {
					"linkReferences": {},
					"object": "608060405234801561001057600080fd5b5061073e806100206000396000f3fe608060405234801561001057600080fd5b50600436106100885760003560e01c8063b3bcfa821161005b578063b3bcfa82146100ef578063bedb86fb146100f9578063bfc2e3d514610115578063c29855781461013157610088565b806306661abd1461008d578063371303c0146100ab5780635c975abb146100b557806370119d06146100d3575b600080fd5b61009561013b565b6040516100a291906103d2565b60405180910390f35b6100b3610141565b005b6100bd6101aa565b6040516100ca9190610408565b60405180910390f35b6100ed60048036038101906100e89190610454565b6101bb565b005b6100f761026a565b005b610113600480360381019061010e91906104ad565b6102d3565b005b61012f600480360381019061012a9190610454565b6102ef565b005b61013961036a565b005b60015481565b60008054906101000a900460ff161561018f576040517f08c379a000000000000000000000000000000000000000000000000000000000815260040161018690610537565b60405180910390fd5b60018060008282546101a19190610586565b92505081905550565b60008054906101000a900460ff1681565b60008054906101000a900460ff1615610209576040517f08c379a000000000000000000000000000000000000000000000000000000000815260040161020090610537565b60405180910390fd5b806064811061024d576040517f08c379a000000000000000000000000000000000000000000000000000000000815260040161024490610606565b60405180910390fd5b816001600082825461025f9190610586565b925050819055505050565b60008054906101000a900460ff16156102b8576040517f08c379a00000000000000000000000000000000000000000000000000000000081526004016102af90610537565b60405180910390fd5b60018060008282546102ca9190610626565b92505081905550565b806000806101000a81548160ff02191690831515021790555050565b6008600160008282546103029190610586565b92505081905550806001600082825461031b9190610626565b92505081905550600060015411610367576040517f08c379a000000000000000000000000000000000000000000000000000000000815260040161035e906106a6565b60405180910390fd5b50565b600a6001600082825461037d9190610586565b9250508190555060018060008282546103969190610586565b925050819055506002600160008282546103b091906106c6565b92505081905550565b6000819050919050565b6103cc816103b9565b82525050565b60006020820190506103e760008301846103c3565b92915050565b60008115159050919050565b610402816103ed565b82525050565b600060208201905061041d60008301846103f9565b92915050565b600080fd5b610431816103b9565b811461043c57600080fd5b50565b60008135905061044e81610428565b92915050565b60006020828403121561046a57610469610423565b5b60006104788482850161043f565b91505092915050565b61048a816103ed565b811461049557600080fd5b50565b6000813590506104a781610481565b92915050565b6000602082840312156104c3576104c2610423565b5b60006104d184828501610498565b91505092915050565b600082825260208201905092915050565b7f636f6e7472616374206973207061757365640000000000000000000000000000600082015250565b60006105216012836104da565b915061052c826104eb565b602082019050919050565b6000602082019050818103600083015261055081610514565b9050919050565b7f4e487b7100000000000000000000000000000000000000000000000000000000600052601160045260246000fd5b6000610591826103b9565b915061059c836103b9565b92508282019050808211156105b4576105b3610557565b5b92915050565b7f696e70757420617267206d757374203e3d203130300000000000000000000000600082015250565b60006105f06015836104da565b91506105fb826105ba565b602082019050919050565b6000602082019050818103600083015261061f816105e3565b9050919050565b6000610631826103b9565b915061063c836103b9565b925082820390508181111561065457610653610557565b5b92915050565b7f736f7272792c20636865636b206661696c000000000000000000000000000000600082015250565b60006106906011836104da565b915061069b8261065a565b602082019050919050565b600060208201905081810360008301526106bf81610683565b9050919050565b60006106d1826103b9565b91506106dc836103b9565b92508282026106ea816103b9565b9150828204841483151761070157610700610557565b5b509291505056fea26469706673582212204527d31db6a8fbbb349b8ba37d0354401204e5180f2915bb8abda5ed94df594764736f6c63430008120033",
					"opcodes": "PUSH1 0x80 PUSH1 0x40 MSTORE CALLVALUE DUP1 ISZERO PUSH2 0x10 JUMPI PUSH1 0x0 DUP1 REVERT JUMPDEST POP PUSH2 0x73E DUP1 PUSH2 0x20 PUSH1 0x0 CODECOPY PUSH1 0x0 RETURN INVALID PUSH1 0x80 PUSH1 0x40 MSTORE CALLVALUE DUP1 ISZERO PUSH2 0x10 JUMPI PUSH1 0x0 DUP1 REVERT JUMPDEST POP PUSH1 0x4 CALLDATASIZE LT PUSH2 0x88 JUMPI PUSH1 0x0 CALLDATALOAD PUSH1 0xE0 SHR DUP1 PUSH4 0xB3BCFA82 GT PUSH2 0x5B JUMPI DUP1 PUSH4 0xB3BCFA82 EQ PUSH2 0xEF JUMPI DUP1 PUSH4 0xBEDB86FB EQ PUSH2 0xF9 JUMPI DUP1 PUSH4 0xBFC2E3D5 EQ PUSH2 0x115 JUMPI DUP1 PUSH4 0xC2985578 EQ PUSH2 0x131 JUMPI PUSH2 0x88 JUMP JUMPDEST DUP1 PUSH4 0x6661ABD EQ PUSH2 0x8D JUMPI DUP1 PUSH4 0x371303C0 EQ PUSH2 0xAB JUMPI DUP1 PUSH4 0x5C975ABB EQ PUSH2 0xB5 JUMPI DUP1 PUSH4 0x70119D06 EQ PUSH2 0xD3 JUMPI JUMPDEST PUSH1 0x0 DUP1 REVERT JUMPDEST PUSH2 0x95 PUSH2 0x13B JUMP JUMPDEST PUSH1 0x40 MLOAD PUSH2 0xA2 SWAP2 SWAP1 PUSH2 0x3D2 JUMP JUMPDEST PUSH1 0x40 MLOAD DUP1 SWAP2 SUB SWAP1 RETURN JUMPDEST PUSH2 0xB3 PUSH2 0x141 JUMP JUMPDEST STOP JUMPDEST PUSH2 0xBD PUSH2 0x1AA JUMP JUMPDEST PUSH1 0x40 MLOAD PUSH2 0xCA SWAP2 SWAP1 PUSH2 0x408 JUMP JUMPDEST PUSH1 0x40 MLOAD DUP1 SWAP2 SUB SWAP1 RETURN JUMPDEST PUSH2 0xED PUSH1 0x4 DUP1 CALLDATASIZE SUB DUP2 ADD SWAP1 PUSH2 0xE8 SWAP2 SWAP1 PUSH2 0x454 JUMP JUMPDEST PUSH2 0x1BB JUMP JUMPDEST STOP JUMPDEST PUSH2 0xF7 PUSH2 0x26A JUMP JUMPDEST STOP JUMPDEST PUSH2 0x113 PUSH1 0x4 DUP1 CALLDATASIZE SUB DUP2 ADD SWAP1 PUSH2 0x10E SWAP2 SWAP1 PUSH2 0x4AD JUMP JUMPDEST PUSH2 0x2D3 JUMP JUMPDEST STOP JUMPDEST PUSH2 0x12F PUSH1 0x4 DUP1 CALLDATASIZE SUB DUP2 ADD SWAP1 PUSH2 0x12A SWAP2 SWAP1 PUSH2 0x454 JUMP JUMPDEST PUSH2 0x2EF JUMP JUMPDEST STOP JUMPDEST PUSH2 0x139 PUSH2 0x36A JUMP JUMPDEST STOP JUMPDEST PUSH1 0x1 SLOAD DUP2 JUMP JUMPDEST PUSH1 0x0 DUP1 SLOAD SWAP1 PUSH2 0x100 EXP SWAP1 DIV PUSH1 0xFF AND ISZERO PUSH2 0x18F JUMPI PUSH1 0x40 MLOAD PUSH32 0x8C379A000000000000000000000000000000000000000000000000000000000 DUP2 MSTORE PUSH1 0x4 ADD PUSH2 0x186 SWAP1 PUSH2 0x537 JUMP JUMPDEST PUSH1 0x40 MLOAD DUP1 SWAP2 SUB SWAP1 REVERT JUMPDEST PUSH1 0x1 DUP1 PUSH1 0x0 DUP3 DUP3 SLOAD PUSH2 0x1A1 SWAP2 SWAP1 PUSH2 0x586 JUMP JUMPDEST SWAP3 POP POP DUP2 SWAP1 SSTORE POP JUMP JUMPDEST PUSH1 0x0 DUP1 SLOAD SWAP1 PUSH2 0x100 EXP SWAP1 DIV PUSH1 0xFF AND DUP2 JUMP JUMPDEST PUSH1 0x0 DUP1 SLOAD SWAP1 PUSH2 0x100 EXP SWAP1 DIV PUSH1 0xFF AND ISZERO PUSH2 0x209 JUMPI PUSH1 0x40 MLOAD PUSH32 0x8C379A000000000000000000000000000000000000000000000000000000000 DUP2 MSTORE PUSH1 0x4 ADD PUSH2 0x200 SWAP1 PUSH2 0x537 JUMP JUMPDEST PUSH1 0x40 MLOAD DUP1 SWAP2 SUB SWAP1 REVERT JUMPDEST DUP1 PUSH1 0x64 DUP2 LT PUSH2 0x24D JUMPI PUSH1 0x40 MLOAD PUSH32 0x8C379A000000000000000000000000000000000000000000000000000000000 DUP2 MSTORE PUSH1 0x4 ADD PUSH2 0x244 SWAP1 PUSH2 0x606 JUMP JUMPDEST PUSH1 0x40 MLOAD DUP1 SWAP2 SUB SWAP1 REVERT JUMPDEST DUP2 PUSH1 0x1 PUSH1 0x0 DUP3 DUP3 SLOAD PUSH2 0x25F SWAP2 SWAP1 PUSH2 0x586 JUMP JUMPDEST SWAP3 POP POP DUP2 SWAP1 SSTORE POP POP POP JUMP JUMPDEST PUSH1 0x0 DUP1 SLOAD SWAP1 PUSH2 0x100 EXP SWAP1 DIV PUSH1 0xFF AND ISZERO PUSH2 0x2B8 JUMPI PUSH1 0x40 MLOAD PUSH32 0x8C379A000000000000000000000000000000000000000000000000000000000 DUP2 MSTORE PUSH1 0x4 ADD PUSH2 0x2AF SWAP1 PUSH2 0x537 JUMP JUMPDEST PUSH1 0x40 MLOAD DUP1 SWAP2 SUB SWAP1 REVERT JUMPDEST PUSH1 0x1 DUP1 PUSH1 0x0 DUP3 DUP3 SLOAD PUSH2 0x2CA SWAP2 SWAP1 PUSH2 0x626 JUMP JUMPDEST SWAP3 POP POP DUP2 SWAP1 SSTORE POP JUMP JUMPDEST DUP1 PUSH1 0x0 DUP1 PUSH2 0x100 EXP DUP2 SLOAD DUP2 PUSH1 0xFF MUL NOT AND SWAP1 DUP4 ISZERO ISZERO MUL OR SWAP1 SSTORE POP POP JUMP JUMPDEST PUSH1 0x8 PUSH1 0x1 PUSH1 0x0 DUP3 DUP3 SLOAD PUSH2 0x302 SWAP2 SWAP1 PUSH2 0x586 JUMP JUMPDEST SWAP3 POP POP DUP2 SWAP1 SSTORE POP DUP1 PUSH1 0x1 PUSH1 0x0 DUP3 DUP3 SLOAD PUSH2 0x31B SWAP2 SWAP1 PUSH2 0x626 JUMP JUMPDEST SWAP3 POP POP DUP2 SWAP1 SSTORE POP PUSH1 0x0 PUSH1 0x1 SLOAD GT PUSH2 0x367 JUMPI PUSH1 0x40 MLOAD PUSH32 0x8C379A000000000000000000000000000000000000000000000000000000000 DUP2 MSTORE PUSH1 0x4 ADD PUSH2 0x35E SWAP1 PUSH2 0x6A6 JUMP JUMPDEST PUSH1 0x40 MLOAD DUP1 SWAP2 SUB SWAP1 REVERT JUMPDEST POP JUMP JUMPDEST PUSH1 0xA PUSH1 0x1 PUSH1 0x0 DUP3 DUP3 SLOAD PUSH2 0x37D SWAP2 SWAP1 PUSH2 0x586 JUMP JUMPDEST SWAP3 POP POP DUP2 SWAP1 SSTORE POP PUSH1 0x1 DUP1 PUSH1 0x0 DUP3 DUP3 SLOAD PUSH2 0x396 SWAP2 SWAP1 PUSH2 0x586 JUMP JUMPDEST SWAP3 POP POP DUP2 SWAP1 SSTORE POP PUSH1 0x2 PUSH1 0x1 PUSH1 0x0 DUP3 DUP3 SLOAD PUSH2 0x3B0 SWAP2 SWAP1 PUSH2 0x6C6 JUMP JUMPDEST SWAP3 POP POP DUP2 SWAP1 SSTORE POP JUMP JUMPDEST PUSH1 0x0 DUP2 SWAP1 POP SWAP2 SWAP1 POP JUMP JUMPDEST PUSH2 0x3CC DUP2 PUSH2 0x3B9 JUMP JUMPDEST DUP3 MSTORE POP POP JUMP JUMPDEST PUSH1 0x0 PUSH1 0x20 DUP3 ADD SWAP1 POP PUSH2 0x3E7 PUSH1 0x0 DUP4 ADD DUP5 PUSH2 0x3C3 JUMP JUMPDEST SWAP3 SWAP2 POP POP JUMP JUMPDEST PUSH1 0x0 DUP2 ISZERO ISZERO SWAP1 POP SWAP2 SWAP1 POP JUMP JUMPDEST PUSH2 0x402 DUP2 PUSH2 0x3ED JUMP JUMPDEST DUP3 MSTORE POP POP JUMP JUMPDEST PUSH1 0x0 PUSH1 0x20 DUP3 ADD SWAP1 POP PUSH2 0x41D PUSH1 0x0 DUP4 ADD DUP5 PUSH2 0x3F9 JUMP JUMPDEST SWAP3 SWAP2 POP POP JUMP JUMPDEST PUSH1 0x0 DUP1 REVERT JUMPDEST PUSH2 0x431 DUP2 PUSH2 0x3B9 JUMP JUMPDEST DUP2 EQ PUSH2 0x43C JUMPI PUSH1 0x0 DUP1 REVERT JUMPDEST POP JUMP JUMPDEST PUSH1 0x0 DUP2 CALLDATALOAD SWAP1 POP PUSH2 0x44E DUP2 PUSH2 0x428 JUMP JUMPDEST SWAP3 SWAP2 POP POP JUMP JUMPDEST PUSH1 0x0 PUSH1 0x20 DUP3 DUP5 SUB SLT ISZERO PUSH2 0x46A JUMPI PUSH2 0x469 PUSH2 0x423 JUMP JUMPDEST JUMPDEST PUSH1 0x0 PUSH2 0x478 DUP5 DUP3 DUP6 ADD PUSH2 0x43F JUMP JUMPDEST SWAP2 POP POP SWAP3 SWAP2 POP POP JUMP JUMPDEST PUSH2 0x48A DUP2 PUSH2 0x3ED JUMP JUMPDEST DUP2 EQ PUSH2 0x495 JUMPI PUSH1 0x0 DUP1 REVERT JUMPDEST POP JUMP JUMPDEST PUSH1 0x0 DUP2 CALLDATALOAD SWAP1 POP PUSH2 0x4A7 DUP2 PUSH2 0x481 JUMP JUMPDEST SWAP3 SWAP2 POP POP JUMP JUMPDEST PUSH1 0x0 PUSH1 0x20 DUP3 DUP5 SUB SLT ISZERO PUSH2 0x4C3 JUMPI PUSH2 0x4C2 PUSH2 0x423 JUMP JUMPDEST JUMPDEST PUSH1 0x0 PUSH2 0x4D1 DUP5 DUP3 DUP6 ADD PUSH2 0x498 JUMP JUMPDEST SWAP2 POP POP SWAP3 SWAP2 POP POP JUMP JUMPDEST PUSH1 0x0 DUP3 DUP3 MSTORE PUSH1 0x20 DUP3 ADD SWAP1 POP SWAP3 SWAP2 POP POP JUMP JUMPDEST PUSH32 0x636F6E7472616374206973207061757365640000000000000000000000000000 PUSH1 0x0 DUP3 ADD MSTORE POP JUMP JUMPDEST PUSH1 0x0 PUSH2 0x521 PUSH1 0x12 DUP4 PUSH2 0x4DA JUMP JUMPDEST SWAP2 POP PUSH2 0x52C DUP3 PUSH2 0x4EB JUMP JUMPDEST PUSH1 0x20 DUP3 ADD SWAP1 POP SWAP2 SWAP1 POP JUMP JUMPDEST PUSH1 0x0 PUSH1 0x20 DUP3 ADD SWAP1 POP DUP2 DUP2 SUB PUSH1 0x0 DUP4 ADD MSTORE PUSH2 0x550 DUP2 PUSH2 0x514 JUMP JUMPDEST SWAP1 POP SWAP2 SWAP1 POP JUMP JUMPDEST PUSH32 0x4E487B7100000000000000000000000000000000000000000000000000000000 PUSH1 0x0 MSTORE PUSH1 0x11 PUSH1 0x4 MSTORE PUSH1 0x24 PUSH1 0x0 REVERT JUMPDEST PUSH1 0x0 PUSH2 0x591 DUP3 PUSH2 0x3B9 JUMP JUMPDEST SWAP2 POP PUSH2 0x59C DUP4 PUSH2 0x3B9 JUMP JUMPDEST SWAP3 POP DUP3 DUP3 ADD SWAP1 POP DUP1 DUP3 GT ISZERO PUSH2 0x5B4 JUMPI PUSH2 0x5B3 PUSH2 0x557 JUMP JUMPDEST JUMPDEST SWAP3 SWAP2 POP POP JUMP JUMPDEST PUSH32 0x696E70757420617267206D757374203E3D203130300000000000000000000000 PUSH1 0x0 DUP3 ADD MSTORE POP JUMP JUMPDEST PUSH1 0x0 PUSH2 0x5F0 PUSH1 0x15 DUP4 PUSH2 0x4DA JUMP JUMPDEST SWAP2 POP PUSH2 0x5FB DUP3 PUSH2 0x5BA JUMP JUMPDEST PUSH1 0x20 DUP3 ADD SWAP1 POP SWAP2 SWAP1 POP JUMP JUMPDEST PUSH1 0x0 PUSH1 0x20 DUP3 ADD SWAP1 POP DUP2 DUP2 SUB PUSH1 0x0 DUP4 ADD MSTORE PUSH2 0x61F DUP2 PUSH2 0x5E3 JUMP JUMPDEST SWAP1 POP SWAP2 SWAP1 POP JUMP JUMPDEST PUSH1 0x0 PUSH2 0x631 DUP3 PUSH2 0x3B9 JUMP JUMPDEST SWAP2 POP PUSH2 0x63C DUP4 PUSH2 0x3B9 JUMP JUMPDEST SWAP3 POP DUP3 DUP3 SUB SWAP1 POP DUP2 DUP2 GT ISZERO PUSH2 0x654 JUMPI PUSH2 0x653 PUSH2 0x557 JUMP JUMPDEST JUMPDEST SWAP3 SWAP2 POP POP JUMP JUMPDEST PUSH32 0x736F7272792C20636865636B206661696C000000000000000000000000000000 PUSH1 0x0 DUP3 ADD MSTORE POP JUMP JUMPDEST PUSH1 0x0 PUSH2 0x690 PUSH1 0x11 DUP4 PUSH2 0x4DA JUMP JUMPDEST SWAP2 POP PUSH2 0x69B DUP3 PUSH2 0x65A JUMP JUMPDEST PUSH1 0x20 DUP3 ADD SWAP1 POP SWAP2 SWAP1 POP JUMP JUMPDEST PUSH1 0x0 PUSH1 0x20 DUP3 ADD SWAP1 POP DUP2 DUP2 SUB PUSH1 0x0 DUP4 ADD MSTORE PUSH2 0x6BF DUP2 PUSH2 0x683 JUMP JUMPDEST SWAP1 POP SWAP2 SWAP1 POP JUMP JUMPDEST PUSH1 0x0 PUSH2 0x6D1 DUP3 PUSH2 0x3B9 JUMP JUMPDEST SWAP2 POP PUSH2 0x6DC DUP4 PUSH2 0x3B9 JUMP JUMPDEST SWAP3 POP DUP3 DUP3 MUL PUSH2 0x6EA DUP2 PUSH2 0x3B9 JUMP JUMPDEST SWAP2 POP DUP3 DUP3 DIV DUP5 EQ DUP4 ISZERO OR PUSH2 0x701 JUMPI PUSH2 0x700 PUSH2 0x557 JUMP JUMPDEST JUMPDEST POP SWAP3 SWAP2 POP POP JUMP INVALID LOG2 PUSH5 0x6970667358 0x22 SLT KECCAK256 GASLIMIT 0x27 0xD3 SAR 0xB6 0xA8 0xFB 0xBB CALLVALUE SWAP12 DUP12 LOG3 PUSH30 0x354401204E5180F2915BB8ABDA5ED94DF594764736F6C63430008120033 "
				},
				"gasEstimates": {
					"creation": {
						"codeDepositCost": "370800",
						"executionCost": "405",
						"totalCost": "371205"
					},
					"external": {
						"boo(uint256)": "infinite",
						"count()": "2430",
						"dec()": "infinite",
						"foo()": "infinite",
						"inc()": "infinite",
						"incBy(uint256)": "infinite",
						"paused()": "2513",
						"setPause(bool)": "24701"
					}
				},
				"methodIdentifiers": {
					"boo(uint256)": "bfc2e3d5",
					"count()": "06661abd",
					"dec()": "b3bcfa82",
					"foo()": "c2985578",
					"inc()": "371303c0",
					"incBy(uint256)": "70119d06",
					"paused()": "5c975abb",
					"setPause(bool)": "bedb86fb"
				}
			},
			"storageLayout": {
				"storage": [
					{
						"astId": 3,
						"contract": "02_Function_Modifier.sol:FunctionModifier",
						"label": "paused",
						"offset": 0,
						"slot": "0",
						"type": "t_bool"
					},
					{
						"astId": 5,
						"contract": "02_Function_Modifier.sol:FunctionModifier",
						"label": "count",
						"offset": 0,
						"slot": "1",
						"type": "t_uint256"
					}
				],
				"types": {
					"t_bool": {
						"encoding": "inplace",
						"label": "bool",
						"numberOfBytes": "1"
					},
					"t_uint256": {
						"encoding": "inplace",
						"label": "uint256",
						"numberOfBytes": "32"
					}
				}
			},
			"userdoc": {
				"kind": "user",
				"methods": {},
				"version": 1
			}
		}
	}
}